{
	"contracts/crowdfunding.sol": {
		"Crowdfunding": {
			"abi": [
				{
					"inputs": [
						{
							"internalType": "uint256",
							"name": "_target",
							"type": "uint256"
						},
						{
							"internalType": "uint256",
							"name": "_deadline",
							"type": "uint256"
						}
					],
					"stateMutability": "nonpayable",
					"type": "constructor"
				},
				{
					"anonymous": false,
					"inputs": [
						{
							"indexed": false,
							"internalType": "address",
							"name": "contributor",
							"type": "address"
						},
						{
							"indexed": false,
							"internalType": "uint256",
							"name": "amount",
							"type": "uint256"
						}
					],
					"name": "ContributionReceived",
					"type": "event"
				},
				{
					"anonymous": false,
					"inputs": [
						{
							"indexed": false,
							"internalType": "address",
							"name": "recipient",
							"type": "address"
						},
						{
							"indexed": false,
							"internalType": "uint256",
							"name": "value",
							"type": "uint256"
						}
					],
					"name": "PaymentMade",
					"type": "event"
				},
				{
					"anonymous": false,
					"inputs": [
						{
							"indexed": false,
							"internalType": "address",
							"name": "contributor",
							"type": "address"
						},
						{
							"indexed": false,
							"internalType": "uint256",
							"name": "amount",
							"type": "uint256"
						}
					],
					"name": "RefundIssued",
					"type": "event"
				},
				{
					"anonymous": false,
					"inputs": [
						{
							"indexed": false,
							"internalType": "string",
							"name": "description",
							"type": "string"
						},
						{
							"indexed": false,
							"internalType": "address",
							"name": "recipient",
							"type": "address"
						},
						{
							"indexed": false,
							"internalType": "uint256",
							"name": "value",
							"type": "uint256"
						}
					],
					"name": "RequestCreated",
					"type": "event"
				},
				{
					"inputs": [
						{
							"internalType": "address",
							"name": "",
							"type": "address"
						}
					],
					"name": "contributors",
					"outputs": [
						{
							"internalType": "uint256",
							"name": "",
							"type": "uint256"
						}
					],
					"stateMutability": "view",
					"type": "function"
				},
				{
					"inputs": [
						{
							"internalType": "string",
							"name": "_description",
							"type": "string"
						},
						{
							"internalType": "address payable",
							"name": "_recipient",
							"type": "address"
						},
						{
							"internalType": "uint256",
							"name": "_value",
							"type": "uint256"
						}
					],
					"name": "createRequest",
					"outputs": [],
					"stateMutability": "nonpayable",
					"type": "function"
				},
				{
					"inputs": [],
					"name": "deadline",
					"outputs": [
						{
							"internalType": "uint256",
							"name": "",
							"type": "uint256"
						}
					],
					"stateMutability": "view",
					"type": "function"
				},
				{
					"inputs": [],
					"name": "getContractBalance",
					"outputs": [
						{
							"internalType": "uint256",
							"name": "",
							"type": "uint256"
						}
					],
					"stateMutability": "view",
					"type": "function"
				},
				{
					"inputs": [
						{
							"internalType": "uint256",
							"name": "_requestNo",
							"type": "uint256"
						}
					],
					"name": "makePayment",
					"outputs": [],
					"stateMutability": "nonpayable",
					"type": "function"
				},
				{
					"inputs": [],
					"name": "manager",
					"outputs": [
						{
							"internalType": "address",
							"name": "",
							"type": "address"
						}
					],
					"stateMutability": "view",
					"type": "function"
				},
				{
					"inputs": [],
					"name": "minContribution",
					"outputs": [
						{
							"internalType": "uint256",
							"name": "",
							"type": "uint256"
						}
					],
					"stateMutability": "view",
					"type": "function"
				},
				{
					"inputs": [],
					"name": "noOfContributors",
					"outputs": [
						{
							"internalType": "uint256",
							"name": "",
							"type": "uint256"
						}
					],
					"stateMutability": "view",
					"type": "function"
				},
				{
					"inputs": [],
					"name": "numRequest",
					"outputs": [
						{
							"internalType": "uint256",
							"name": "",
							"type": "uint256"
						}
					],
					"stateMutability": "view",
					"type": "function"
				},
				{
					"inputs": [],
					"name": "raiseAmount",
					"outputs": [
						{
							"internalType": "uint256",
							"name": "",
							"type": "uint256"
						}
					],
					"stateMutability": "view",
					"type": "function"
				},
				{
					"inputs": [],
					"name": "refund",
					"outputs": [],
					"stateMutability": "nonpayable",
					"type": "function"
				},
				{
					"inputs": [
						{
							"internalType": "uint256",
							"name": "",
							"type": "uint256"
						}
					],
					"name": "request",
					"outputs": [
						{
							"internalType": "string",
							"name": "description",
							"type": "string"
						},
						{
							"internalType": "address payable",
							"name": "recipient",
							"type": "address"
						},
						{
							"internalType": "uint256",
							"name": "value",
							"type": "uint256"
						},
						{
							"internalType": "bool",
							"name": "isCompleted",
							"type": "bool"
						},
						{
							"internalType": "uint256",
							"name": "noOfVoters",
							"type": "uint256"
						}
					],
					"stateMutability": "view",
					"type": "function"
				},
				{
					"inputs": [],
					"name": "sendEther",
					"outputs": [],
					"stateMutability": "payable",
					"type": "function"
				},
				{
					"inputs": [],
					"name": "target",
					"outputs": [
						{
							"internalType": "uint256",
							"name": "",
							"type": "uint256"
						}
					],
					"stateMutability": "view",
					"type": "function"
				},
				{
					"inputs": [
						{
							"internalType": "uint256",
							"name": "_requestNo",
							"type": "uint256"
						}
					],
					"name": "voteRequest",
					"outputs": [],
					"stateMutability": "nonpayable",
					"type": "function"
				}
			],
			"devdoc": {
				"kind": "dev",
				"methods": {},
				"version": 1
			},
			"evm": {
				"assembly": "    /* \"contracts/crowdfunding.sol\":66:3875  contract Crowdfunding {... */\n  mstore(0x40, 0x80)\n    /* \"contracts/crowdfunding.sol\":879:1073  constructor (uint _target, uint _deadline) {... */\n  callvalue\n  dup1\n  iszero\n  tag_1\n  jumpi\n  0x00\n  dup1\n  revert\ntag_1:\n  pop\n  mload(0x40)\n  sub(codesize, bytecodeSize)\n  dup1\n  bytecodeSize\n  dup4\n  codecopy\n  dup2\n  dup2\n  add\n  0x40\n  mstore\n  dup2\n  add\n  swap1\n  tag_2\n  swap2\n  swap1\n  tag_3\n  jump\t// in\ntag_2:\n    /* \"contracts/crowdfunding.sol\":942:949  _target */\n  dup2\n    /* \"contracts/crowdfunding.sol\":933:939  target */\n  0x04\n    /* \"contracts/crowdfunding.sol\":933:949  target = _target */\n  dup2\n  swap1\n  sstore\n  pop\n    /* \"contracts/crowdfunding.sol\":989:998  _deadline */\n  dup1\n    /* \"contracts/crowdfunding.sol\":971:986  block.timestamp */\n  timestamp\n    /* \"contracts/crowdfunding.sol\":971:998  block.timestamp + _deadline */\n  tag_6\n  swap2\n  swap1\n  tag_7\n  jump\t// in\ntag_6:\n    /* \"contracts/crowdfunding.sol\":960:968  deadline */\n  0x03\n    /* \"contracts/crowdfunding.sol\":960:998  deadline = block.timestamp + _deadline */\n  dup2\n  swap1\n  sstore\n  pop\n    /* \"contracts/crowdfunding.sol\":1027:1034  100 wei */\n  0x64\n    /* \"contracts/crowdfunding.sol\":1009:1024  minContribution */\n  0x02\n    /* \"contracts/crowdfunding.sol\":1009:1034  minContribution = 100 wei */\n  dup2\n  swap1\n  sstore\n  pop\n    /* \"contracts/crowdfunding.sol\":1055:1065  msg.sender */\n  caller\n    /* \"contracts/crowdfunding.sol\":1045:1052  manager */\n  0x01\n  0x00\n    /* \"contracts/crowdfunding.sol\":1045:1065  manager = msg.sender */\n  0x0100\n  exp\n  dup2\n  sload\n  dup2\n  0xffffffffffffffffffffffffffffffffffffffff\n  mul\n  not\n  and\n  swap1\n  dup4\n  0xffffffffffffffffffffffffffffffffffffffff\n  and\n  mul\n  or\n  swap1\n  sstore\n  pop\n    /* \"contracts/crowdfunding.sol\":879:1073  constructor (uint _target, uint _deadline) {... */\n  pop\n  pop\n    /* \"contracts/crowdfunding.sol\":66:3875  contract Crowdfunding {... */\n  jump(tag_8)\n    /* \"#utility.yul\":88:205   */\ntag_10:\n    /* \"#utility.yul\":197:198   */\n  0x00\n    /* \"#utility.yul\":194:195   */\n  dup1\n    /* \"#utility.yul\":187:199   */\n  revert\n    /* \"#utility.yul\":334:411   */\ntag_12:\n    /* \"#utility.yul\":371:378   */\n  0x00\n    /* \"#utility.yul\":400:405   */\n  dup2\n    /* \"#utility.yul\":389:405   */\n  swap1\n  pop\n    /* \"#utility.yul\":334:411   */\n  swap2\n  swap1\n  pop\n  jump\t// out\n    /* \"#utility.yul\":417:539   */\ntag_13:\n    /* \"#utility.yul\":490:514   */\n  tag_22\n    /* \"#utility.yul\":508:513   */\n  dup2\n    /* \"#utility.yul\":490:514   */\n  tag_12\n  jump\t// in\ntag_22:\n    /* \"#utility.yul\":483:488   */\n  dup2\n    /* \"#utility.yul\":480:515   */\n  eq\n    /* \"#utility.yul\":470:533   */\n  tag_23\n  jumpi\n    /* \"#utility.yul\":529:530   */\n  0x00\n    /* \"#utility.yul\":526:527   */\n  dup1\n    /* \"#utility.yul\":519:531   */\n  revert\n    /* \"#utility.yul\":470:533   */\ntag_23:\n    /* \"#utility.yul\":417:539   */\n  pop\n  jump\t// out\n    /* \"#utility.yul\":545:688   */\ntag_14:\n    /* \"#utility.yul\":602:607   */\n  0x00\n    /* \"#utility.yul\":633:639   */\n  dup2\n    /* \"#utility.yul\":627:640   */\n  mload\n    /* \"#utility.yul\":618:640   */\n  swap1\n  pop\n    /* \"#utility.yul\":649:682   */\n  tag_25\n    /* \"#utility.yul\":676:681   */\n  dup2\n    /* \"#utility.yul\":649:682   */\n  tag_13\n  jump\t// in\ntag_25:\n    /* \"#utility.yul\":545:688   */\n  swap3\n  swap2\n  pop\n  pop\n  jump\t// out\n    /* \"#utility.yul\":694:1201   */\ntag_3:\n    /* \"#utility.yul\":773:779   */\n  0x00\n    /* \"#utility.yul\":781:787   */\n  dup1\n    /* \"#utility.yul\":830:832   */\n  0x40\n    /* \"#utility.yul\":818:827   */\n  dup4\n    /* \"#utility.yul\":809:816   */\n  dup6\n    /* \"#utility.yul\":805:828   */\n  sub\n    /* \"#utility.yul\":801:833   */\n  slt\n    /* \"#utility.yul\":798:917   */\n  iszero\n  tag_27\n  jumpi\n    /* \"#utility.yul\":836:915   */\n  tag_28\n  tag_10\n  jump\t// in\ntag_28:\n    /* \"#utility.yul\":798:917   */\ntag_27:\n    /* \"#utility.yul\":956:957   */\n  0x00\n    /* \"#utility.yul\":981:1045   */\n  tag_29\n    /* \"#utility.yul\":1037:1044   */\n  dup6\n    /* \"#utility.yul\":1028:1034   */\n  dup3\n    /* \"#utility.yul\":1017:1026   */\n  dup7\n    /* \"#utility.yul\":1013:1035   */\n  add\n    /* \"#utility.yul\":981:1045   */\n  tag_14\n  jump\t// in\ntag_29:\n    /* \"#utility.yul\":971:1045   */\n  swap3\n  pop\n    /* \"#utility.yul\":927:1055   */\n  pop\n    /* \"#utility.yul\":1094:1096   */\n  0x20\n    /* \"#utility.yul\":1120:1184   */\n  tag_30\n    /* \"#utility.yul\":1176:1183   */\n  dup6\n    /* \"#utility.yul\":1167:1173   */\n  dup3\n    /* \"#utility.yul\":1156:1165   */\n  dup7\n    /* \"#utility.yul\":1152:1174   */\n  add\n    /* \"#utility.yul\":1120:1184   */\n  tag_14\n  jump\t// in\ntag_30:\n    /* \"#utility.yul\":1110:1184   */\n  swap2\n  pop\n    /* \"#utility.yul\":1065:1194   */\n  pop\n    /* \"#utility.yul\":694:1201   */\n  swap3\n  pop\n  swap3\n  swap1\n  pop\n  jump\t// out\n    /* \"#utility.yul\":1207:1387   */\ntag_15:\n    /* \"#utility.yul\":1255:1332   */\n  0x4e487b7100000000000000000000000000000000000000000000000000000000\n    /* \"#utility.yul\":1252:1253   */\n  0x00\n    /* \"#utility.yul\":1245:1333   */\n  mstore\n    /* \"#utility.yul\":1352:1356   */\n  0x11\n    /* \"#utility.yul\":1349:1350   */\n  0x04\n    /* \"#utility.yul\":1342:1357   */\n  mstore\n    /* \"#utility.yul\":1376:1380   */\n  0x24\n    /* \"#utility.yul\":1373:1374   */\n  0x00\n    /* \"#utility.yul\":1366:1381   */\n  revert\n    /* \"#utility.yul\":1393:1584   */\ntag_7:\n    /* \"#utility.yul\":1433:1436   */\n  0x00\n    /* \"#utility.yul\":1452:1472   */\n  tag_33\n    /* \"#utility.yul\":1470:1471   */\n  dup3\n    /* \"#utility.yul\":1452:1472   */\n  tag_12\n  jump\t// in\ntag_33:\n    /* \"#utility.yul\":1447:1472   */\n  swap2\n  pop\n    /* \"#utility.yul\":1486:1506   */\n  tag_34\n    /* \"#utility.yul\":1504:1505   */\n  dup4\n    /* \"#utility.yul\":1486:1506   */\n  tag_12\n  jump\t// in\ntag_34:\n    /* \"#utility.yul\":1481:1506   */\n  swap3\n  pop\n    /* \"#utility.yul\":1529:1530   */\n  dup3\n    /* \"#utility.yul\":1526:1527   */\n  dup3\n    /* \"#utility.yul\":1522:1531   */\n  add\n    /* \"#utility.yul\":1515:1531   */\n  swap1\n  pop\n    /* \"#utility.yul\":1550:1553   */\n  dup1\n    /* \"#utility.yul\":1547:1548   */\n  dup3\n    /* \"#utility.yul\":1544:1554   */\n  gt\n    /* \"#utility.yul\":1541:1577   */\n  iszero\n  tag_35\n  jumpi\n    /* \"#utility.yul\":1557:1575   */\n  tag_36\n  tag_15\n  jump\t// in\ntag_36:\n    /* \"#utility.yul\":1541:1577   */\ntag_35:\n    /* \"#utility.yul\":1393:1584   */\n  swap3\n  swap2\n  pop\n  pop\n  jump\t// out\n    /* \"contracts/crowdfunding.sol\":66:3875  contract Crowdfunding {... */\ntag_8:\n  dataSize(sub_0)\n  dup1\n  dataOffset(sub_0)\n  0x00\n  codecopy\n  0x00\n  return\nstop\n\nsub_0: assembly {\n        /* \"contracts/crowdfunding.sol\":66:3875  contract Crowdfunding {... */\n      mstore(0x40, 0x80)\n      jumpi(tag_1, lt(calldatasize, 0x04))\n      shr(0xe0, calldataload(0x00))\n      dup1\n      0x5114cb52\n      gt\n      tag_17\n      jumpi\n      dup1\n      0xb1b16431\n      gt\n      tag_18\n      jumpi\n      dup1\n      0xb1b16431\n      eq\n      tag_13\n      jumpi\n      dup1\n      0xd4b83992\n      eq\n      tag_14\n      jumpi\n      dup1\n      0xd845a4b3\n      eq\n      tag_15\n      jumpi\n      dup1\n      0xdb638f0b\n      eq\n      tag_16\n      jumpi\n      jump(tag_1)\n    tag_18:\n      dup1\n      0x5114cb52\n      eq\n      tag_9\n      jumpi\n      dup1\n      0x590e1ae3\n      eq\n      tag_10\n      jumpi\n      dup1\n      0x6f9fb98a\n      eq\n      tag_11\n      jumpi\n      dup1\n      0xaaffadf3\n      eq\n      tag_12\n      jumpi\n      jump(tag_1)\n    tag_17:\n      dup1\n      0x29dcb0cf\n      gt\n      tag_19\n      jumpi\n      dup1\n      0x29dcb0cf\n      eq\n      tag_5\n      jumpi\n      dup1\n      0x481c6a75\n      eq\n      tag_6\n      jumpi\n      dup1\n      0x4cb6f4a5\n      eq\n      tag_7\n      jumpi\n      dup1\n      0x4e260f6f\n      eq\n      tag_8\n      jumpi\n      jump(tag_1)\n    tag_19:\n      dup1\n      0x0e29df22\n      eq\n      tag_2\n      jumpi\n      dup1\n      0x1b16bb5c\n      eq\n      tag_3\n      jumpi\n      dup1\n      0x1f6d4942\n      eq\n      tag_4\n      jumpi\n    tag_1:\n      0x00\n      dup1\n      revert\n        /* \"contracts/crowdfunding.sol\":1081:1533  function sendEther() public payable {... */\n    tag_2:\n      tag_20\n      tag_21\n      jump\t// in\n    tag_20:\n      stop\n        /* \"contracts/crowdfunding.sol\":2221:2701  function createRequest(string memory _description, address payable _recipient, uint _value) public onlyManager {... */\n    tag_3:\n      callvalue\n      dup1\n      iszero\n      tag_22\n      jumpi\n      0x00\n      dup1\n      revert\n    tag_22:\n      pop\n      tag_23\n      0x04\n      dup1\n      calldatasize\n      sub\n      dup2\n      add\n      swap1\n      tag_24\n      swap2\n      swap1\n      tag_25\n      jump\t// in\n    tag_24:\n      tag_26\n      jump\t// in\n    tag_23:\n      stop\n        /* \"contracts/crowdfunding.sol\":95:140  mapping (address => uint) public contributors */\n    tag_4:\n      callvalue\n      dup1\n      iszero\n      tag_27\n      jumpi\n      0x00\n      dup1\n      revert\n    tag_27:\n      pop\n      tag_28\n      0x04\n      dup1\n      calldatasize\n      sub\n      dup2\n      add\n      swap1\n      tag_29\n      swap2\n      swap1\n      tag_30\n      jump\t// in\n    tag_29:\n      tag_31\n      jump\t// in\n    tag_28:\n      mload(0x40)\n      tag_32\n      swap2\n      swap1\n      tag_33\n      jump\t// in\n    tag_32:\n      mload(0x40)\n      dup1\n      swap2\n      sub\n      swap1\n      return\n        /* \"contracts/crowdfunding.sol\":210:230  uint public deadline */\n    tag_5:\n      callvalue\n      dup1\n      iszero\n      tag_34\n      jumpi\n      0x00\n      dup1\n      revert\n    tag_34:\n      pop\n      tag_35\n      tag_36\n      jump\t// in\n    tag_35:\n      mload(0x40)\n      tag_37\n      swap2\n      swap1\n      tag_33\n      jump\t// in\n    tag_37:\n      mload(0x40)\n      dup1\n      swap2\n      sub\n      swap1\n      return\n        /* \"contracts/crowdfunding.sol\":147:169  address public manager */\n    tag_6:\n      callvalue\n      dup1\n      iszero\n      tag_38\n      jumpi\n      0x00\n      dup1\n      revert\n    tag_38:\n      pop\n      tag_39\n      tag_40\n      jump\t// in\n    tag_39:\n      mload(0x40)\n      tag_41\n      swap2\n      swap1\n      tag_42\n      jump\t// in\n    tag_41:\n      mload(0x40)\n      dup1\n      swap2\n      sub\n      swap1\n      return\n        /* \"contracts/crowdfunding.sol\":2709:3146  function voteRequest(uint _requestNo) public {... */\n    tag_7:\n      callvalue\n      dup1\n      iszero\n      tag_43\n      jumpi\n      0x00\n      dup1\n      revert\n    tag_43:\n      pop\n      tag_44\n      0x04\n      dup1\n      calldatasize\n      sub\n      dup2\n      add\n      swap1\n      tag_45\n      swap2\n      swap1\n      tag_46\n      jump\t// in\n    tag_45:\n      tag_47\n      jump\t// in\n    tag_44:\n      stop\n        /* \"contracts/crowdfunding.sol\":292:320  uint public noOfContributors */\n    tag_8:\n      callvalue\n      dup1\n      iszero\n      tag_48\n      jumpi\n      0x00\n      dup1\n      revert\n    tag_48:\n      pop\n      tag_49\n      tag_50\n      jump\t// in\n    tag_49:\n      mload(0x40)\n      tag_51\n      swap2\n      swap1\n      tag_33\n      jump\t// in\n    tag_51:\n      mload(0x40)\n      dup1\n      swap2\n      sub\n      swap1\n      return\n        /* \"contracts/crowdfunding.sol\":3154:3872  function makePayment(uint _requestNo) public onlyManager {... */\n    tag_9:\n      callvalue\n      dup1\n      iszero\n      tag_52\n      jumpi\n      0x00\n      dup1\n      revert\n    tag_52:\n      pop\n      tag_53\n      0x04\n      dup1\n      calldatasize\n      sub\n      dup2\n      add\n      swap1\n      tag_54\n      swap2\n      swap1\n      tag_46\n      jump\t// in\n    tag_54:\n      tag_55\n      jump\t// in\n    tag_53:\n      stop\n        /* \"contracts/crowdfunding.sol\":1653:2082  function refund() public {... */\n    tag_10:\n      callvalue\n      dup1\n      iszero\n      tag_56\n      jumpi\n      0x00\n      dup1\n      revert\n    tag_56:\n      pop\n      tag_57\n      tag_58\n      jump\t// in\n    tag_57:\n      stop\n        /* \"contracts/crowdfunding.sol\":1541:1645  function getContractBalance() public view returns (uint) {... */\n    tag_11:\n      callvalue\n      dup1\n      iszero\n      tag_59\n      jumpi\n      0x00\n      dup1\n      revert\n    tag_59:\n      pop\n      tag_60\n      tag_61\n      jump\t// in\n    tag_60:\n      mload(0x40)\n      tag_62\n      swap2\n      swap1\n      tag_33\n      jump\t// in\n    tag_62:\n      mload(0x40)\n      dup1\n      swap2\n      sub\n      swap1\n      return\n        /* \"contracts/crowdfunding.sol\":176:203  uint public minContribution */\n    tag_12:\n      callvalue\n      dup1\n      iszero\n      tag_63\n      jumpi\n      0x00\n      dup1\n      revert\n    tag_63:\n      pop\n      tag_64\n      tag_65\n      jump\t// in\n    tag_64:\n      mload(0x40)\n      tag_66\n      swap2\n      swap1\n      tag_33\n      jump\t// in\n    tag_66:\n      mload(0x40)\n      dup1\n      swap2\n      sub\n      swap1\n      return\n        /* \"contracts/crowdfunding.sol\":587:609  uint public numRequest */\n    tag_13:\n      callvalue\n      dup1\n      iszero\n      tag_67\n      jumpi\n      0x00\n      dup1\n      revert\n    tag_67:\n      pop\n      tag_68\n      tag_69\n      jump\t// in\n    tag_68:\n      mload(0x40)\n      tag_70\n      swap2\n      swap1\n      tag_33\n      jump\t// in\n    tag_70:\n      mload(0x40)\n      dup1\n      swap2\n      sub\n      swap1\n      return\n        /* \"contracts/crowdfunding.sol\":237:255  uint public target */\n    tag_14:\n      callvalue\n      dup1\n      iszero\n      tag_71\n      jumpi\n      0x00\n      dup1\n      revert\n    tag_71:\n      pop\n      tag_72\n      tag_73\n      jump\t// in\n    tag_72:\n      mload(0x40)\n      tag_74\n      swap2\n      swap1\n      tag_33\n      jump\t// in\n    tag_74:\n      mload(0x40)\n      dup1\n      swap2\n      sub\n      swap1\n      return\n        /* \"contracts/crowdfunding.sol\":540:580  mapping (uint => Request) public request */\n    tag_15:\n      callvalue\n      dup1\n      iszero\n      tag_75\n      jumpi\n      0x00\n      dup1\n      revert\n    tag_75:\n      pop\n      tag_76\n      0x04\n      dup1\n      calldatasize\n      sub\n      dup2\n      add\n      swap1\n      tag_77\n      swap2\n      swap1\n      tag_46\n      jump\t// in\n    tag_77:\n      tag_78\n      jump\t// in\n    tag_76:\n      mload(0x40)\n      tag_79\n      swap6\n      swap5\n      swap4\n      swap3\n      swap2\n      swap1\n      tag_80\n      jump\t// in\n    tag_79:\n      mload(0x40)\n      dup1\n      swap2\n      sub\n      swap1\n      return\n        /* \"contracts/crowdfunding.sol\":262:285  uint public raiseAmount */\n    tag_16:\n      callvalue\n      dup1\n      iszero\n      tag_81\n      jumpi\n      0x00\n      dup1\n      revert\n    tag_81:\n      pop\n      tag_82\n      tag_83\n      jump\t// in\n    tag_82:\n      mload(0x40)\n      tag_84\n      swap2\n      swap1\n      tag_33\n      jump\t// in\n    tag_84:\n      mload(0x40)\n      dup1\n      swap2\n      sub\n      swap1\n      return\n        /* \"contracts/crowdfunding.sol\":1081:1533  function sendEther() public payable {... */\n    tag_21:\n        /* \"contracts/crowdfunding.sol\":1154:1162  deadline */\n      sload(0x03)\n        /* \"contracts/crowdfunding.sol\":1136:1151  block.timestamp */\n      timestamp\n        /* \"contracts/crowdfunding.sol\":1136:1162  block.timestamp < deadline */\n      lt\n        /* \"contracts/crowdfunding.sol\":1128:1190  require(block.timestamp < deadline, \"The deadline has passed\") */\n      tag_86\n      jumpi\n      mload(0x40)\n      0x08c379a000000000000000000000000000000000000000000000000000000000\n      dup2\n      mstore\n      0x04\n      add\n      tag_87\n      swap1\n      tag_88\n      jump\t// in\n    tag_87:\n      mload(0x40)\n      dup1\n      swap2\n      sub\n      swap1\n      revert\n    tag_86:\n        /* \"contracts/crowdfunding.sol\":1222:1237  minContribution */\n      sload(0x02)\n        /* \"contracts/crowdfunding.sol\":1209:1218  msg.value */\n      callvalue\n        /* \"contracts/crowdfunding.sol\":1209:1237  msg.value >= minContribution */\n      lt\n      iszero\n        /* \"contracts/crowdfunding.sol\":1201:1281  require(msg.value >= minContribution, \"You need to contribute at least 100 wei\") */\n      tag_89\n      jumpi\n      mload(0x40)\n      0x08c379a000000000000000000000000000000000000000000000000000000000\n      dup2\n      mstore\n      0x04\n      add\n      tag_90\n      swap1\n      tag_91\n      jump\t// in\n    tag_90:\n      mload(0x40)\n      dup1\n      swap2\n      sub\n      swap1\n      revert\n    tag_89:\n        /* \"contracts/crowdfunding.sol\":1326:1327  0 */\n      0x00\n        /* \"contracts/crowdfunding.sol\":1298:1310  contributors */\n      dup1\n        /* \"contracts/crowdfunding.sol\":1298:1322  contributors[msg.sender] */\n      0x00\n        /* \"contracts/crowdfunding.sol\":1311:1321  msg.sender */\n      caller\n        /* \"contracts/crowdfunding.sol\":1298:1322  contributors[msg.sender] */\n      0xffffffffffffffffffffffffffffffffffffffff\n      and\n      0xffffffffffffffffffffffffffffffffffffffff\n      and\n      dup2\n      mstore\n      0x20\n      add\n      swap1\n      dup2\n      mstore\n      0x20\n      add\n      0x00\n      keccak256\n      sload\n        /* \"contracts/crowdfunding.sol\":1298:1327  contributors[msg.sender] == 0 */\n      sub\n        /* \"contracts/crowdfunding.sol\":1294:1374  if (contributors[msg.sender] == 0) {... */\n      tag_92\n      jumpi\n        /* \"contracts/crowdfunding.sol\":1344:1360  noOfContributors */\n      0x06\n      0x00\n        /* \"contracts/crowdfunding.sol\":1344:1362  noOfContributors++ */\n      dup2\n      sload\n      dup1\n      swap3\n      swap2\n      swap1\n      tag_93\n      swap1\n      tag_94\n      jump\t// in\n    tag_93:\n      swap2\n      swap1\n      pop\n      sstore\n      pop\n        /* \"contracts/crowdfunding.sol\":1294:1374  if (contributors[msg.sender] == 0) {... */\n    tag_92:\n        /* \"contracts/crowdfunding.sol\":1412:1421  msg.value */\n      callvalue\n        /* \"contracts/crowdfunding.sol\":1384:1396  contributors */\n      0x00\n        /* \"contracts/crowdfunding.sol\":1384:1408  contributors[msg.sender] */\n      dup1\n        /* \"contracts/crowdfunding.sol\":1397:1407  msg.sender */\n      caller\n        /* \"contracts/crowdfunding.sol\":1384:1408  contributors[msg.sender] */\n      0xffffffffffffffffffffffffffffffffffffffff\n      and\n      0xffffffffffffffffffffffffffffffffffffffff\n      and\n      dup2\n      mstore\n      0x20\n      add\n      swap1\n      dup2\n      mstore\n      0x20\n      add\n      0x00\n      keccak256\n      0x00\n        /* \"contracts/crowdfunding.sol\":1384:1421  contributors[msg.sender] += msg.value */\n      dup3\n      dup3\n      sload\n      tag_95\n      swap2\n      swap1\n      tag_96\n      jump\t// in\n    tag_95:\n      swap3\n      pop\n      pop\n      dup2\n      swap1\n      sstore\n      pop\n        /* \"contracts/crowdfunding.sol\":1447:1456  msg.value */\n      callvalue\n        /* \"contracts/crowdfunding.sol\":1432:1443  raiseAmount */\n      0x05\n      0x00\n        /* \"contracts/crowdfunding.sol\":1432:1456  raiseAmount += msg.value */\n      dup3\n      dup3\n      sload\n      tag_97\n      swap2\n      swap1\n      tag_96\n      jump\t// in\n    tag_97:\n      swap3\n      pop\n      pop\n      dup2\n      swap1\n      sstore\n      pop\n        /* \"contracts/crowdfunding.sol\":1482:1525  ContributionReceived(msg.sender, msg.value) */\n      0x1bb460ccaaf70fbacfec17a376f8acbd278c1405590ffcc8ebe4b88daf4f64ad\n        /* \"contracts/crowdfunding.sol\":1503:1513  msg.sender */\n      caller\n        /* \"contracts/crowdfunding.sol\":1515:1524  msg.value */\n      callvalue\n        /* \"contracts/crowdfunding.sol\":1482:1525  ContributionReceived(msg.sender, msg.value) */\n      mload(0x40)\n      tag_98\n      swap3\n      swap2\n      swap1\n      tag_99\n      jump\t// in\n    tag_98:\n      mload(0x40)\n      dup1\n      swap2\n      sub\n      swap1\n      log1\n        /* \"contracts/crowdfunding.sol\":1081:1533  function sendEther() public payable {... */\n      jump\t// out\n        /* \"contracts/crowdfunding.sol\":2221:2701  function createRequest(string memory _description, address payable _recipient, uint _value) public onlyManager {... */\n    tag_26:\n        /* \"contracts/crowdfunding.sol\":2146:2153  manager */\n      0x01\n      0x00\n      swap1\n      sload\n      swap1\n      0x0100\n      exp\n      swap1\n      div\n      0xffffffffffffffffffffffffffffffffffffffff\n      and\n        /* \"contracts/crowdfunding.sol\":2132:2153  msg.sender == manager */\n      0xffffffffffffffffffffffffffffffffffffffff\n      and\n        /* \"contracts/crowdfunding.sol\":2132:2142  msg.sender */\n      caller\n        /* \"contracts/crowdfunding.sol\":2132:2153  msg.sender == manager */\n      0xffffffffffffffffffffffffffffffffffffffff\n      and\n      eq\n        /* \"contracts/crowdfunding.sol\":2124:2193  require(msg.sender == manager, \"Only manager can call this function\") */\n      tag_101\n      jumpi\n      mload(0x40)\n      0x08c379a000000000000000000000000000000000000000000000000000000000\n      dup2\n      mstore\n      0x04\n      add\n      tag_102\n      swap1\n      tag_103\n      jump\t// in\n    tag_102:\n      mload(0x40)\n      dup1\n      swap2\n      sub\n      swap1\n      revert\n    tag_101:\n        /* \"contracts/crowdfunding.sol\":2343:2369  Request storage newRequest */\n      0x00\n        /* \"contracts/crowdfunding.sol\":2372:2379  request */\n      0x07\n        /* \"contracts/crowdfunding.sol\":2372:2391  request[numRequest] */\n      0x00\n        /* \"contracts/crowdfunding.sol\":2380:2390  numRequest */\n      sload(0x08)\n        /* \"contracts/crowdfunding.sol\":2372:2391  request[numRequest] */\n      dup2\n      mstore\n      0x20\n      add\n      swap1\n      dup2\n      mstore\n      0x20\n      add\n      0x00\n      keccak256\n        /* \"contracts/crowdfunding.sol\":2343:2391  Request storage newRequest = request[numRequest] */\n      swap1\n      pop\n        /* \"contracts/crowdfunding.sol\":2402:2412  numRequest */\n      0x08\n      0x00\n        /* \"contracts/crowdfunding.sol\":2402:2414  numRequest++ */\n      dup2\n      sload\n      dup1\n      swap3\n      swap2\n      swap1\n      tag_105\n      swap1\n      tag_94\n      jump\t// in\n    tag_105:\n      swap2\n      swap1\n      pop\n      sstore\n      pop\n        /* \"contracts/crowdfunding.sol\":2450:2462  _description */\n      dup4\n        /* \"contracts/crowdfunding.sol\":2425:2435  newRequest */\n      dup2\n        /* \"contracts/crowdfunding.sol\":2425:2447  newRequest.description */\n      0x00\n      add\n        /* \"contracts/crowdfunding.sol\":2425:2462  newRequest.description = _description */\n      swap1\n      dup2\n      tag_106\n      swap2\n      swap1\n      tag_107\n      jump\t// in\n    tag_106:\n      pop\n        /* \"contracts/crowdfunding.sol\":2496:2506  _recipient */\n      dup3\n        /* \"contracts/crowdfunding.sol\":2473:2483  newRequest */\n      dup2\n        /* \"contracts/crowdfunding.sol\":2473:2493  newRequest.recipient */\n      0x01\n      add\n      0x00\n        /* \"contracts/crowdfunding.sol\":2473:2506  newRequest.recipient = _recipient */\n      0x0100\n      exp\n      dup2\n      sload\n      dup2\n      0xffffffffffffffffffffffffffffffffffffffff\n      mul\n      not\n      and\n      swap1\n      dup4\n      0xffffffffffffffffffffffffffffffffffffffff\n      and\n      mul\n      or\n      swap1\n      sstore\n      pop\n        /* \"contracts/crowdfunding.sol\":2536:2542  _value */\n      dup2\n        /* \"contracts/crowdfunding.sol\":2517:2527  newRequest */\n      dup2\n        /* \"contracts/crowdfunding.sol\":2517:2533  newRequest.value */\n      0x02\n      add\n        /* \"contracts/crowdfunding.sol\":2517:2542  newRequest.value = _value */\n      dup2\n      swap1\n      sstore\n      pop\n        /* \"contracts/crowdfunding.sol\":2578:2583  false */\n      0x00\n        /* \"contracts/crowdfunding.sol\":2553:2563  newRequest */\n      dup2\n        /* \"contracts/crowdfunding.sol\":2553:2575  newRequest.isCompleted */\n      0x03\n      add\n      0x00\n        /* \"contracts/crowdfunding.sol\":2553:2583  newRequest.isCompleted = false */\n      0x0100\n      exp\n      dup2\n      sload\n      dup2\n      0xff\n      mul\n      not\n      and\n      swap1\n      dup4\n      iszero\n      iszero\n      mul\n      or\n      swap1\n      sstore\n      pop\n        /* \"contracts/crowdfunding.sol\":2618:2619  0 */\n      0x00\n        /* \"contracts/crowdfunding.sol\":2594:2604  newRequest */\n      dup2\n        /* \"contracts/crowdfunding.sol\":2594:2615  newRequest.noOfVoters */\n      0x04\n      add\n        /* \"contracts/crowdfunding.sol\":2594:2619  newRequest.noOfVoters = 0 */\n      dup2\n      swap1\n      sstore\n      pop\n        /* \"contracts/crowdfunding.sol\":2645:2693  RequestCreated(_description, _recipient, _value) */\n      0xad2c96baa31df20747319cb87b6904313b0a92712511569294982ff50e198997\n        /* \"contracts/crowdfunding.sol\":2660:2672  _description */\n      dup5\n        /* \"contracts/crowdfunding.sol\":2674:2684  _recipient */\n      dup5\n        /* \"contracts/crowdfunding.sol\":2686:2692  _value */\n      dup5\n        /* \"contracts/crowdfunding.sol\":2645:2693  RequestCreated(_description, _recipient, _value) */\n      mload(0x40)\n      tag_108\n      swap4\n      swap3\n      swap2\n      swap1\n      tag_109\n      jump\t// in\n    tag_108:\n      mload(0x40)\n      dup1\n      swap2\n      sub\n      swap1\n      log1\n        /* \"contracts/crowdfunding.sol\":2332:2701  {... */\n      pop\n        /* \"contracts/crowdfunding.sol\":2221:2701  function createRequest(string memory _description, address payable _recipient, uint _value) public onlyManager {... */\n      pop\n      pop\n      pop\n      jump\t// out\n        /* \"contracts/crowdfunding.sol\":95:140  mapping (address => uint) public contributors */\n    tag_31:\n      mstore(0x20, 0x00)\n      dup1\n      0x00\n      mstore\n      keccak256(0x00, 0x40)\n      0x00\n      swap2\n      pop\n      swap1\n      pop\n      sload\n      dup2\n      jump\t// out\n        /* \"contracts/crowdfunding.sol\":210:230  uint public deadline */\n    tag_36:\n      sload(0x03)\n      dup2\n      jump\t// out\n        /* \"contracts/crowdfunding.sol\":147:169  address public manager */\n    tag_40:\n      0x01\n      0x00\n      swap1\n      sload\n      swap1\n      0x0100\n      exp\n      swap1\n      div\n      0xffffffffffffffffffffffffffffffffffffffff\n      and\n      dup2\n      jump\t// out\n        /* \"contracts/crowdfunding.sol\":2709:3146  function voteRequest(uint _requestNo) public {... */\n    tag_47:\n        /* \"contracts/crowdfunding.sol\":2786:2796  numRequest */\n      sload(0x08)\n        /* \"contracts/crowdfunding.sol\":2773:2783  _requestNo */\n      dup2\n        /* \"contracts/crowdfunding.sol\":2773:2796  _requestNo < numRequest */\n      lt\n        /* \"contracts/crowdfunding.sol\":2765:2823  require(_requestNo < numRequest, \"Request does not exist\") */\n      tag_111\n      jumpi\n      mload(0x40)\n      0x08c379a000000000000000000000000000000000000000000000000000000000\n      dup2\n      mstore\n      0x04\n      add\n      tag_112\n      swap1\n      tag_113\n      jump\t// in\n    tag_112:\n      mload(0x40)\n      dup1\n      swap2\n      sub\n      swap1\n      revert\n    tag_111:\n        /* \"contracts/crowdfunding.sol\":2869:2870  0 */\n      0x00\n        /* \"contracts/crowdfunding.sol\":2842:2854  contributors */\n      dup1\n        /* \"contracts/crowdfunding.sol\":2842:2866  contributors[msg.sender] */\n      0x00\n        /* \"contracts/crowdfunding.sol\":2855:2865  msg.sender */\n      caller\n        /* \"contracts/crowdfunding.sol\":2842:2866  contributors[msg.sender] */\n      0xffffffffffffffffffffffffffffffffffffffff\n      and\n      0xffffffffffffffffffffffffffffffffffffffff\n      and\n      dup2\n      mstore\n      0x20\n      add\n      swap1\n      dup2\n      mstore\n      0x20\n      add\n      0x00\n      keccak256\n      sload\n        /* \"contracts/crowdfunding.sol\":2842:2870  contributors[msg.sender] > 0 */\n      gt\n        /* \"contracts/crowdfunding.sol\":2834:2900  require(contributors[msg.sender] > 0, \"You are not a contributor\") */\n      tag_114\n      jumpi\n      mload(0x40)\n      0x08c379a000000000000000000000000000000000000000000000000000000000\n      dup2\n      mstore\n      0x04\n      add\n      tag_115\n      swap1\n      tag_116\n      jump\t// in\n    tag_115:\n      mload(0x40)\n      dup1\n      swap2\n      sub\n      swap1\n      revert\n    tag_114:\n        /* \"contracts/crowdfunding.sol\":2911:2938  Request storage thisRequest */\n      0x00\n        /* \"contracts/crowdfunding.sol\":2941:2948  request */\n      0x07\n        /* \"contracts/crowdfunding.sol\":2941:2960  request[_requestNo] */\n      0x00\n        /* \"contracts/crowdfunding.sol\":2949:2959  _requestNo */\n      dup4\n        /* \"contracts/crowdfunding.sol\":2941:2960  request[_requestNo] */\n      dup2\n      mstore\n      0x20\n      add\n      swap1\n      dup2\n      mstore\n      0x20\n      add\n      0x00\n      keccak256\n        /* \"contracts/crowdfunding.sol\":2911:2960  Request storage thisRequest = request[_requestNo] */\n      swap1\n      pop\n        /* \"contracts/crowdfunding.sol\":3013:3018  false */\n      0x00\n        /* \"contracts/crowdfunding.sol\":2979:3018  thisRequest.voters[msg.sender] == false */\n      iszero\n      iszero\n        /* \"contracts/crowdfunding.sol\":2979:2990  thisRequest */\n      dup2\n        /* \"contracts/crowdfunding.sol\":2979:2997  thisRequest.voters */\n      0x05\n      add\n        /* \"contracts/crowdfunding.sol\":2979:3009  thisRequest.voters[msg.sender] */\n      0x00\n        /* \"contracts/crowdfunding.sol\":2998:3008  msg.sender */\n      caller\n        /* \"contracts/crowdfunding.sol\":2979:3009  thisRequest.voters[msg.sender] */\n      0xffffffffffffffffffffffffffffffffffffffff\n      and\n      0xffffffffffffffffffffffffffffffffffffffff\n      and\n      dup2\n      mstore\n      0x20\n      add\n      swap1\n      dup2\n      mstore\n      0x20\n      add\n      0x00\n      keccak256\n      0x00\n      swap1\n      sload\n      swap1\n      0x0100\n      exp\n      swap1\n      div\n      0xff\n      and\n        /* \"contracts/crowdfunding.sol\":2979:3018  thisRequest.voters[msg.sender] == false */\n      iszero\n      iszero\n      eq\n        /* \"contracts/crowdfunding.sol\":2971:3045  require(thisRequest.voters[msg.sender] == false, \"You have already voted\") */\n      tag_117\n      jumpi\n      mload(0x40)\n      0x08c379a000000000000000000000000000000000000000000000000000000000\n      dup2\n      mstore\n      0x04\n      add\n      tag_118\n      swap1\n      tag_119\n      jump\t// in\n    tag_118:\n      mload(0x40)\n      dup1\n      swap2\n      sub\n      swap1\n      revert\n    tag_117:\n        /* \"contracts/crowdfunding.sol\":3099:3103  true */\n      0x01\n        /* \"contracts/crowdfunding.sol\":3066:3077  thisRequest */\n      dup2\n        /* \"contracts/crowdfunding.sol\":3066:3084  thisRequest.voters */\n      0x05\n      add\n        /* \"contracts/crowdfunding.sol\":3066:3096  thisRequest.voters[msg.sender] */\n      0x00\n        /* \"contracts/crowdfunding.sol\":3085:3095  msg.sender */\n      caller\n        /* \"contracts/crowdfunding.sol\":3066:3096  thisRequest.voters[msg.sender] */\n      0xffffffffffffffffffffffffffffffffffffffff\n      and\n      0xffffffffffffffffffffffffffffffffffffffff\n      and\n      dup2\n      mstore\n      0x20\n      add\n      swap1\n      dup2\n      mstore\n      0x20\n      add\n      0x00\n      keccak256\n      0x00\n        /* \"contracts/crowdfunding.sol\":3066:3103  thisRequest.voters[msg.sender] = true */\n      0x0100\n      exp\n      dup2\n      sload\n      dup2\n      0xff\n      mul\n      not\n      and\n      swap1\n      dup4\n      iszero\n      iszero\n      mul\n      or\n      swap1\n      sstore\n      pop\n        /* \"contracts/crowdfunding.sol\":3114:3125  thisRequest */\n      dup1\n        /* \"contracts/crowdfunding.sol\":3114:3136  thisRequest.noOfVoters */\n      0x04\n      add\n      0x00\n        /* \"contracts/crowdfunding.sol\":3114:3138  thisRequest.noOfVoters++ */\n      dup2\n      sload\n      dup1\n      swap3\n      swap2\n      swap1\n      tag_120\n      swap1\n      tag_94\n      jump\t// in\n    tag_120:\n      swap2\n      swap1\n      pop\n      sstore\n      pop\n        /* \"contracts/crowdfunding.sol\":2754:3146  {... */\n      pop\n        /* \"contracts/crowdfunding.sol\":2709:3146  function voteRequest(uint _requestNo) public {... */\n      pop\n      jump\t// out\n        /* \"contracts/crowdfunding.sol\":292:320  uint public noOfContributors */\n    tag_50:\n      sload(0x06)\n      dup2\n      jump\t// out\n        /* \"contracts/crowdfunding.sol\":3154:3872  function makePayment(uint _requestNo) public onlyManager {... */\n    tag_55:\n        /* \"contracts/crowdfunding.sol\":2146:2153  manager */\n      0x01\n      0x00\n      swap1\n      sload\n      swap1\n      0x0100\n      exp\n      swap1\n      div\n      0xffffffffffffffffffffffffffffffffffffffff\n      and\n        /* \"contracts/crowdfunding.sol\":2132:2153  msg.sender == manager */\n      0xffffffffffffffffffffffffffffffffffffffff\n      and\n        /* \"contracts/crowdfunding.sol\":2132:2142  msg.sender */\n      caller\n        /* \"contracts/crowdfunding.sol\":2132:2153  msg.sender == manager */\n      0xffffffffffffffffffffffffffffffffffffffff\n      and\n      eq\n        /* \"contracts/crowdfunding.sol\":2124:2193  require(msg.sender == manager, \"Only manager can call this function\") */\n      tag_122\n      jumpi\n      mload(0x40)\n      0x08c379a000000000000000000000000000000000000000000000000000000000\n      dup2\n      mstore\n      0x04\n      add\n      tag_123\n      swap1\n      tag_103\n      jump\t// in\n    tag_123:\n      mload(0x40)\n      dup1\n      swap2\n      sub\n      swap1\n      revert\n    tag_122:\n        /* \"contracts/crowdfunding.sol\":3243:3253  numRequest */\n      sload(0x08)\n        /* \"contracts/crowdfunding.sol\":3230:3240  _requestNo */\n      dup2\n        /* \"contracts/crowdfunding.sol\":3230:3253  _requestNo < numRequest */\n      lt\n        /* \"contracts/crowdfunding.sol\":3222:3280  require(_requestNo < numRequest, \"Request does not exist\") */\n      tag_125\n      jumpi\n      mload(0x40)\n      0x08c379a000000000000000000000000000000000000000000000000000000000\n      dup2\n      mstore\n      0x04\n      add\n      tag_126\n      swap1\n      tag_113\n      jump\t// in\n    tag_126:\n      mload(0x40)\n      dup1\n      swap2\n      sub\n      swap1\n      revert\n    tag_125:\n        /* \"contracts/crowdfunding.sol\":3314:3320  target */\n      sload(0x04)\n        /* \"contracts/crowdfunding.sol\":3299:3310  raiseAmount */\n      sload(0x05)\n        /* \"contracts/crowdfunding.sol\":3299:3320  raiseAmount >= target */\n      lt\n      iszero\n        /* \"contracts/crowdfunding.sol\":3291:3339  require(raiseAmount >= target, \"Target not met\") */\n      tag_127\n      jumpi\n      mload(0x40)\n      0x08c379a000000000000000000000000000000000000000000000000000000000\n      dup2\n      mstore\n      0x04\n      add\n      tag_128\n      swap1\n      tag_129\n      jump\t// in\n    tag_128:\n      mload(0x40)\n      dup1\n      swap2\n      sub\n      swap1\n      revert\n    tag_127:\n        /* \"contracts/crowdfunding.sol\":3350:3377  Request storage thisRequest */\n      0x00\n        /* \"contracts/crowdfunding.sol\":3380:3387  request */\n      0x07\n        /* \"contracts/crowdfunding.sol\":3380:3399  request[_requestNo] */\n      0x00\n        /* \"contracts/crowdfunding.sol\":3388:3398  _requestNo */\n      dup4\n        /* \"contracts/crowdfunding.sol\":3380:3399  request[_requestNo] */\n      dup2\n      mstore\n      0x20\n      add\n      swap1\n      dup2\n      mstore\n      0x20\n      add\n      0x00\n      keccak256\n        /* \"contracts/crowdfunding.sol\":3350:3399  Request storage thisRequest = request[_requestNo] */\n      swap1\n      pop\n        /* \"contracts/crowdfunding.sol\":3445:3450  false */\n      0x00\n        /* \"contracts/crowdfunding.sol\":3418:3450  thisRequest.isCompleted == false */\n      iszero\n      iszero\n        /* \"contracts/crowdfunding.sol\":3418:3429  thisRequest */\n      dup2\n        /* \"contracts/crowdfunding.sol\":3418:3441  thisRequest.isCompleted */\n      0x03\n      add\n      0x00\n      swap1\n      sload\n      swap1\n      0x0100\n      exp\n      swap1\n      div\n      0xff\n      and\n        /* \"contracts/crowdfunding.sol\":3418:3450  thisRequest.isCompleted == false */\n      iszero\n      iszero\n      eq\n        /* \"contracts/crowdfunding.sol\":3410:3485  require(thisRequest.isCompleted == false, \"Already distributed the amount\") */\n      tag_130\n      jumpi\n      mload(0x40)\n      0x08c379a000000000000000000000000000000000000000000000000000000000\n      dup2\n      mstore\n      0x04\n      add\n      tag_131\n      swap1\n      tag_132\n      jump\t// in\n    tag_131:\n      mload(0x40)\n      dup1\n      swap2\n      sub\n      swap1\n      revert\n    tag_130:\n        /* \"contracts/crowdfunding.sol\":3548:3549  2 */\n      0x02\n        /* \"contracts/crowdfunding.sol\":3529:3545  noOfContributors */\n      sload(0x06)\n        /* \"contracts/crowdfunding.sol\":3529:3549  noOfContributors / 2 */\n      tag_133\n      swap2\n      swap1\n      tag_134\n      jump\t// in\n    tag_133:\n        /* \"contracts/crowdfunding.sol\":3504:3515  thisRequest */\n      dup2\n        /* \"contracts/crowdfunding.sol\":3504:3526  thisRequest.noOfVoters */\n      0x04\n      add\n      sload\n        /* \"contracts/crowdfunding.sol\":3504:3549  thisRequest.noOfVoters > noOfContributors / 2 */\n      gt\n        /* \"contracts/crowdfunding.sol\":3496:3578  require(thisRequest.noOfVoters > noOfContributors / 2, \"Majority support not met\") */\n      tag_135\n      jumpi\n      mload(0x40)\n      0x08c379a000000000000000000000000000000000000000000000000000000000\n      dup2\n      mstore\n      0x04\n      add\n      tag_136\n      swap1\n      tag_137\n      jump\t// in\n    tag_136:\n      mload(0x40)\n      dup1\n      swap2\n      sub\n      swap1\n      revert\n    tag_135:\n        /* \"contracts/crowdfunding.sol\":3618:3639  address(this).balance */\n      selfbalance\n        /* \"contracts/crowdfunding.sol\":3597:3608  thisRequest */\n      dup2\n        /* \"contracts/crowdfunding.sol\":3597:3614  thisRequest.value */\n      0x02\n      add\n      sload\n        /* \"contracts/crowdfunding.sol\":3597:3639  thisRequest.value <= address(this).balance */\n      gt\n      iszero\n        /* \"contracts/crowdfunding.sol\":3589:3674  require(thisRequest.value <= address(this).balance, \"Not enough balance in contract\") */\n      tag_138\n      jumpi\n      mload(0x40)\n      0x08c379a000000000000000000000000000000000000000000000000000000000\n      dup2\n      mstore\n      0x04\n      add\n      tag_139\n      swap1\n      tag_140\n      jump\t// in\n    tag_139:\n      mload(0x40)\n      dup1\n      swap2\n      sub\n      swap1\n      revert\n    tag_138:\n        /* \"contracts/crowdfunding.sol\":3695:3706  thisRequest */\n      dup1\n        /* \"contracts/crowdfunding.sol\":3695:3716  thisRequest.recipient */\n      0x01\n      add\n      0x00\n      swap1\n      sload\n      swap1\n      0x0100\n      exp\n      swap1\n      div\n      0xffffffffffffffffffffffffffffffffffffffff\n      and\n        /* \"contracts/crowdfunding.sol\":3695:3725  thisRequest.recipient.transfer */\n      0xffffffffffffffffffffffffffffffffffffffff\n      and\n        /* \"contracts/crowdfunding.sol\":3695:3744  thisRequest.recipient.transfer(thisRequest.value) */\n      0x08fc\n        /* \"contracts/crowdfunding.sol\":3726:3737  thisRequest */\n      dup3\n        /* \"contracts/crowdfunding.sol\":3726:3743  thisRequest.value */\n      0x02\n      add\n      sload\n        /* \"contracts/crowdfunding.sol\":3695:3744  thisRequest.recipient.transfer(thisRequest.value) */\n      swap1\n      dup2\n      iszero\n      mul\n      swap1\n      mload(0x40)\n      0x00\n      mload(0x40)\n      dup1\n      dup4\n      sub\n      dup2\n      dup6\n      dup9\n      dup9\n      call\n      swap4\n      pop\n      pop\n      pop\n      pop\n      iszero\n      dup1\n      iszero\n      tag_142\n      jumpi\n      returndatasize\n      0x00\n      dup1\n      returndatacopy\n      revert(0x00, returndatasize)\n    tag_142:\n      pop\n        /* \"contracts/crowdfunding.sol\":3781:3785  true */\n      0x01\n        /* \"contracts/crowdfunding.sol\":3755:3766  thisRequest */\n      dup2\n        /* \"contracts/crowdfunding.sol\":3755:3778  thisRequest.isCompleted */\n      0x03\n      add\n      0x00\n        /* \"contracts/crowdfunding.sol\":3755:3785  thisRequest.isCompleted = true */\n      0x0100\n      exp\n      dup2\n      sload\n      dup2\n      0xff\n      mul\n      not\n      and\n      swap1\n      dup4\n      iszero\n      iszero\n      mul\n      or\n      swap1\n      sstore\n      pop\n        /* \"contracts/crowdfunding.sol\":3811:3864  PaymentMade(thisRequest.recipient, thisRequest.value) */\n      0x3a2d0e41c506b136330c6e5e0295ccbf0966daece99bfe7c89020cc01dbfb8d6\n        /* \"contracts/crowdfunding.sol\":3823:3834  thisRequest */\n      dup2\n        /* \"contracts/crowdfunding.sol\":3823:3844  thisRequest.recipient */\n      0x01\n      add\n      0x00\n      swap1\n      sload\n      swap1\n      0x0100\n      exp\n      swap1\n      div\n      0xffffffffffffffffffffffffffffffffffffffff\n      and\n        /* \"contracts/crowdfunding.sol\":3846:3857  thisRequest */\n      dup3\n        /* \"contracts/crowdfunding.sol\":3846:3863  thisRequest.value */\n      0x02\n      add\n      sload\n        /* \"contracts/crowdfunding.sol\":3811:3864  PaymentMade(thisRequest.recipient, thisRequest.value) */\n      mload(0x40)\n      tag_143\n      swap3\n      swap2\n      swap1\n      tag_144\n      jump\t// in\n    tag_143:\n      mload(0x40)\n      dup1\n      swap2\n      sub\n      swap1\n      log1\n        /* \"contracts/crowdfunding.sol\":3211:3872  {... */\n      pop\n        /* \"contracts/crowdfunding.sol\":3154:3872  function makePayment(uint _requestNo) public onlyManager {... */\n      pop\n      jump\t// out\n        /* \"contracts/crowdfunding.sol\":1653:2082  function refund() public {... */\n    tag_58:\n        /* \"contracts/crowdfunding.sol\":1715:1723  deadline */\n      sload(0x03)\n        /* \"contracts/crowdfunding.sol\":1697:1712  block.timestamp */\n      timestamp\n        /* \"contracts/crowdfunding.sol\":1697:1723  block.timestamp > deadline */\n      gt\n        /* \"contracts/crowdfunding.sol\":1697:1747  block.timestamp > deadline && raiseAmount < target */\n      dup1\n      iszero\n      tag_146\n      jumpi\n      pop\n        /* \"contracts/crowdfunding.sol\":1741:1747  target */\n      sload(0x04)\n        /* \"contracts/crowdfunding.sol\":1727:1738  raiseAmount */\n      sload(0x05)\n        /* \"contracts/crowdfunding.sol\":1727:1747  raiseAmount < target */\n      lt\n        /* \"contracts/crowdfunding.sol\":1697:1747  block.timestamp > deadline && raiseAmount < target */\n    tag_146:\n        /* \"contracts/crowdfunding.sol\":1689:1777  require(block.timestamp > deadline && raiseAmount < target, \"Refund conditions not met\") */\n      tag_147\n      jumpi\n      mload(0x40)\n      0x08c379a000000000000000000000000000000000000000000000000000000000\n      dup2\n      mstore\n      0x04\n      add\n      tag_148\n      swap1\n      tag_149\n      jump\t// in\n    tag_148:\n      mload(0x40)\n      dup1\n      swap2\n      sub\n      swap1\n      revert\n    tag_147:\n        /* \"contracts/crowdfunding.sol\":1823:1824  0 */\n      0x00\n        /* \"contracts/crowdfunding.sol\":1796:1808  contributors */\n      dup1\n        /* \"contracts/crowdfunding.sol\":1796:1820  contributors[msg.sender] */\n      0x00\n        /* \"contracts/crowdfunding.sol\":1809:1819  msg.sender */\n      caller\n        /* \"contracts/crowdfunding.sol\":1796:1820  contributors[msg.sender] */\n      0xffffffffffffffffffffffffffffffffffffffff\n      and\n      0xffffffffffffffffffffffffffffffffffffffff\n      and\n      dup2\n      mstore\n      0x20\n      add\n      swap1\n      dup2\n      mstore\n      0x20\n      add\n      0x00\n      keccak256\n      sload\n        /* \"contracts/crowdfunding.sol\":1796:1824  contributors[msg.sender] > 0 */\n      gt\n        /* \"contracts/crowdfunding.sol\":1788:1853  require(contributors[msg.sender] > 0, \"You have not contributed\") */\n      tag_150\n      jumpi\n      mload(0x40)\n      0x08c379a000000000000000000000000000000000000000000000000000000000\n      dup2\n      mstore\n      0x04\n      add\n      tag_151\n      swap1\n      tag_152\n      jump\t// in\n    tag_151:\n      mload(0x40)\n      dup1\n      swap2\n      sub\n      swap1\n      revert\n    tag_150:\n        /* \"contracts/crowdfunding.sol\":1874:1891  uint refundAmount */\n      0x00\n        /* \"contracts/crowdfunding.sol\":1894:1906  contributors */\n      dup1\n        /* \"contracts/crowdfunding.sol\":1894:1918  contributors[msg.sender] */\n      0x00\n        /* \"contracts/crowdfunding.sol\":1907:1917  msg.sender */\n      caller\n        /* \"contracts/crowdfunding.sol\":1894:1918  contributors[msg.sender] */\n      0xffffffffffffffffffffffffffffffffffffffff\n      and\n      0xffffffffffffffffffffffffffffffffffffffff\n      and\n      dup2\n      mstore\n      0x20\n      add\n      swap1\n      dup2\n      mstore\n      0x20\n      add\n      0x00\n      keccak256\n      sload\n        /* \"contracts/crowdfunding.sol\":1874:1918  uint refundAmount = contributors[msg.sender] */\n      swap1\n      pop\n        /* \"contracts/crowdfunding.sol\":1956:1957  0 */\n      0x00\n        /* \"contracts/crowdfunding.sol\":1929:1941  contributors */\n      dup1\n        /* \"contracts/crowdfunding.sol\":1929:1953  contributors[msg.sender] */\n      0x00\n        /* \"contracts/crowdfunding.sol\":1942:1952  msg.sender */\n      caller\n        /* \"contracts/crowdfunding.sol\":1929:1953  contributors[msg.sender] */\n      0xffffffffffffffffffffffffffffffffffffffff\n      and\n      0xffffffffffffffffffffffffffffffffffffffff\n      and\n      dup2\n      mstore\n      0x20\n      add\n      swap1\n      dup2\n      mstore\n      0x20\n      add\n      0x00\n      keccak256\n        /* \"contracts/crowdfunding.sol\":1929:1957  contributors[msg.sender] = 0 */\n      dup2\n      swap1\n      sstore\n      pop\n        /* \"contracts/crowdfunding.sol\":1976:1986  msg.sender */\n      caller\n        /* \"contracts/crowdfunding.sol\":1968:1996  payable(msg.sender).transfer */\n      0xffffffffffffffffffffffffffffffffffffffff\n      and\n        /* \"contracts/crowdfunding.sol\":1968:2010  payable(msg.sender).transfer(refundAmount) */\n      0x08fc\n        /* \"contracts/crowdfunding.sol\":1997:2009  refundAmount */\n      dup3\n        /* \"contracts/crowdfunding.sol\":1968:2010  payable(msg.sender).transfer(refundAmount) */\n      swap1\n      dup2\n      iszero\n      mul\n      swap1\n      mload(0x40)\n      0x00\n      mload(0x40)\n      dup1\n      dup4\n      sub\n      dup2\n      dup6\n      dup9\n      dup9\n      call\n      swap4\n      pop\n      pop\n      pop\n      pop\n      iszero\n      dup1\n      iszero\n      tag_154\n      jumpi\n      returndatasize\n      0x00\n      dup1\n      returndatacopy\n      revert(0x00, returndatasize)\n    tag_154:\n      pop\n        /* \"contracts/crowdfunding.sol\":2036:2074  RefundIssued(msg.sender, refundAmount) */\n      0xa171b6942063c6f2800ce40a780edce37baa2b618571b11eedd1e69e626e7d76\n        /* \"contracts/crowdfunding.sol\":2049:2059  msg.sender */\n      caller\n        /* \"contracts/crowdfunding.sol\":2061:2073  refundAmount */\n      dup3\n        /* \"contracts/crowdfunding.sol\":2036:2074  RefundIssued(msg.sender, refundAmount) */\n      mload(0x40)\n      tag_155\n      swap3\n      swap2\n      swap1\n      tag_99\n      jump\t// in\n    tag_155:\n      mload(0x40)\n      dup1\n      swap2\n      sub\n      swap1\n      log1\n        /* \"contracts/crowdfunding.sol\":1678:2082  {... */\n      pop\n        /* \"contracts/crowdfunding.sol\":1653:2082  function refund() public {... */\n      jump\t// out\n        /* \"contracts/crowdfunding.sol\":1541:1645  function getContractBalance() public view returns (uint) {... */\n    tag_61:\n        /* \"contracts/crowdfunding.sol\":1592:1596  uint */\n      0x00\n        /* \"contracts/crowdfunding.sol\":1616:1637  address(this).balance */\n      selfbalance\n        /* \"contracts/crowdfunding.sol\":1609:1637  return address(this).balance */\n      swap1\n      pop\n        /* \"contracts/crowdfunding.sol\":1541:1645  function getContractBalance() public view returns (uint) {... */\n      swap1\n      jump\t// out\n        /* \"contracts/crowdfunding.sol\":176:203  uint public minContribution */\n    tag_65:\n      sload(0x02)\n      dup2\n      jump\t// out\n        /* \"contracts/crowdfunding.sol\":587:609  uint public numRequest */\n    tag_69:\n      sload(0x08)\n      dup2\n      jump\t// out\n        /* \"contracts/crowdfunding.sol\":237:255  uint public target */\n    tag_73:\n      sload(0x04)\n      dup2\n      jump\t// out\n        /* \"contracts/crowdfunding.sol\":540:580  mapping (uint => Request) public request */\n    tag_78:\n      mstore(0x20, 0x07)\n      dup1\n      0x00\n      mstore\n      keccak256(0x00, 0x40)\n      0x00\n      swap2\n      pop\n      swap1\n      pop\n      dup1\n      0x00\n      add\n      dup1\n      sload\n      tag_157\n      swap1\n      tag_158\n      jump\t// in\n    tag_157:\n      dup1\n      0x1f\n      add\n      0x20\n      dup1\n      swap2\n      div\n      mul\n      0x20\n      add\n      mload(0x40)\n      swap1\n      dup2\n      add\n      0x40\n      mstore\n      dup1\n      swap3\n      swap2\n      swap1\n      dup2\n      dup2\n      mstore\n      0x20\n      add\n      dup3\n      dup1\n      sload\n      tag_159\n      swap1\n      tag_158\n      jump\t// in\n    tag_159:\n      dup1\n      iszero\n      tag_160\n      jumpi\n      dup1\n      0x1f\n      lt\n      tag_161\n      jumpi\n      0x0100\n      dup1\n      dup4\n      sload\n      div\n      mul\n      dup4\n      mstore\n      swap2\n      0x20\n      add\n      swap2\n      jump(tag_160)\n    tag_161:\n      dup3\n      add\n      swap2\n      swap1\n      0x00\n      mstore\n      keccak256(0x00, 0x20)\n      swap1\n    tag_162:\n      dup2\n      sload\n      dup2\n      mstore\n      swap1\n      0x01\n      add\n      swap1\n      0x20\n      add\n      dup1\n      dup4\n      gt\n      tag_162\n      jumpi\n      dup3\n      swap1\n      sub\n      0x1f\n      and\n      dup3\n      add\n      swap2\n    tag_160:\n      pop\n      pop\n      pop\n      pop\n      pop\n      swap1\n      dup1\n      0x01\n      add\n      0x00\n      swap1\n      sload\n      swap1\n      0x0100\n      exp\n      swap1\n      div\n      0xffffffffffffffffffffffffffffffffffffffff\n      and\n      swap1\n      dup1\n      0x02\n      add\n      sload\n      swap1\n      dup1\n      0x03\n      add\n      0x00\n      swap1\n      sload\n      swap1\n      0x0100\n      exp\n      swap1\n      div\n      0xff\n      and\n      swap1\n      dup1\n      0x04\n      add\n      sload\n      swap1\n      pop\n      dup6\n      jump\t// out\n        /* \"contracts/crowdfunding.sol\":262:285  uint public raiseAmount */\n    tag_83:\n      sload(0x05)\n      dup2\n      jump\t// out\n        /* \"#utility.yul\":7:82   */\n    tag_163:\n        /* \"#utility.yul\":40:46   */\n      0x00\n        /* \"#utility.yul\":73:75   */\n      0x40\n        /* \"#utility.yul\":67:76   */\n      mload\n        /* \"#utility.yul\":57:76   */\n      swap1\n      pop\n        /* \"#utility.yul\":7:82   */\n      swap1\n      jump\t// out\n        /* \"#utility.yul\":88:205   */\n    tag_164:\n        /* \"#utility.yul\":197:198   */\n      0x00\n        /* \"#utility.yul\":194:195   */\n      dup1\n        /* \"#utility.yul\":187:199   */\n      revert\n        /* \"#utility.yul\":211:328   */\n    tag_165:\n        /* \"#utility.yul\":320:321   */\n      0x00\n        /* \"#utility.yul\":317:318   */\n      dup1\n        /* \"#utility.yul\":310:322   */\n      revert\n        /* \"#utility.yul\":334:451   */\n    tag_166:\n        /* \"#utility.yul\":443:444   */\n      0x00\n        /* \"#utility.yul\":440:441   */\n      dup1\n        /* \"#utility.yul\":433:445   */\n      revert\n        /* \"#utility.yul\":457:574   */\n    tag_167:\n        /* \"#utility.yul\":566:567   */\n      0x00\n        /* \"#utility.yul\":563:564   */\n      dup1\n        /* \"#utility.yul\":556:568   */\n      revert\n        /* \"#utility.yul\":580:682   */\n    tag_168:\n        /* \"#utility.yul\":621:627   */\n      0x00\n        /* \"#utility.yul\":672:674   */\n      0x1f\n        /* \"#utility.yul\":668:675   */\n      not\n        /* \"#utility.yul\":663:665   */\n      0x1f\n        /* \"#utility.yul\":656:661   */\n      dup4\n        /* \"#utility.yul\":652:666   */\n      add\n        /* \"#utility.yul\":648:676   */\n      and\n        /* \"#utility.yul\":638:676   */\n      swap1\n      pop\n        /* \"#utility.yul\":580:682   */\n      swap2\n      swap1\n      pop\n      jump\t// out\n        /* \"#utility.yul\":688:868   */\n    tag_169:\n        /* \"#utility.yul\":736:813   */\n      0x4e487b7100000000000000000000000000000000000000000000000000000000\n        /* \"#utility.yul\":733:734   */\n      0x00\n        /* \"#utility.yul\":726:814   */\n      mstore\n        /* \"#utility.yul\":833:837   */\n      0x41\n        /* \"#utility.yul\":830:831   */\n      0x04\n        /* \"#utility.yul\":823:838   */\n      mstore\n        /* \"#utility.yul\":857:861   */\n      0x24\n        /* \"#utility.yul\":854:855   */\n      0x00\n        /* \"#utility.yul\":847:862   */\n      revert\n        /* \"#utility.yul\":874:1155   */\n    tag_170:\n        /* \"#utility.yul\":957:984   */\n      tag_250\n        /* \"#utility.yul\":979:983   */\n      dup3\n        /* \"#utility.yul\":957:984   */\n      tag_168\n      jump\t// in\n    tag_250:\n        /* \"#utility.yul\":949:955   */\n      dup2\n        /* \"#utility.yul\":945:985   */\n      add\n        /* \"#utility.yul\":1087:1093   */\n      dup2\n        /* \"#utility.yul\":1075:1085   */\n      dup2\n        /* \"#utility.yul\":1072:1094   */\n      lt\n        /* \"#utility.yul\":1051:1069   */\n      0xffffffffffffffff\n        /* \"#utility.yul\":1039:1049   */\n      dup3\n        /* \"#utility.yul\":1036:1070   */\n      gt\n        /* \"#utility.yul\":1033:1095   */\n      or\n        /* \"#utility.yul\":1030:1118   */\n      iszero\n      tag_251\n      jumpi\n        /* \"#utility.yul\":1098:1116   */\n      tag_252\n      tag_169\n      jump\t// in\n    tag_252:\n        /* \"#utility.yul\":1030:1118   */\n    tag_251:\n        /* \"#utility.yul\":1138:1148   */\n      dup1\n        /* \"#utility.yul\":1134:1136   */\n      0x40\n        /* \"#utility.yul\":1127:1149   */\n      mstore\n        /* \"#utility.yul\":917:1155   */\n      pop\n        /* \"#utility.yul\":874:1155   */\n      pop\n      pop\n      jump\t// out\n        /* \"#utility.yul\":1161:1290   */\n    tag_171:\n        /* \"#utility.yul\":1195:1201   */\n      0x00\n        /* \"#utility.yul\":1222:1242   */\n      tag_254\n      tag_163\n      jump\t// in\n    tag_254:\n        /* \"#utility.yul\":1212:1242   */\n      swap1\n      pop\n        /* \"#utility.yul\":1251:1284   */\n      tag_255\n        /* \"#utility.yul\":1279:1283   */\n      dup3\n        /* \"#utility.yul\":1271:1277   */\n      dup3\n        /* \"#utility.yul\":1251:1284   */\n      tag_170\n      jump\t// in\n    tag_255:\n        /* \"#utility.yul\":1161:1290   */\n      swap2\n      swap1\n      pop\n      jump\t// out\n        /* \"#utility.yul\":1296:1604   */\n    tag_172:\n        /* \"#utility.yul\":1358:1362   */\n      0x00\n        /* \"#utility.yul\":1448:1466   */\n      0xffffffffffffffff\n        /* \"#utility.yul\":1440:1446   */\n      dup3\n        /* \"#utility.yul\":1437:1467   */\n      gt\n        /* \"#utility.yul\":1434:1490   */\n      iszero\n      tag_257\n      jumpi\n        /* \"#utility.yul\":1470:1488   */\n      tag_258\n      tag_169\n      jump\t// in\n    tag_258:\n        /* \"#utility.yul\":1434:1490   */\n    tag_257:\n        /* \"#utility.yul\":1508:1537   */\n      tag_259\n        /* \"#utility.yul\":1530:1536   */\n      dup3\n        /* \"#utility.yul\":1508:1537   */\n      tag_168\n      jump\t// in\n    tag_259:\n        /* \"#utility.yul\":1500:1537   */\n      swap1\n      pop\n        /* \"#utility.yul\":1592:1596   */\n      0x20\n        /* \"#utility.yul\":1586:1590   */\n      dup2\n        /* \"#utility.yul\":1582:1597   */\n      add\n        /* \"#utility.yul\":1574:1597   */\n      swap1\n      pop\n        /* \"#utility.yul\":1296:1604   */\n      swap2\n      swap1\n      pop\n      jump\t// out\n        /* \"#utility.yul\":1610:1758   */\n    tag_173:\n        /* \"#utility.yul\":1708:1714   */\n      dup3\n        /* \"#utility.yul\":1703:1706   */\n      dup2\n        /* \"#utility.yul\":1698:1701   */\n      dup4\n        /* \"#utility.yul\":1685:1715   */\n      calldatacopy\n        /* \"#utility.yul\":1749:1750   */\n      0x00\n        /* \"#utility.yul\":1740:1746   */\n      dup4\n        /* \"#utility.yul\":1735:1738   */\n      dup4\n        /* \"#utility.yul\":1731:1747   */\n      add\n        /* \"#utility.yul\":1724:1751   */\n      mstore\n        /* \"#utility.yul\":1610:1758   */\n      pop\n      pop\n      pop\n      jump\t// out\n        /* \"#utility.yul\":1764:2189   */\n    tag_174:\n        /* \"#utility.yul\":1842:1847   */\n      0x00\n        /* \"#utility.yul\":1867:1933   */\n      tag_262\n        /* \"#utility.yul\":1883:1932   */\n      tag_263\n        /* \"#utility.yul\":1925:1931   */\n      dup5\n        /* \"#utility.yul\":1883:1932   */\n      tag_172\n      jump\t// in\n    tag_263:\n        /* \"#utility.yul\":1867:1933   */\n      tag_171\n      jump\t// in\n    tag_262:\n        /* \"#utility.yul\":1858:1933   */\n      swap1\n      pop\n        /* \"#utility.yul\":1956:1962   */\n      dup3\n        /* \"#utility.yul\":1949:1954   */\n      dup2\n        /* \"#utility.yul\":1942:1963   */\n      mstore\n        /* \"#utility.yul\":1994:1998   */\n      0x20\n        /* \"#utility.yul\":1987:1992   */\n      dup2\n        /* \"#utility.yul\":1983:1999   */\n      add\n        /* \"#utility.yul\":2032:2035   */\n      dup5\n        /* \"#utility.yul\":2023:2029   */\n      dup5\n        /* \"#utility.yul\":2018:2021   */\n      dup5\n        /* \"#utility.yul\":2014:2030   */\n      add\n        /* \"#utility.yul\":2011:2036   */\n      gt\n        /* \"#utility.yul\":2008:2120   */\n      iszero\n      tag_264\n      jumpi\n        /* \"#utility.yul\":2039:2118   */\n      tag_265\n      tag_167\n      jump\t// in\n    tag_265:\n        /* \"#utility.yul\":2008:2120   */\n    tag_264:\n        /* \"#utility.yul\":2129:2183   */\n      tag_266\n        /* \"#utility.yul\":2176:2182   */\n      dup5\n        /* \"#utility.yul\":2171:2174   */\n      dup3\n        /* \"#utility.yul\":2166:2169   */\n      dup6\n        /* \"#utility.yul\":2129:2183   */\n      tag_173\n      jump\t// in\n    tag_266:\n        /* \"#utility.yul\":1848:2189   */\n      pop\n        /* \"#utility.yul\":1764:2189   */\n      swap4\n      swap3\n      pop\n      pop\n      pop\n      jump\t// out\n        /* \"#utility.yul\":2209:2549   */\n    tag_175:\n        /* \"#utility.yul\":2265:2270   */\n      0x00\n        /* \"#utility.yul\":2314:2317   */\n      dup3\n        /* \"#utility.yul\":2307:2311   */\n      0x1f\n        /* \"#utility.yul\":2299:2305   */\n      dup4\n        /* \"#utility.yul\":2295:2312   */\n      add\n        /* \"#utility.yul\":2291:2318   */\n      slt\n        /* \"#utility.yul\":2281:2403   */\n      tag_268\n      jumpi\n        /* \"#utility.yul\":2322:2401   */\n      tag_269\n      tag_166\n      jump\t// in\n    tag_269:\n        /* \"#utility.yul\":2281:2403   */\n    tag_268:\n        /* \"#utility.yul\":2439:2445   */\n      dup2\n        /* \"#utility.yul\":2426:2446   */\n      calldataload\n        /* \"#utility.yul\":2464:2543   */\n      tag_270\n        /* \"#utility.yul\":2539:2542   */\n      dup5\n        /* \"#utility.yul\":2531:2537   */\n      dup3\n        /* \"#utility.yul\":2524:2528   */\n      0x20\n        /* \"#utility.yul\":2516:2522   */\n      dup7\n        /* \"#utility.yul\":2512:2529   */\n      add\n        /* \"#utility.yul\":2464:2543   */\n      tag_174\n      jump\t// in\n    tag_270:\n        /* \"#utility.yul\":2455:2543   */\n      swap2\n      pop\n        /* \"#utility.yul\":2271:2549   */\n      pop\n        /* \"#utility.yul\":2209:2549   */\n      swap3\n      swap2\n      pop\n      pop\n      jump\t// out\n        /* \"#utility.yul\":2555:2681   */\n    tag_176:\n        /* \"#utility.yul\":2592:2599   */\n      0x00\n        /* \"#utility.yul\":2632:2674   */\n      0xffffffffffffffffffffffffffffffffffffffff\n        /* \"#utility.yul\":2625:2630   */\n      dup3\n        /* \"#utility.yul\":2621:2675   */\n      and\n        /* \"#utility.yul\":2610:2675   */\n      swap1\n      pop\n        /* \"#utility.yul\":2555:2681   */\n      swap2\n      swap1\n      pop\n      jump\t// out\n        /* \"#utility.yul\":2687:2791   */\n    tag_177:\n        /* \"#utility.yul\":2732:2739   */\n      0x00\n        /* \"#utility.yul\":2761:2785   */\n      tag_273\n        /* \"#utility.yul\":2779:2784   */\n      dup3\n        /* \"#utility.yul\":2761:2785   */\n      tag_176\n      jump\t// in\n    tag_273:\n        /* \"#utility.yul\":2750:2785   */\n      swap1\n      pop\n        /* \"#utility.yul\":2687:2791   */\n      swap2\n      swap1\n      pop\n      jump\t// out\n        /* \"#utility.yul\":2797:2935   */\n    tag_178:\n        /* \"#utility.yul\":2878:2910   */\n      tag_275\n        /* \"#utility.yul\":2904:2909   */\n      dup2\n        /* \"#utility.yul\":2878:2910   */\n      tag_177\n      jump\t// in\n    tag_275:\n        /* \"#utility.yul\":2871:2876   */\n      dup2\n        /* \"#utility.yul\":2868:2911   */\n      eq\n        /* \"#utility.yul\":2858:2929   */\n      tag_276\n      jumpi\n        /* \"#utility.yul\":2925:2926   */\n      0x00\n        /* \"#utility.yul\":2922:2923   */\n      dup1\n        /* \"#utility.yul\":2915:2927   */\n      revert\n        /* \"#utility.yul\":2858:2929   */\n    tag_276:\n        /* \"#utility.yul\":2797:2935   */\n      pop\n      jump\t// out\n        /* \"#utility.yul\":2941:3096   */\n    tag_179:\n        /* \"#utility.yul\":2995:3000   */\n      0x00\n        /* \"#utility.yul\":3033:3039   */\n      dup2\n        /* \"#utility.yul\":3020:3040   */\n      calldataload\n        /* \"#utility.yul\":3011:3040   */\n      swap1\n      pop\n        /* \"#utility.yul\":3049:3090   */\n      tag_278\n        /* \"#utility.yul\":3084:3089   */\n      dup2\n        /* \"#utility.yul\":3049:3090   */\n      tag_178\n      jump\t// in\n    tag_278:\n        /* \"#utility.yul\":2941:3096   */\n      swap3\n      swap2\n      pop\n      pop\n      jump\t// out\n        /* \"#utility.yul\":3102:3179   */\n    tag_180:\n        /* \"#utility.yul\":3139:3146   */\n      0x00\n        /* \"#utility.yul\":3168:3173   */\n      dup2\n        /* \"#utility.yul\":3157:3173   */\n      swap1\n      pop\n        /* \"#utility.yul\":3102:3179   */\n      swap2\n      swap1\n      pop\n      jump\t// out\n        /* \"#utility.yul\":3185:3307   */\n    tag_181:\n        /* \"#utility.yul\":3258:3282   */\n      tag_281\n        /* \"#utility.yul\":3276:3281   */\n      dup2\n        /* \"#utility.yul\":3258:3282   */\n      tag_180\n      jump\t// in\n    tag_281:\n        /* \"#utility.yul\":3251:3256   */\n      dup2\n        /* \"#utility.yul\":3248:3283   */\n      eq\n        /* \"#utility.yul\":3238:3301   */\n      tag_282\n      jumpi\n        /* \"#utility.yul\":3297:3298   */\n      0x00\n        /* \"#utility.yul\":3294:3295   */\n      dup1\n        /* \"#utility.yul\":3287:3299   */\n      revert\n        /* \"#utility.yul\":3238:3301   */\n    tag_282:\n        /* \"#utility.yul\":3185:3307   */\n      pop\n      jump\t// out\n        /* \"#utility.yul\":3313:3452   */\n    tag_182:\n        /* \"#utility.yul\":3359:3364   */\n      0x00\n        /* \"#utility.yul\":3397:3403   */\n      dup2\n        /* \"#utility.yul\":3384:3404   */\n      calldataload\n        /* \"#utility.yul\":3375:3404   */\n      swap1\n      pop\n        /* \"#utility.yul\":3413:3446   */\n      tag_284\n        /* \"#utility.yul\":3440:3445   */\n      dup2\n        /* \"#utility.yul\":3413:3446   */\n      tag_181\n      jump\t// in\n    tag_284:\n        /* \"#utility.yul\":3313:3452   */\n      swap3\n      swap2\n      pop\n      pop\n      jump\t// out\n        /* \"#utility.yul\":3458:4273   */\n    tag_25:\n        /* \"#utility.yul\":3553:3559   */\n      0x00\n        /* \"#utility.yul\":3561:3567   */\n      dup1\n        /* \"#utility.yul\":3569:3575   */\n      0x00\n        /* \"#utility.yul\":3618:3620   */\n      0x60\n        /* \"#utility.yul\":3606:3615   */\n      dup5\n        /* \"#utility.yul\":3597:3604   */\n      dup7\n        /* \"#utility.yul\":3593:3616   */\n      sub\n        /* \"#utility.yul\":3589:3621   */\n      slt\n        /* \"#utility.yul\":3586:3705   */\n      iszero\n      tag_286\n      jumpi\n        /* \"#utility.yul\":3624:3703   */\n      tag_287\n      tag_164\n      jump\t// in\n    tag_287:\n        /* \"#utility.yul\":3586:3705   */\n    tag_286:\n        /* \"#utility.yul\":3772:3773   */\n      0x00\n        /* \"#utility.yul\":3761:3770   */\n      dup5\n        /* \"#utility.yul\":3757:3774   */\n      add\n        /* \"#utility.yul\":3744:3775   */\n      calldataload\n        /* \"#utility.yul\":3802:3820   */\n      0xffffffffffffffff\n        /* \"#utility.yul\":3794:3800   */\n      dup2\n        /* \"#utility.yul\":3791:3821   */\n      gt\n        /* \"#utility.yul\":3788:3905   */\n      iszero\n      tag_288\n      jumpi\n        /* \"#utility.yul\":3824:3903   */\n      tag_289\n      tag_165\n      jump\t// in\n    tag_289:\n        /* \"#utility.yul\":3788:3905   */\n    tag_288:\n        /* \"#utility.yul\":3929:3992   */\n      tag_290\n        /* \"#utility.yul\":3984:3991   */\n      dup7\n        /* \"#utility.yul\":3975:3981   */\n      dup3\n        /* \"#utility.yul\":3964:3973   */\n      dup8\n        /* \"#utility.yul\":3960:3982   */\n      add\n        /* \"#utility.yul\":3929:3992   */\n      tag_175\n      jump\t// in\n    tag_290:\n        /* \"#utility.yul\":3919:3992   */\n      swap4\n      pop\n        /* \"#utility.yul\":3715:4002   */\n      pop\n        /* \"#utility.yul\":4041:4043   */\n      0x20\n        /* \"#utility.yul\":4067:4128   */\n      tag_291\n        /* \"#utility.yul\":4120:4127   */\n      dup7\n        /* \"#utility.yul\":4111:4117   */\n      dup3\n        /* \"#utility.yul\":4100:4109   */\n      dup8\n        /* \"#utility.yul\":4096:4118   */\n      add\n        /* \"#utility.yul\":4067:4128   */\n      tag_179\n      jump\t// in\n    tag_291:\n        /* \"#utility.yul\":4057:4128   */\n      swap3\n      pop\n        /* \"#utility.yul\":4012:4138   */\n      pop\n        /* \"#utility.yul\":4177:4179   */\n      0x40\n        /* \"#utility.yul\":4203:4256   */\n      tag_292\n        /* \"#utility.yul\":4248:4255   */\n      dup7\n        /* \"#utility.yul\":4239:4245   */\n      dup3\n        /* \"#utility.yul\":4228:4237   */\n      dup8\n        /* \"#utility.yul\":4224:4246   */\n      add\n        /* \"#utility.yul\":4203:4256   */\n      tag_182\n      jump\t// in\n    tag_292:\n        /* \"#utility.yul\":4193:4256   */\n      swap2\n      pop\n        /* \"#utility.yul\":4148:4266   */\n      pop\n        /* \"#utility.yul\":3458:4273   */\n      swap3\n      pop\n      swap3\n      pop\n      swap3\n      jump\t// out\n        /* \"#utility.yul\":4279:4375   */\n    tag_183:\n        /* \"#utility.yul\":4316:4323   */\n      0x00\n        /* \"#utility.yul\":4345:4369   */\n      tag_294\n        /* \"#utility.yul\":4363:4368   */\n      dup3\n        /* \"#utility.yul\":4345:4369   */\n      tag_176\n      jump\t// in\n    tag_294:\n        /* \"#utility.yul\":4334:4369   */\n      swap1\n      pop\n        /* \"#utility.yul\":4279:4375   */\n      swap2\n      swap1\n      pop\n      jump\t// out\n        /* \"#utility.yul\":4381:4503   */\n    tag_184:\n        /* \"#utility.yul\":4454:4478   */\n      tag_296\n        /* \"#utility.yul\":4472:4477   */\n      dup2\n        /* \"#utility.yul\":4454:4478   */\n      tag_183\n      jump\t// in\n    tag_296:\n        /* \"#utility.yul\":4447:4452   */\n      dup2\n        /* \"#utility.yul\":4444:4479   */\n      eq\n        /* \"#utility.yul\":4434:4497   */\n      tag_297\n      jumpi\n        /* \"#utility.yul\":4493:4494   */\n      0x00\n        /* \"#utility.yul\":4490:4491   */\n      dup1\n        /* \"#utility.yul\":4483:4495   */\n      revert\n        /* \"#utility.yul\":4434:4497   */\n    tag_297:\n        /* \"#utility.yul\":4381:4503   */\n      pop\n      jump\t// out\n        /* \"#utility.yul\":4509:4648   */\n    tag_185:\n        /* \"#utility.yul\":4555:4560   */\n      0x00\n        /* \"#utility.yul\":4593:4599   */\n      dup2\n        /* \"#utility.yul\":4580:4600   */\n      calldataload\n        /* \"#utility.yul\":4571:4600   */\n      swap1\n      pop\n        /* \"#utility.yul\":4609:4642   */\n      tag_299\n        /* \"#utility.yul\":4636:4641   */\n      dup2\n        /* \"#utility.yul\":4609:4642   */\n      tag_184\n      jump\t// in\n    tag_299:\n        /* \"#utility.yul\":4509:4648   */\n      swap3\n      swap2\n      pop\n      pop\n      jump\t// out\n        /* \"#utility.yul\":4654:4983   */\n    tag_30:\n        /* \"#utility.yul\":4713:4719   */\n      0x00\n        /* \"#utility.yul\":4762:4764   */\n      0x20\n        /* \"#utility.yul\":4750:4759   */\n      dup3\n        /* \"#utility.yul\":4741:4748   */\n      dup5\n        /* \"#utility.yul\":4737:4760   */\n      sub\n        /* \"#utility.yul\":4733:4765   */\n      slt\n        /* \"#utility.yul\":4730:4849   */\n      iszero\n      tag_301\n      jumpi\n        /* \"#utility.yul\":4768:4847   */\n      tag_302\n      tag_164\n      jump\t// in\n    tag_302:\n        /* \"#utility.yul\":4730:4849   */\n    tag_301:\n        /* \"#utility.yul\":4888:4889   */\n      0x00\n        /* \"#utility.yul\":4913:4966   */\n      tag_303\n        /* \"#utility.yul\":4958:4965   */\n      dup5\n        /* \"#utility.yul\":4949:4955   */\n      dup3\n        /* \"#utility.yul\":4938:4947   */\n      dup6\n        /* \"#utility.yul\":4934:4956   */\n      add\n        /* \"#utility.yul\":4913:4966   */\n      tag_185\n      jump\t// in\n    tag_303:\n        /* \"#utility.yul\":4903:4966   */\n      swap2\n      pop\n        /* \"#utility.yul\":4859:4976   */\n      pop\n        /* \"#utility.yul\":4654:4983   */\n      swap3\n      swap2\n      pop\n      pop\n      jump\t// out\n        /* \"#utility.yul\":4989:5107   */\n    tag_186:\n        /* \"#utility.yul\":5076:5100   */\n      tag_305\n        /* \"#utility.yul\":5094:5099   */\n      dup2\n        /* \"#utility.yul\":5076:5100   */\n      tag_180\n      jump\t// in\n    tag_305:\n        /* \"#utility.yul\":5071:5074   */\n      dup3\n        /* \"#utility.yul\":5064:5101   */\n      mstore\n        /* \"#utility.yul\":4989:5107   */\n      pop\n      pop\n      jump\t// out\n        /* \"#utility.yul\":5113:5335   */\n    tag_33:\n        /* \"#utility.yul\":5206:5210   */\n      0x00\n        /* \"#utility.yul\":5244:5246   */\n      0x20\n        /* \"#utility.yul\":5233:5242   */\n      dup3\n        /* \"#utility.yul\":5229:5247   */\n      add\n        /* \"#utility.yul\":5221:5247   */\n      swap1\n      pop\n        /* \"#utility.yul\":5257:5328   */\n      tag_307\n        /* \"#utility.yul\":5325:5326   */\n      0x00\n        /* \"#utility.yul\":5314:5323   */\n      dup4\n        /* \"#utility.yul\":5310:5327   */\n      add\n        /* \"#utility.yul\":5301:5307   */\n      dup5\n        /* \"#utility.yul\":5257:5328   */\n      tag_186\n      jump\t// in\n    tag_307:\n        /* \"#utility.yul\":5113:5335   */\n      swap3\n      swap2\n      pop\n      pop\n      jump\t// out\n        /* \"#utility.yul\":5341:5459   */\n    tag_187:\n        /* \"#utility.yul\":5428:5452   */\n      tag_309\n        /* \"#utility.yul\":5446:5451   */\n      dup2\n        /* \"#utility.yul\":5428:5452   */\n      tag_183\n      jump\t// in\n    tag_309:\n        /* \"#utility.yul\":5423:5426   */\n      dup3\n        /* \"#utility.yul\":5416:5453   */\n      mstore\n        /* \"#utility.yul\":5341:5459   */\n      pop\n      pop\n      jump\t// out\n        /* \"#utility.yul\":5465:5687   */\n    tag_42:\n        /* \"#utility.yul\":5558:5562   */\n      0x00\n        /* \"#utility.yul\":5596:5598   */\n      0x20\n        /* \"#utility.yul\":5585:5594   */\n      dup3\n        /* \"#utility.yul\":5581:5599   */\n      add\n        /* \"#utility.yul\":5573:5599   */\n      swap1\n      pop\n        /* \"#utility.yul\":5609:5680   */\n      tag_311\n        /* \"#utility.yul\":5677:5678   */\n      0x00\n        /* \"#utility.yul\":5666:5675   */\n      dup4\n        /* \"#utility.yul\":5662:5679   */\n      add\n        /* \"#utility.yul\":5653:5659   */\n      dup5\n        /* \"#utility.yul\":5609:5680   */\n      tag_187\n      jump\t// in\n    tag_311:\n        /* \"#utility.yul\":5465:5687   */\n      swap3\n      swap2\n      pop\n      pop\n      jump\t// out\n        /* \"#utility.yul\":5693:6022   */\n    tag_46:\n        /* \"#utility.yul\":5752:5758   */\n      0x00\n        /* \"#utility.yul\":5801:5803   */\n      0x20\n        /* \"#utility.yul\":5789:5798   */\n      dup3\n        /* \"#utility.yul\":5780:5787   */\n      dup5\n        /* \"#utility.yul\":5776:5799   */\n      sub\n        /* \"#utility.yul\":5772:5804   */\n      slt\n        /* \"#utility.yul\":5769:5888   */\n      iszero\n      tag_313\n      jumpi\n        /* \"#utility.yul\":5807:5886   */\n      tag_314\n      tag_164\n      jump\t// in\n    tag_314:\n        /* \"#utility.yul\":5769:5888   */\n    tag_313:\n        /* \"#utility.yul\":5927:5928   */\n      0x00\n        /* \"#utility.yul\":5952:6005   */\n      tag_315\n        /* \"#utility.yul\":5997:6004   */\n      dup5\n        /* \"#utility.yul\":5988:5994   */\n      dup3\n        /* \"#utility.yul\":5977:5986   */\n      dup6\n        /* \"#utility.yul\":5973:5995   */\n      add\n        /* \"#utility.yul\":5952:6005   */\n      tag_182\n      jump\t// in\n    tag_315:\n        /* \"#utility.yul\":5942:6005   */\n      swap2\n      pop\n        /* \"#utility.yul\":5898:6015   */\n      pop\n        /* \"#utility.yul\":5693:6022   */\n      swap3\n      swap2\n      pop\n      pop\n      jump\t// out\n        /* \"#utility.yul\":6028:6127   */\n    tag_188:\n        /* \"#utility.yul\":6080:6086   */\n      0x00\n        /* \"#utility.yul\":6114:6119   */\n      dup2\n        /* \"#utility.yul\":6108:6120   */\n      mload\n        /* \"#utility.yul\":6098:6120   */\n      swap1\n      pop\n        /* \"#utility.yul\":6028:6127   */\n      swap2\n      swap1\n      pop\n      jump\t// out\n        /* \"#utility.yul\":6133:6302   */\n    tag_189:\n        /* \"#utility.yul\":6217:6228   */\n      0x00\n        /* \"#utility.yul\":6251:6257   */\n      dup3\n        /* \"#utility.yul\":6246:6249   */\n      dup3\n        /* \"#utility.yul\":6239:6258   */\n      mstore\n        /* \"#utility.yul\":6291:6295   */\n      0x20\n        /* \"#utility.yul\":6286:6289   */\n      dup3\n        /* \"#utility.yul\":6282:6296   */\n      add\n        /* \"#utility.yul\":6267:6296   */\n      swap1\n      pop\n        /* \"#utility.yul\":6133:6302   */\n      swap3\n      swap2\n      pop\n      pop\n      jump\t// out\n        /* \"#utility.yul\":6308:6447   */\n    tag_190:\n        /* \"#utility.yul\":6397:6403   */\n      dup3\n        /* \"#utility.yul\":6392:6395   */\n      dup2\n        /* \"#utility.yul\":6387:6390   */\n      dup4\n        /* \"#utility.yul\":6381:6404   */\n      mcopy\n        /* \"#utility.yul\":6438:6439   */\n      0x00\n        /* \"#utility.yul\":6429:6435   */\n      dup4\n        /* \"#utility.yul\":6424:6427   */\n      dup4\n        /* \"#utility.yul\":6420:6436   */\n      add\n        /* \"#utility.yul\":6413:6440   */\n      mstore\n        /* \"#utility.yul\":6308:6447   */\n      pop\n      pop\n      pop\n      jump\t// out\n        /* \"#utility.yul\":6453:6830   */\n    tag_191:\n        /* \"#utility.yul\":6541:6544   */\n      0x00\n        /* \"#utility.yul\":6569:6608   */\n      tag_320\n        /* \"#utility.yul\":6602:6607   */\n      dup3\n        /* \"#utility.yul\":6569:6608   */\n      tag_188\n      jump\t// in\n    tag_320:\n        /* \"#utility.yul\":6624:6695   */\n      tag_321\n        /* \"#utility.yul\":6688:6694   */\n      dup2\n        /* \"#utility.yul\":6683:6686   */\n      dup6\n        /* \"#utility.yul\":6624:6695   */\n      tag_189\n      jump\t// in\n    tag_321:\n        /* \"#utility.yul\":6617:6695   */\n      swap4\n      pop\n        /* \"#utility.yul\":6704:6769   */\n      tag_322\n        /* \"#utility.yul\":6762:6768   */\n      dup2\n        /* \"#utility.yul\":6757:6760   */\n      dup6\n        /* \"#utility.yul\":6750:6754   */\n      0x20\n        /* \"#utility.yul\":6743:6748   */\n      dup7\n        /* \"#utility.yul\":6739:6755   */\n      add\n        /* \"#utility.yul\":6704:6769   */\n      tag_190\n      jump\t// in\n    tag_322:\n        /* \"#utility.yul\":6794:6823   */\n      tag_323\n        /* \"#utility.yul\":6816:6822   */\n      dup2\n        /* \"#utility.yul\":6794:6823   */\n      tag_168\n      jump\t// in\n    tag_323:\n        /* \"#utility.yul\":6789:6792   */\n      dup5\n        /* \"#utility.yul\":6785:6824   */\n      add\n        /* \"#utility.yul\":6778:6824   */\n      swap2\n      pop\n        /* \"#utility.yul\":6545:6830   */\n      pop\n        /* \"#utility.yul\":6453:6830   */\n      swap3\n      swap2\n      pop\n      pop\n      jump\t// out\n        /* \"#utility.yul\":6836:6978   */\n    tag_192:\n        /* \"#utility.yul\":6939:6971   */\n      tag_325\n        /* \"#utility.yul\":6965:6970   */\n      dup2\n        /* \"#utility.yul\":6939:6971   */\n      tag_177\n      jump\t// in\n    tag_325:\n        /* \"#utility.yul\":6934:6937   */\n      dup3\n        /* \"#utility.yul\":6927:6972   */\n      mstore\n        /* \"#utility.yul\":6836:6978   */\n      pop\n      pop\n      jump\t// out\n        /* \"#utility.yul\":6984:7074   */\n    tag_193:\n        /* \"#utility.yul\":7018:7025   */\n      0x00\n        /* \"#utility.yul\":7061:7066   */\n      dup2\n        /* \"#utility.yul\":7054:7067   */\n      iszero\n        /* \"#utility.yul\":7047:7068   */\n      iszero\n        /* \"#utility.yul\":7036:7068   */\n      swap1\n      pop\n        /* \"#utility.yul\":6984:7074   */\n      swap2\n      swap1\n      pop\n      jump\t// out\n        /* \"#utility.yul\":7080:7189   */\n    tag_194:\n        /* \"#utility.yul\":7161:7182   */\n      tag_328\n        /* \"#utility.yul\":7176:7181   */\n      dup2\n        /* \"#utility.yul\":7161:7182   */\n      tag_193\n      jump\t// in\n    tag_328:\n        /* \"#utility.yul\":7156:7159   */\n      dup3\n        /* \"#utility.yul\":7149:7183   */\n      mstore\n        /* \"#utility.yul\":7080:7189   */\n      pop\n      pop\n      jump\t// out\n        /* \"#utility.yul\":7195:7970   */\n    tag_80:\n        /* \"#utility.yul\":7430:7434   */\n      0x00\n        /* \"#utility.yul\":7468:7471   */\n      0xa0\n        /* \"#utility.yul\":7457:7466   */\n      dup3\n        /* \"#utility.yul\":7453:7472   */\n      add\n        /* \"#utility.yul\":7445:7472   */\n      swap1\n      pop\n        /* \"#utility.yul\":7518:7527   */\n      dup2\n        /* \"#utility.yul\":7512:7516   */\n      dup2\n        /* \"#utility.yul\":7508:7528   */\n      sub\n        /* \"#utility.yul\":7504:7505   */\n      0x00\n        /* \"#utility.yul\":7493:7502   */\n      dup4\n        /* \"#utility.yul\":7489:7506   */\n      add\n        /* \"#utility.yul\":7482:7529   */\n      mstore\n        /* \"#utility.yul\":7546:7624   */\n      tag_330\n        /* \"#utility.yul\":7619:7623   */\n      dup2\n        /* \"#utility.yul\":7610:7616   */\n      dup9\n        /* \"#utility.yul\":7546:7624   */\n      tag_191\n      jump\t// in\n    tag_330:\n        /* \"#utility.yul\":7538:7624   */\n      swap1\n      pop\n        /* \"#utility.yul\":7634:7722   */\n      tag_331\n        /* \"#utility.yul\":7718:7720   */\n      0x20\n        /* \"#utility.yul\":7707:7716   */\n      dup4\n        /* \"#utility.yul\":7703:7721   */\n      add\n        /* \"#utility.yul\":7694:7700   */\n      dup8\n        /* \"#utility.yul\":7634:7722   */\n      tag_192\n      jump\t// in\n    tag_331:\n        /* \"#utility.yul\":7732:7804   */\n      tag_332\n        /* \"#utility.yul\":7800:7802   */\n      0x40\n        /* \"#utility.yul\":7789:7798   */\n      dup4\n        /* \"#utility.yul\":7785:7803   */\n      add\n        /* \"#utility.yul\":7776:7782   */\n      dup7\n        /* \"#utility.yul\":7732:7804   */\n      tag_186\n      jump\t// in\n    tag_332:\n        /* \"#utility.yul\":7814:7880   */\n      tag_333\n        /* \"#utility.yul\":7876:7878   */\n      0x60\n        /* \"#utility.yul\":7865:7874   */\n      dup4\n        /* \"#utility.yul\":7861:7879   */\n      add\n        /* \"#utility.yul\":7852:7858   */\n      dup6\n        /* \"#utility.yul\":7814:7880   */\n      tag_194\n      jump\t// in\n    tag_333:\n        /* \"#utility.yul\":7890:7963   */\n      tag_334\n        /* \"#utility.yul\":7958:7961   */\n      0x80\n        /* \"#utility.yul\":7947:7956   */\n      dup4\n        /* \"#utility.yul\":7943:7962   */\n      add\n        /* \"#utility.yul\":7934:7940   */\n      dup5\n        /* \"#utility.yul\":7890:7963   */\n      tag_186\n      jump\t// in\n    tag_334:\n        /* \"#utility.yul\":7195:7970   */\n      swap7\n      swap6\n      pop\n      pop\n      pop\n      pop\n      pop\n      pop\n      jump\t// out\n        /* \"#utility.yul\":7976:8149   */\n    tag_195:\n        /* \"#utility.yul\":8116:8141   */\n      0x54686520646561646c696e652068617320706173736564000000000000000000\n        /* \"#utility.yul\":8112:8113   */\n      0x00\n        /* \"#utility.yul\":8104:8110   */\n      dup3\n        /* \"#utility.yul\":8100:8114   */\n      add\n        /* \"#utility.yul\":8093:8142   */\n      mstore\n        /* \"#utility.yul\":7976:8149   */\n      pop\n      jump\t// out\n        /* \"#utility.yul\":8155:8521   */\n    tag_196:\n        /* \"#utility.yul\":8297:8300   */\n      0x00\n        /* \"#utility.yul\":8318:8385   */\n      tag_337\n        /* \"#utility.yul\":8382:8384   */\n      0x17\n        /* \"#utility.yul\":8377:8380   */\n      dup4\n        /* \"#utility.yul\":8318:8385   */\n      tag_189\n      jump\t// in\n    tag_337:\n        /* \"#utility.yul\":8311:8385   */\n      swap2\n      pop\n        /* \"#utility.yul\":8394:8487   */\n      tag_338\n        /* \"#utility.yul\":8483:8486   */\n      dup3\n        /* \"#utility.yul\":8394:8487   */\n      tag_195\n      jump\t// in\n    tag_338:\n        /* \"#utility.yul\":8512:8514   */\n      0x20\n        /* \"#utility.yul\":8507:8510   */\n      dup3\n        /* \"#utility.yul\":8503:8515   */\n      add\n        /* \"#utility.yul\":8496:8515   */\n      swap1\n      pop\n        /* \"#utility.yul\":8155:8521   */\n      swap2\n      swap1\n      pop\n      jump\t// out\n        /* \"#utility.yul\":8527:8946   */\n    tag_88:\n        /* \"#utility.yul\":8693:8697   */\n      0x00\n        /* \"#utility.yul\":8731:8733   */\n      0x20\n        /* \"#utility.yul\":8720:8729   */\n      dup3\n        /* \"#utility.yul\":8716:8734   */\n      add\n        /* \"#utility.yul\":8708:8734   */\n      swap1\n      pop\n        /* \"#utility.yul\":8780:8789   */\n      dup2\n        /* \"#utility.yul\":8774:8778   */\n      dup2\n        /* \"#utility.yul\":8770:8790   */\n      sub\n        /* \"#utility.yul\":8766:8767   */\n      0x00\n        /* \"#utility.yul\":8755:8764   */\n      dup4\n        /* \"#utility.yul\":8751:8768   */\n      add\n        /* \"#utility.yul\":8744:8791   */\n      mstore\n        /* \"#utility.yul\":8808:8939   */\n      tag_340\n        /* \"#utility.yul\":8934:8938   */\n      dup2\n        /* \"#utility.yul\":8808:8939   */\n      tag_196\n      jump\t// in\n    tag_340:\n        /* \"#utility.yul\":8800:8939   */\n      swap1\n      pop\n        /* \"#utility.yul\":8527:8946   */\n      swap2\n      swap1\n      pop\n      jump\t// out\n        /* \"#utility.yul\":8952:9178   */\n    tag_197:\n        /* \"#utility.yul\":9092:9126   */\n      0x596f75206e65656420746f20636f6e74726962757465206174206c6561737420\n        /* \"#utility.yul\":9088:9089   */\n      0x00\n        /* \"#utility.yul\":9080:9086   */\n      dup3\n        /* \"#utility.yul\":9076:9090   */\n      add\n        /* \"#utility.yul\":9069:9127   */\n      mstore\n        /* \"#utility.yul\":9161:9170   */\n      0x3130302077656900000000000000000000000000000000000000000000000000\n        /* \"#utility.yul\":9156:9158   */\n      0x20\n        /* \"#utility.yul\":9148:9154   */\n      dup3\n        /* \"#utility.yul\":9144:9159   */\n      add\n        /* \"#utility.yul\":9137:9171   */\n      mstore\n        /* \"#utility.yul\":8952:9178   */\n      pop\n      jump\t// out\n        /* \"#utility.yul\":9184:9550   */\n    tag_198:\n        /* \"#utility.yul\":9326:9329   */\n      0x00\n        /* \"#utility.yul\":9347:9414   */\n      tag_343\n        /* \"#utility.yul\":9411:9413   */\n      0x27\n        /* \"#utility.yul\":9406:9409   */\n      dup4\n        /* \"#utility.yul\":9347:9414   */\n      tag_189\n      jump\t// in\n    tag_343:\n        /* \"#utility.yul\":9340:9414   */\n      swap2\n      pop\n        /* \"#utility.yul\":9423:9516   */\n      tag_344\n        /* \"#utility.yul\":9512:9515   */\n      dup3\n        /* \"#utility.yul\":9423:9516   */\n      tag_197\n      jump\t// in\n    tag_344:\n        /* \"#utility.yul\":9541:9543   */\n      0x40\n        /* \"#utility.yul\":9536:9539   */\n      dup3\n        /* \"#utility.yul\":9532:9544   */\n      add\n        /* \"#utility.yul\":9525:9544   */\n      swap1\n      pop\n        /* \"#utility.yul\":9184:9550   */\n      swap2\n      swap1\n      pop\n      jump\t// out\n        /* \"#utility.yul\":9556:9975   */\n    tag_91:\n        /* \"#utility.yul\":9722:9726   */\n      0x00\n        /* \"#utility.yul\":9760:9762   */\n      0x20\n        /* \"#utility.yul\":9749:9758   */\n      dup3\n        /* \"#utility.yul\":9745:9763   */\n      add\n        /* \"#utility.yul\":9737:9763   */\n      swap1\n      pop\n        /* \"#utility.yul\":9809:9818   */\n      dup2\n        /* \"#utility.yul\":9803:9807   */\n      dup2\n        /* \"#utility.yul\":9799:9819   */\n      sub\n        /* \"#utility.yul\":9795:9796   */\n      0x00\n        /* \"#utility.yul\":9784:9793   */\n      dup4\n        /* \"#utility.yul\":9780:9797   */\n      add\n        /* \"#utility.yul\":9773:9820   */\n      mstore\n        /* \"#utility.yul\":9837:9968   */\n      tag_346\n        /* \"#utility.yul\":9963:9967   */\n      dup2\n        /* \"#utility.yul\":9837:9968   */\n      tag_198\n      jump\t// in\n    tag_346:\n        /* \"#utility.yul\":9829:9968   */\n      swap1\n      pop\n        /* \"#utility.yul\":9556:9975   */\n      swap2\n      swap1\n      pop\n      jump\t// out\n        /* \"#utility.yul\":9981:10161   */\n    tag_199:\n        /* \"#utility.yul\":10029:10106   */\n      0x4e487b7100000000000000000000000000000000000000000000000000000000\n        /* \"#utility.yul\":10026:10027   */\n      0x00\n        /* \"#utility.yul\":10019:10107   */\n      mstore\n        /* \"#utility.yul\":10126:10130   */\n      0x11\n        /* \"#utility.yul\":10123:10124   */\n      0x04\n        /* \"#utility.yul\":10116:10131   */\n      mstore\n        /* \"#utility.yul\":10150:10154   */\n      0x24\n        /* \"#utility.yul\":10147:10148   */\n      0x00\n        /* \"#utility.yul\":10140:10155   */\n      revert\n        /* \"#utility.yul\":10167:10400   */\n    tag_94:\n        /* \"#utility.yul\":10206:10209   */\n      0x00\n        /* \"#utility.yul\":10229:10253   */\n      tag_349\n        /* \"#utility.yul\":10247:10252   */\n      dup3\n        /* \"#utility.yul\":10229:10253   */\n      tag_180\n      jump\t// in\n    tag_349:\n        /* \"#utility.yul\":10220:10253   */\n      swap2\n      pop\n        /* \"#utility.yul\":10275:10341   */\n      0xffffffffffffffffffffffffffffffffffffffffffffffffffffffffffffffff\n        /* \"#utility.yul\":10268:10273   */\n      dup3\n        /* \"#utility.yul\":10265:10342   */\n      sub\n        /* \"#utility.yul\":10262:10365   */\n      tag_350\n      jumpi\n        /* \"#utility.yul\":10345:10363   */\n      tag_351\n      tag_199\n      jump\t// in\n    tag_351:\n        /* \"#utility.yul\":10262:10365   */\n    tag_350:\n        /* \"#utility.yul\":10392:10393   */\n      0x01\n        /* \"#utility.yul\":10385:10390   */\n      dup3\n        /* \"#utility.yul\":10381:10394   */\n      add\n        /* \"#utility.yul\":10374:10394   */\n      swap1\n      pop\n        /* \"#utility.yul\":10167:10400   */\n      swap2\n      swap1\n      pop\n      jump\t// out\n        /* \"#utility.yul\":10406:10597   */\n    tag_96:\n        /* \"#utility.yul\":10446:10449   */\n      0x00\n        /* \"#utility.yul\":10465:10485   */\n      tag_353\n        /* \"#utility.yul\":10483:10484   */\n      dup3\n        /* \"#utility.yul\":10465:10485   */\n      tag_180\n      jump\t// in\n    tag_353:\n        /* \"#utility.yul\":10460:10485   */\n      swap2\n      pop\n        /* \"#utility.yul\":10499:10519   */\n      tag_354\n        /* \"#utility.yul\":10517:10518   */\n      dup4\n        /* \"#utility.yul\":10499:10519   */\n      tag_180\n      jump\t// in\n    tag_354:\n        /* \"#utility.yul\":10494:10519   */\n      swap3\n      pop\n        /* \"#utility.yul\":10542:10543   */\n      dup3\n        /* \"#utility.yul\":10539:10540   */\n      dup3\n        /* \"#utility.yul\":10535:10544   */\n      add\n        /* \"#utility.yul\":10528:10544   */\n      swap1\n      pop\n        /* \"#utility.yul\":10563:10566   */\n      dup1\n        /* \"#utility.yul\":10560:10561   */\n      dup3\n        /* \"#utility.yul\":10557:10567   */\n      gt\n        /* \"#utility.yul\":10554:10590   */\n      iszero\n      tag_355\n      jumpi\n        /* \"#utility.yul\":10570:10588   */\n      tag_356\n      tag_199\n      jump\t// in\n    tag_356:\n        /* \"#utility.yul\":10554:10590   */\n    tag_355:\n        /* \"#utility.yul\":10406:10597   */\n      swap3\n      swap2\n      pop\n      pop\n      jump\t// out\n        /* \"#utility.yul\":10603:10935   */\n    tag_99:\n        /* \"#utility.yul\":10724:10728   */\n      0x00\n        /* \"#utility.yul\":10762:10764   */\n      0x40\n        /* \"#utility.yul\":10751:10760   */\n      dup3\n        /* \"#utility.yul\":10747:10765   */\n      add\n        /* \"#utility.yul\":10739:10765   */\n      swap1\n      pop\n        /* \"#utility.yul\":10775:10846   */\n      tag_358\n        /* \"#utility.yul\":10843:10844   */\n      0x00\n        /* \"#utility.yul\":10832:10841   */\n      dup4\n        /* \"#utility.yul\":10828:10845   */\n      add\n        /* \"#utility.yul\":10819:10825   */\n      dup6\n        /* \"#utility.yul\":10775:10846   */\n      tag_187\n      jump\t// in\n    tag_358:\n        /* \"#utility.yul\":10856:10928   */\n      tag_359\n        /* \"#utility.yul\":10924:10926   */\n      0x20\n        /* \"#utility.yul\":10913:10922   */\n      dup4\n        /* \"#utility.yul\":10909:10927   */\n      add\n        /* \"#utility.yul\":10900:10906   */\n      dup5\n        /* \"#utility.yul\":10856:10928   */\n      tag_186\n      jump\t// in\n    tag_359:\n        /* \"#utility.yul\":10603:10935   */\n      swap4\n      swap3\n      pop\n      pop\n      pop\n      jump\t// out\n        /* \"#utility.yul\":10941:11163   */\n    tag_200:\n        /* \"#utility.yul\":11081:11115   */\n      0x4f6e6c79206d616e616765722063616e2063616c6c20746869732066756e6374\n        /* \"#utility.yul\":11077:11078   */\n      0x00\n        /* \"#utility.yul\":11069:11075   */\n      dup3\n        /* \"#utility.yul\":11065:11079   */\n      add\n        /* \"#utility.yul\":11058:11116   */\n      mstore\n        /* \"#utility.yul\":11150:11155   */\n      0x696f6e0000000000000000000000000000000000000000000000000000000000\n        /* \"#utility.yul\":11145:11147   */\n      0x20\n        /* \"#utility.yul\":11137:11143   */\n      dup3\n        /* \"#utility.yul\":11133:11148   */\n      add\n        /* \"#utility.yul\":11126:11156   */\n      mstore\n        /* \"#utility.yul\":10941:11163   */\n      pop\n      jump\t// out\n        /* \"#utility.yul\":11169:11535   */\n    tag_201:\n        /* \"#utility.yul\":11311:11314   */\n      0x00\n        /* \"#utility.yul\":11332:11399   */\n      tag_362\n        /* \"#utility.yul\":11396:11398   */\n      0x23\n        /* \"#utility.yul\":11391:11394   */\n      dup4\n        /* \"#utility.yul\":11332:11399   */\n      tag_189\n      jump\t// in\n    tag_362:\n        /* \"#utility.yul\":11325:11399   */\n      swap2\n      pop\n        /* \"#utility.yul\":11408:11501   */\n      tag_363\n        /* \"#utility.yul\":11497:11500   */\n      dup3\n        /* \"#utility.yul\":11408:11501   */\n      tag_200\n      jump\t// in\n    tag_363:\n        /* \"#utility.yul\":11526:11528   */\n      0x40\n        /* \"#utility.yul\":11521:11524   */\n      dup3\n        /* \"#utility.yul\":11517:11529   */\n      add\n        /* \"#utility.yul\":11510:11529   */\n      swap1\n      pop\n        /* \"#utility.yul\":11169:11535   */\n      swap2\n      swap1\n      pop\n      jump\t// out\n        /* \"#utility.yul\":11541:11960   */\n    tag_103:\n        /* \"#utility.yul\":11707:11711   */\n      0x00\n        /* \"#utility.yul\":11745:11747   */\n      0x20\n        /* \"#utility.yul\":11734:11743   */\n      dup3\n        /* \"#utility.yul\":11730:11748   */\n      add\n        /* \"#utility.yul\":11722:11748   */\n      swap1\n      pop\n        /* \"#utility.yul\":11794:11803   */\n      dup2\n        /* \"#utility.yul\":11788:11792   */\n      dup2\n        /* \"#utility.yul\":11784:11804   */\n      sub\n        /* \"#utility.yul\":11780:11781   */\n      0x00\n        /* \"#utility.yul\":11769:11778   */\n      dup4\n        /* \"#utility.yul\":11765:11782   */\n      add\n        /* \"#utility.yul\":11758:11805   */\n      mstore\n        /* \"#utility.yul\":11822:11953   */\n      tag_365\n        /* \"#utility.yul\":11948:11952   */\n      dup2\n        /* \"#utility.yul\":11822:11953   */\n      tag_201\n      jump\t// in\n    tag_365:\n        /* \"#utility.yul\":11814:11953   */\n      swap1\n      pop\n        /* \"#utility.yul\":11541:11960   */\n      swap2\n      swap1\n      pop\n      jump\t// out\n        /* \"#utility.yul\":11966:12146   */\n    tag_202:\n        /* \"#utility.yul\":12014:12091   */\n      0x4e487b7100000000000000000000000000000000000000000000000000000000\n        /* \"#utility.yul\":12011:12012   */\n      0x00\n        /* \"#utility.yul\":12004:12092   */\n      mstore\n        /* \"#utility.yul\":12111:12115   */\n      0x22\n        /* \"#utility.yul\":12108:12109   */\n      0x04\n        /* \"#utility.yul\":12101:12116   */\n      mstore\n        /* \"#utility.yul\":12135:12139   */\n      0x24\n        /* \"#utility.yul\":12132:12133   */\n      0x00\n        /* \"#utility.yul\":12125:12140   */\n      revert\n        /* \"#utility.yul\":12152:12472   */\n    tag_158:\n        /* \"#utility.yul\":12196:12202   */\n      0x00\n        /* \"#utility.yul\":12233:12234   */\n      0x02\n        /* \"#utility.yul\":12227:12231   */\n      dup3\n        /* \"#utility.yul\":12223:12235   */\n      div\n        /* \"#utility.yul\":12213:12235   */\n      swap1\n      pop\n        /* \"#utility.yul\":12280:12281   */\n      0x01\n        /* \"#utility.yul\":12274:12278   */\n      dup3\n        /* \"#utility.yul\":12270:12282   */\n      and\n        /* \"#utility.yul\":12301:12319   */\n      dup1\n        /* \"#utility.yul\":12291:12372   */\n      tag_368\n      jumpi\n        /* \"#utility.yul\":12357:12361   */\n      0x7f\n        /* \"#utility.yul\":12349:12355   */\n      dup3\n        /* \"#utility.yul\":12345:12362   */\n      and\n        /* \"#utility.yul\":12335:12362   */\n      swap2\n      pop\n        /* \"#utility.yul\":12291:12372   */\n    tag_368:\n        /* \"#utility.yul\":12419:12421   */\n      0x20\n        /* \"#utility.yul\":12411:12417   */\n      dup3\n        /* \"#utility.yul\":12408:12422   */\n      lt\n        /* \"#utility.yul\":12388:12406   */\n      dup2\n        /* \"#utility.yul\":12385:12423   */\n      sub\n        /* \"#utility.yul\":12382:12466   */\n      tag_369\n      jumpi\n        /* \"#utility.yul\":12438:12456   */\n      tag_370\n      tag_202\n      jump\t// in\n    tag_370:\n        /* \"#utility.yul\":12382:12466   */\n    tag_369:\n        /* \"#utility.yul\":12203:12472   */\n      pop\n        /* \"#utility.yul\":12152:12472   */\n      swap2\n      swap1\n      pop\n      jump\t// out\n        /* \"#utility.yul\":12478:12619   */\n    tag_203:\n        /* \"#utility.yul\":12527:12531   */\n      0x00\n        /* \"#utility.yul\":12550:12553   */\n      dup2\n        /* \"#utility.yul\":12542:12553   */\n      swap1\n      pop\n        /* \"#utility.yul\":12573:12576   */\n      dup2\n        /* \"#utility.yul\":12570:12571   */\n      0x00\n        /* \"#utility.yul\":12563:12577   */\n      mstore\n        /* \"#utility.yul\":12607:12611   */\n      0x20\n        /* \"#utility.yul\":12604:12605   */\n      0x00\n        /* \"#utility.yul\":12594:12612   */\n      keccak256\n        /* \"#utility.yul\":12586:12612   */\n      swap1\n      pop\n        /* \"#utility.yul\":12478:12619   */\n      swap2\n      swap1\n      pop\n      jump\t// out\n        /* \"#utility.yul\":12625:12718   */\n    tag_204:\n        /* \"#utility.yul\":12662:12668   */\n      0x00\n        /* \"#utility.yul\":12709:12711   */\n      0x20\n        /* \"#utility.yul\":12704:12706   */\n      0x1f\n        /* \"#utility.yul\":12697:12702   */\n      dup4\n        /* \"#utility.yul\":12693:12707   */\n      add\n        /* \"#utility.yul\":12689:12712   */\n      div\n        /* \"#utility.yul\":12679:12712   */\n      swap1\n      pop\n        /* \"#utility.yul\":12625:12718   */\n      swap2\n      swap1\n      pop\n      jump\t// out\n        /* \"#utility.yul\":12724:12831   */\n    tag_205:\n        /* \"#utility.yul\":12768:12776   */\n      0x00\n        /* \"#utility.yul\":12818:12823   */\n      dup3\n        /* \"#utility.yul\":12812:12816   */\n      dup3\n        /* \"#utility.yul\":12808:12824   */\n      shl\n        /* \"#utility.yul\":12787:12824   */\n      swap1\n      pop\n        /* \"#utility.yul\":12724:12831   */\n      swap3\n      swap2\n      pop\n      pop\n      jump\t// out\n        /* \"#utility.yul\":12837:13230   */\n    tag_206:\n        /* \"#utility.yul\":12906:12912   */\n      0x00\n        /* \"#utility.yul\":12956:12957   */\n      0x08\n        /* \"#utility.yul\":12944:12954   */\n      dup4\n        /* \"#utility.yul\":12940:12958   */\n      mul\n        /* \"#utility.yul\":12979:13076   */\n      tag_375\n        /* \"#utility.yul\":13009:13075   */\n      0xffffffffffffffffffffffffffffffffffffffffffffffffffffffffffffffff\n        /* \"#utility.yul\":12998:13007   */\n      dup3\n        /* \"#utility.yul\":12979:13076   */\n      tag_205\n      jump\t// in\n    tag_375:\n        /* \"#utility.yul\":13097:13136   */\n      tag_376\n        /* \"#utility.yul\":13127:13135   */\n      dup7\n        /* \"#utility.yul\":13116:13125   */\n      dup4\n        /* \"#utility.yul\":13097:13136   */\n      tag_205\n      jump\t// in\n    tag_376:\n        /* \"#utility.yul\":13085:13136   */\n      swap6\n      pop\n        /* \"#utility.yul\":13169:13173   */\n      dup1\n        /* \"#utility.yul\":13165:13174   */\n      not\n        /* \"#utility.yul\":13158:13163   */\n      dup5\n        /* \"#utility.yul\":13154:13175   */\n      and\n        /* \"#utility.yul\":13145:13175   */\n      swap4\n      pop\n        /* \"#utility.yul\":13218:13222   */\n      dup1\n        /* \"#utility.yul\":13208:13216   */\n      dup7\n        /* \"#utility.yul\":13204:13223   */\n      and\n        /* \"#utility.yul\":13197:13202   */\n      dup5\n        /* \"#utility.yul\":13194:13224   */\n      or\n        /* \"#utility.yul\":13184:13224   */\n      swap3\n      pop\n        /* \"#utility.yul\":12913:13230   */\n      pop\n      pop\n        /* \"#utility.yul\":12837:13230   */\n      swap4\n      swap3\n      pop\n      pop\n      pop\n      jump\t// out\n        /* \"#utility.yul\":13236:13296   */\n    tag_207:\n        /* \"#utility.yul\":13264:13267   */\n      0x00\n        /* \"#utility.yul\":13285:13290   */\n      dup2\n        /* \"#utility.yul\":13278:13290   */\n      swap1\n      pop\n        /* \"#utility.yul\":13236:13296   */\n      swap2\n      swap1\n      pop\n      jump\t// out\n        /* \"#utility.yul\":13302:13444   */\n    tag_208:\n        /* \"#utility.yul\":13352:13361   */\n      0x00\n        /* \"#utility.yul\":13385:13438   */\n      tag_379\n        /* \"#utility.yul\":13403:13437   */\n      tag_380\n        /* \"#utility.yul\":13412:13436   */\n      tag_381\n        /* \"#utility.yul\":13430:13435   */\n      dup5\n        /* \"#utility.yul\":13412:13436   */\n      tag_180\n      jump\t// in\n    tag_381:\n        /* \"#utility.yul\":13403:13437   */\n      tag_207\n      jump\t// in\n    tag_380:\n        /* \"#utility.yul\":13385:13438   */\n      tag_180\n      jump\t// in\n    tag_379:\n        /* \"#utility.yul\":13372:13438   */\n      swap1\n      pop\n        /* \"#utility.yul\":13302:13444   */\n      swap2\n      swap1\n      pop\n      jump\t// out\n        /* \"#utility.yul\":13450:13525   */\n    tag_209:\n        /* \"#utility.yul\":13493:13496   */\n      0x00\n        /* \"#utility.yul\":13514:13519   */\n      dup2\n        /* \"#utility.yul\":13507:13519   */\n      swap1\n      pop\n        /* \"#utility.yul\":13450:13525   */\n      swap2\n      swap1\n      pop\n      jump\t// out\n        /* \"#utility.yul\":13531:13800   */\n    tag_210:\n        /* \"#utility.yul\":13641:13680   */\n      tag_384\n        /* \"#utility.yul\":13672:13679   */\n      dup4\n        /* \"#utility.yul\":13641:13680   */\n      tag_208\n      jump\t// in\n    tag_384:\n        /* \"#utility.yul\":13702:13793   */\n      tag_385\n        /* \"#utility.yul\":13751:13792   */\n      tag_386\n        /* \"#utility.yul\":13775:13791   */\n      dup3\n        /* \"#utility.yul\":13751:13792   */\n      tag_209\n      jump\t// in\n    tag_386:\n        /* \"#utility.yul\":13743:13749   */\n      dup5\n        /* \"#utility.yul\":13736:13740   */\n      dup5\n        /* \"#utility.yul\":13730:13741   */\n      sload\n        /* \"#utility.yul\":13702:13793   */\n      tag_206\n      jump\t// in\n    tag_385:\n        /* \"#utility.yul\":13696:13700   */\n      dup3\n        /* \"#utility.yul\":13689:13794   */\n      sstore\n        /* \"#utility.yul\":13607:13800   */\n      pop\n        /* \"#utility.yul\":13531:13800   */\n      pop\n      pop\n      pop\n      jump\t// out\n        /* \"#utility.yul\":13806:13879   */\n    tag_211:\n        /* \"#utility.yul\":13851:13854   */\n      0x00\n        /* \"#utility.yul\":13806:13879   */\n      swap1\n      jump\t// out\n        /* \"#utility.yul\":13885:14074   */\n    tag_212:\n        /* \"#utility.yul\":13962:13994   */\n      tag_389\n      tag_211\n      jump\t// in\n    tag_389:\n        /* \"#utility.yul\":14003:14068   */\n      tag_390\n        /* \"#utility.yul\":14061:14067   */\n      dup2\n        /* \"#utility.yul\":14053:14059   */\n      dup5\n        /* \"#utility.yul\":14047:14051   */\n      dup5\n        /* \"#utility.yul\":14003:14068   */\n      tag_210\n      jump\t// in\n    tag_390:\n        /* \"#utility.yul\":13938:14074   */\n      pop\n        /* \"#utility.yul\":13885:14074   */\n      pop\n      pop\n      jump\t// out\n        /* \"#utility.yul\":14080:14266   */\n    tag_213:\n        /* \"#utility.yul\":14140:14260   */\n    tag_392:\n        /* \"#utility.yul\":14157:14160   */\n      dup2\n        /* \"#utility.yul\":14150:14155   */\n      dup2\n        /* \"#utility.yul\":14147:14161   */\n      lt\n        /* \"#utility.yul\":14140:14260   */\n      iszero\n      tag_394\n      jumpi\n        /* \"#utility.yul\":14211:14250   */\n      tag_395\n        /* \"#utility.yul\":14248:14249   */\n      0x00\n        /* \"#utility.yul\":14241:14246   */\n      dup3\n        /* \"#utility.yul\":14211:14250   */\n      tag_212\n      jump\t// in\n    tag_395:\n        /* \"#utility.yul\":14184:14185   */\n      0x01\n        /* \"#utility.yul\":14177:14182   */\n      dup2\n        /* \"#utility.yul\":14173:14186   */\n      add\n        /* \"#utility.yul\":14164:14186   */\n      swap1\n      pop\n        /* \"#utility.yul\":14140:14260   */\n      jump(tag_392)\n    tag_394:\n        /* \"#utility.yul\":14080:14266   */\n      pop\n      pop\n      jump\t// out\n        /* \"#utility.yul\":14272:14815   */\n    tag_214:\n        /* \"#utility.yul\":14373:14375   */\n      0x1f\n        /* \"#utility.yul\":14368:14371   */\n      dup3\n        /* \"#utility.yul\":14365:14376   */\n      gt\n        /* \"#utility.yul\":14362:14808   */\n      iszero\n      tag_397\n      jumpi\n        /* \"#utility.yul\":14407:14445   */\n      tag_398\n        /* \"#utility.yul\":14439:14444   */\n      dup2\n        /* \"#utility.yul\":14407:14445   */\n      tag_203\n      jump\t// in\n    tag_398:\n        /* \"#utility.yul\":14491:14520   */\n      tag_399\n        /* \"#utility.yul\":14509:14519   */\n      dup5\n        /* \"#utility.yul\":14491:14520   */\n      tag_204\n      jump\t// in\n    tag_399:\n        /* \"#utility.yul\":14481:14489   */\n      dup2\n        /* \"#utility.yul\":14477:14521   */\n      add\n        /* \"#utility.yul\":14674:14676   */\n      0x20\n        /* \"#utility.yul\":14662:14672   */\n      dup6\n        /* \"#utility.yul\":14659:14677   */\n      lt\n        /* \"#utility.yul\":14656:14705   */\n      iszero\n      tag_400\n      jumpi\n        /* \"#utility.yul\":14695:14703   */\n      dup2\n        /* \"#utility.yul\":14680:14703   */\n      swap1\n      pop\n        /* \"#utility.yul\":14656:14705   */\n    tag_400:\n        /* \"#utility.yul\":14718:14798   */\n      tag_401\n        /* \"#utility.yul\":14774:14796   */\n      tag_402\n        /* \"#utility.yul\":14792:14795   */\n      dup6\n        /* \"#utility.yul\":14774:14796   */\n      tag_204\n      jump\t// in\n    tag_402:\n        /* \"#utility.yul\":14764:14772   */\n      dup4\n        /* \"#utility.yul\":14760:14797   */\n      add\n        /* \"#utility.yul\":14747:14758   */\n      dup3\n        /* \"#utility.yul\":14718:14798   */\n      tag_213\n      jump\t// in\n    tag_401:\n        /* \"#utility.yul\":14377:14808   */\n      pop\n      pop\n        /* \"#utility.yul\":14362:14808   */\n    tag_397:\n        /* \"#utility.yul\":14272:14815   */\n      pop\n      pop\n      pop\n      jump\t// out\n        /* \"#utility.yul\":14821:14938   */\n    tag_215:\n        /* \"#utility.yul\":14875:14883   */\n      0x00\n        /* \"#utility.yul\":14925:14930   */\n      dup3\n        /* \"#utility.yul\":14919:14923   */\n      dup3\n        /* \"#utility.yul\":14915:14931   */\n      shr\n        /* \"#utility.yul\":14894:14931   */\n      swap1\n      pop\n        /* \"#utility.yul\":14821:14938   */\n      swap3\n      swap2\n      pop\n      pop\n      jump\t// out\n        /* \"#utility.yul\":14944:15113   */\n    tag_216:\n        /* \"#utility.yul\":14988:14994   */\n      0x00\n        /* \"#utility.yul\":15021:15072   */\n      tag_405\n        /* \"#utility.yul\":15069:15070   */\n      0x00\n        /* \"#utility.yul\":15065:15071   */\n      not\n        /* \"#utility.yul\":15057:15062   */\n      dup5\n        /* \"#utility.yul\":15054:15055   */\n      0x08\n        /* \"#utility.yul\":15050:15063   */\n      mul\n        /* \"#utility.yul\":15021:15072   */\n      tag_215\n      jump\t// in\n    tag_405:\n        /* \"#utility.yul\":15017:15073   */\n      not\n        /* \"#utility.yul\":15102:15106   */\n      dup1\n        /* \"#utility.yul\":15096:15100   */\n      dup4\n        /* \"#utility.yul\":15092:15107   */\n      and\n        /* \"#utility.yul\":15082:15107   */\n      swap2\n      pop\n        /* \"#utility.yul\":14995:15113   */\n      pop\n        /* \"#utility.yul\":14944:15113   */\n      swap3\n      swap2\n      pop\n      pop\n      jump\t// out\n        /* \"#utility.yul\":15118:15413   */\n    tag_217:\n        /* \"#utility.yul\":15194:15198   */\n      0x00\n        /* \"#utility.yul\":15340:15369   */\n      tag_407\n        /* \"#utility.yul\":15365:15368   */\n      dup4\n        /* \"#utility.yul\":15359:15363   */\n      dup4\n        /* \"#utility.yul\":15340:15369   */\n      tag_216\n      jump\t// in\n    tag_407:\n        /* \"#utility.yul\":15332:15369   */\n      swap2\n      pop\n        /* \"#utility.yul\":15402:15405   */\n      dup3\n        /* \"#utility.yul\":15399:15400   */\n      0x02\n        /* \"#utility.yul\":15395:15406   */\n      mul\n        /* \"#utility.yul\":15389:15393   */\n      dup3\n        /* \"#utility.yul\":15386:15407   */\n      or\n        /* \"#utility.yul\":15378:15407   */\n      swap1\n      pop\n        /* \"#utility.yul\":15118:15413   */\n      swap3\n      swap2\n      pop\n      pop\n      jump\t// out\n        /* \"#utility.yul\":15418:16813   */\n    tag_107:\n        /* \"#utility.yul\":15535:15572   */\n      tag_409\n        /* \"#utility.yul\":15568:15571   */\n      dup3\n        /* \"#utility.yul\":15535:15572   */\n      tag_188\n      jump\t// in\n    tag_409:\n        /* \"#utility.yul\":15637:15655   */\n      0xffffffffffffffff\n        /* \"#utility.yul\":15629:15635   */\n      dup2\n        /* \"#utility.yul\":15626:15656   */\n      gt\n        /* \"#utility.yul\":15623:15679   */\n      iszero\n      tag_410\n      jumpi\n        /* \"#utility.yul\":15659:15677   */\n      tag_411\n      tag_169\n      jump\t// in\n    tag_411:\n        /* \"#utility.yul\":15623:15679   */\n    tag_410:\n        /* \"#utility.yul\":15703:15741   */\n      tag_412\n        /* \"#utility.yul\":15735:15739   */\n      dup3\n        /* \"#utility.yul\":15729:15740   */\n      sload\n        /* \"#utility.yul\":15703:15741   */\n      tag_158\n      jump\t// in\n    tag_412:\n        /* \"#utility.yul\":15788:15855   */\n      tag_413\n        /* \"#utility.yul\":15848:15854   */\n      dup3\n        /* \"#utility.yul\":15840:15846   */\n      dup3\n        /* \"#utility.yul\":15834:15838   */\n      dup6\n        /* \"#utility.yul\":15788:15855   */\n      tag_214\n      jump\t// in\n    tag_413:\n        /* \"#utility.yul\":15882:15883   */\n      0x00\n        /* \"#utility.yul\":15906:15910   */\n      0x20\n        /* \"#utility.yul\":15893:15910   */\n      swap1\n      pop\n        /* \"#utility.yul\":15938:15940   */\n      0x1f\n        /* \"#utility.yul\":15930:15936   */\n      dup4\n        /* \"#utility.yul\":15927:15941   */\n      gt\n        /* \"#utility.yul\":15955:15956   */\n      0x01\n        /* \"#utility.yul\":15950:16568   */\n      dup2\n      eq\n      tag_415\n      jumpi\n        /* \"#utility.yul\":16612:16613   */\n      0x00\n        /* \"#utility.yul\":16629:16635   */\n      dup5\n        /* \"#utility.yul\":16626:16703   */\n      iszero\n      tag_416\n      jumpi\n        /* \"#utility.yul\":16678:16687   */\n      dup3\n        /* \"#utility.yul\":16673:16676   */\n      dup8\n        /* \"#utility.yul\":16669:16688   */\n      add\n        /* \"#utility.yul\":16663:16689   */\n      mload\n        /* \"#utility.yul\":16654:16689   */\n      swap1\n      pop\n        /* \"#utility.yul\":16626:16703   */\n    tag_416:\n        /* \"#utility.yul\":16729:16796   */\n      tag_417\n        /* \"#utility.yul\":16789:16795   */\n      dup6\n        /* \"#utility.yul\":16782:16787   */\n      dup3\n        /* \"#utility.yul\":16729:16796   */\n      tag_217\n      jump\t// in\n    tag_417:\n        /* \"#utility.yul\":16723:16727   */\n      dup7\n        /* \"#utility.yul\":16716:16797   */\n      sstore\n        /* \"#utility.yul\":16585:16807   */\n      pop\n        /* \"#utility.yul\":15920:16807   */\n      jump(tag_414)\n        /* \"#utility.yul\":15950:16568   */\n    tag_415:\n        /* \"#utility.yul\":16002:16006   */\n      0x1f\n        /* \"#utility.yul\":15998:16007   */\n      not\n        /* \"#utility.yul\":15990:15996   */\n      dup5\n        /* \"#utility.yul\":15986:16008   */\n      and\n        /* \"#utility.yul\":16036:16073   */\n      tag_418\n        /* \"#utility.yul\":16068:16072   */\n      dup7\n        /* \"#utility.yul\":16036:16073   */\n      tag_203\n      jump\t// in\n    tag_418:\n        /* \"#utility.yul\":16095:16096   */\n      0x00\n        /* \"#utility.yul\":16109:16317   */\n    tag_419:\n        /* \"#utility.yul\":16123:16130   */\n      dup3\n        /* \"#utility.yul\":16120:16121   */\n      dup2\n        /* \"#utility.yul\":16117:16131   */\n      lt\n        /* \"#utility.yul\":16109:16317   */\n      iszero\n      tag_421\n      jumpi\n        /* \"#utility.yul\":16202:16211   */\n      dup5\n        /* \"#utility.yul\":16197:16200   */\n      dup10\n        /* \"#utility.yul\":16193:16212   */\n      add\n        /* \"#utility.yul\":16187:16213   */\n      mload\n        /* \"#utility.yul\":16179:16185   */\n      dup3\n        /* \"#utility.yul\":16172:16214   */\n      sstore\n        /* \"#utility.yul\":16253:16254   */\n      0x01\n        /* \"#utility.yul\":16245:16251   */\n      dup3\n        /* \"#utility.yul\":16241:16255   */\n      add\n        /* \"#utility.yul\":16231:16255   */\n      swap2\n      pop\n        /* \"#utility.yul\":16300:16302   */\n      0x20\n        /* \"#utility.yul\":16289:16298   */\n      dup6\n        /* \"#utility.yul\":16285:16303   */\n      add\n        /* \"#utility.yul\":16272:16303   */\n      swap5\n      pop\n        /* \"#utility.yul\":16146:16150   */\n      0x20\n        /* \"#utility.yul\":16143:16144   */\n      dup2\n        /* \"#utility.yul\":16139:16151   */\n      add\n        /* \"#utility.yul\":16134:16151   */\n      swap1\n      pop\n        /* \"#utility.yul\":16109:16317   */\n      jump(tag_419)\n    tag_421:\n        /* \"#utility.yul\":16345:16351   */\n      dup7\n        /* \"#utility.yul\":16336:16343   */\n      dup4\n        /* \"#utility.yul\":16333:16352   */\n      lt\n        /* \"#utility.yul\":16330:16509   */\n      iszero\n      tag_422\n      jumpi\n        /* \"#utility.yul\":16403:16412   */\n      dup5\n        /* \"#utility.yul\":16398:16401   */\n      dup10\n        /* \"#utility.yul\":16394:16413   */\n      add\n        /* \"#utility.yul\":16388:16414   */\n      mload\n        /* \"#utility.yul\":16446:16494   */\n      tag_423\n        /* \"#utility.yul\":16488:16492   */\n      0x1f\n        /* \"#utility.yul\":16480:16486   */\n      dup10\n        /* \"#utility.yul\":16476:16493   */\n      and\n        /* \"#utility.yul\":16465:16474   */\n      dup3\n        /* \"#utility.yul\":16446:16494   */\n      tag_216\n      jump\t// in\n    tag_423:\n        /* \"#utility.yul\":16438:16444   */\n      dup4\n        /* \"#utility.yul\":16431:16495   */\n      sstore\n        /* \"#utility.yul\":16353:16509   */\n      pop\n        /* \"#utility.yul\":16330:16509   */\n    tag_422:\n        /* \"#utility.yul\":16555:16556   */\n      0x01\n        /* \"#utility.yul\":16551:16552   */\n      0x02\n        /* \"#utility.yul\":16543:16549   */\n      dup9\n        /* \"#utility.yul\":16539:16553   */\n      mul\n        /* \"#utility.yul\":16535:16557   */\n      add\n        /* \"#utility.yul\":16529:16533   */\n      dup9\n        /* \"#utility.yul\":16522:16558   */\n      sstore\n        /* \"#utility.yul\":15957:16568   */\n      pop\n      pop\n      pop\n        /* \"#utility.yul\":15920:16807   */\n    tag_414:\n      pop\n        /* \"#utility.yul\":15510:16813   */\n      pop\n      pop\n      pop\n        /* \"#utility.yul\":15418:16813   */\n      pop\n      pop\n      jump\t// out\n        /* \"#utility.yul\":16819:16961   */\n    tag_218:\n        /* \"#utility.yul\":16869:16878   */\n      0x00\n        /* \"#utility.yul\":16902:16955   */\n      tag_425\n        /* \"#utility.yul\":16920:16954   */\n      tag_426\n        /* \"#utility.yul\":16929:16953   */\n      tag_427\n        /* \"#utility.yul\":16947:16952   */\n      dup5\n        /* \"#utility.yul\":16929:16953   */\n      tag_176\n      jump\t// in\n    tag_427:\n        /* \"#utility.yul\":16920:16954   */\n      tag_207\n      jump\t// in\n    tag_426:\n        /* \"#utility.yul\":16902:16955   */\n      tag_176\n      jump\t// in\n    tag_425:\n        /* \"#utility.yul\":16889:16955   */\n      swap1\n      pop\n        /* \"#utility.yul\":16819:16961   */\n      swap2\n      swap1\n      pop\n      jump\t// out\n        /* \"#utility.yul\":16967:17093   */\n    tag_219:\n        /* \"#utility.yul\":17017:17026   */\n      0x00\n        /* \"#utility.yul\":17050:17087   */\n      tag_429\n        /* \"#utility.yul\":17081:17086   */\n      dup3\n        /* \"#utility.yul\":17050:17087   */\n      tag_218\n      jump\t// in\n    tag_429:\n        /* \"#utility.yul\":17037:17087   */\n      swap1\n      pop\n        /* \"#utility.yul\":16967:17093   */\n      swap2\n      swap1\n      pop\n      jump\t// out\n        /* \"#utility.yul\":17099:17233   */\n    tag_220:\n        /* \"#utility.yul\":17157:17166   */\n      0x00\n        /* \"#utility.yul\":17190:17227   */\n      tag_431\n        /* \"#utility.yul\":17221:17226   */\n      dup3\n        /* \"#utility.yul\":17190:17227   */\n      tag_219\n      jump\t// in\n    tag_431:\n        /* \"#utility.yul\":17177:17227   */\n      swap1\n      pop\n        /* \"#utility.yul\":17099:17233   */\n      swap2\n      swap1\n      pop\n      jump\t// out\n        /* \"#utility.yul\":17239:17386   */\n    tag_221:\n        /* \"#utility.yul\":17334:17379   */\n      tag_433\n        /* \"#utility.yul\":17373:17378   */\n      dup2\n        /* \"#utility.yul\":17334:17379   */\n      tag_220\n      jump\t// in\n    tag_433:\n        /* \"#utility.yul\":17329:17332   */\n      dup3\n        /* \"#utility.yul\":17322:17380   */\n      mstore\n        /* \"#utility.yul\":17239:17386   */\n      pop\n      pop\n      jump\t// out\n        /* \"#utility.yul\":17392:17941   */\n    tag_109:\n        /* \"#utility.yul\":17569:17573   */\n      0x00\n        /* \"#utility.yul\":17607:17609   */\n      0x60\n        /* \"#utility.yul\":17596:17605   */\n      dup3\n        /* \"#utility.yul\":17592:17610   */\n      add\n        /* \"#utility.yul\":17584:17610   */\n      swap1\n      pop\n        /* \"#utility.yul\":17656:17665   */\n      dup2\n        /* \"#utility.yul\":17650:17654   */\n      dup2\n        /* \"#utility.yul\":17646:17666   */\n      sub\n        /* \"#utility.yul\":17642:17643   */\n      0x00\n        /* \"#utility.yul\":17631:17640   */\n      dup4\n        /* \"#utility.yul\":17627:17644   */\n      add\n        /* \"#utility.yul\":17620:17667   */\n      mstore\n        /* \"#utility.yul\":17684:17762   */\n      tag_435\n        /* \"#utility.yul\":17757:17761   */\n      dup2\n        /* \"#utility.yul\":17748:17754   */\n      dup7\n        /* \"#utility.yul\":17684:17762   */\n      tag_191\n      jump\t// in\n    tag_435:\n        /* \"#utility.yul\":17676:17762   */\n      swap1\n      pop\n        /* \"#utility.yul\":17772:17852   */\n      tag_436\n        /* \"#utility.yul\":17848:17850   */\n      0x20\n        /* \"#utility.yul\":17837:17846   */\n      dup4\n        /* \"#utility.yul\":17833:17851   */\n      add\n        /* \"#utility.yul\":17824:17830   */\n      dup6\n        /* \"#utility.yul\":17772:17852   */\n      tag_221\n      jump\t// in\n    tag_436:\n        /* \"#utility.yul\":17862:17934   */\n      tag_437\n        /* \"#utility.yul\":17930:17932   */\n      0x40\n        /* \"#utility.yul\":17919:17928   */\n      dup4\n        /* \"#utility.yul\":17915:17933   */\n      add\n        /* \"#utility.yul\":17906:17912   */\n      dup5\n        /* \"#utility.yul\":17862:17934   */\n      tag_186\n      jump\t// in\n    tag_437:\n        /* \"#utility.yul\":17392:17941   */\n      swap5\n      swap4\n      pop\n      pop\n      pop\n      pop\n      jump\t// out\n        /* \"#utility.yul\":17947:18119   */\n    tag_222:\n        /* \"#utility.yul\":18087:18111   */\n      0x5265717565737420646f6573206e6f7420657869737400000000000000000000\n        /* \"#utility.yul\":18083:18084   */\n      0x00\n        /* \"#utility.yul\":18075:18081   */\n      dup3\n        /* \"#utility.yul\":18071:18085   */\n      add\n        /* \"#utility.yul\":18064:18112   */\n      mstore\n        /* \"#utility.yul\":17947:18119   */\n      pop\n      jump\t// out\n        /* \"#utility.yul\":18125:18491   */\n    tag_223:\n        /* \"#utility.yul\":18267:18270   */\n      0x00\n        /* \"#utility.yul\":18288:18355   */\n      tag_440\n        /* \"#utility.yul\":18352:18354   */\n      0x16\n        /* \"#utility.yul\":18347:18350   */\n      dup4\n        /* \"#utility.yul\":18288:18355   */\n      tag_189\n      jump\t// in\n    tag_440:\n        /* \"#utility.yul\":18281:18355   */\n      swap2\n      pop\n        /* \"#utility.yul\":18364:18457   */\n      tag_441\n        /* \"#utility.yul\":18453:18456   */\n      dup3\n        /* \"#utility.yul\":18364:18457   */\n      tag_222\n      jump\t// in\n    tag_441:\n        /* \"#utility.yul\":18482:18484   */\n      0x20\n        /* \"#utility.yul\":18477:18480   */\n      dup3\n        /* \"#utility.yul\":18473:18485   */\n      add\n        /* \"#utility.yul\":18466:18485   */\n      swap1\n      pop\n        /* \"#utility.yul\":18125:18491   */\n      swap2\n      swap1\n      pop\n      jump\t// out\n        /* \"#utility.yul\":18497:18916   */\n    tag_113:\n        /* \"#utility.yul\":18663:18667   */\n      0x00\n        /* \"#utility.yul\":18701:18703   */\n      0x20\n        /* \"#utility.yul\":18690:18699   */\n      dup3\n        /* \"#utility.yul\":18686:18704   */\n      add\n        /* \"#utility.yul\":18678:18704   */\n      swap1\n      pop\n        /* \"#utility.yul\":18750:18759   */\n      dup2\n        /* \"#utility.yul\":18744:18748   */\n      dup2\n        /* \"#utility.yul\":18740:18760   */\n      sub\n        /* \"#utility.yul\":18736:18737   */\n      0x00\n        /* \"#utility.yul\":18725:18734   */\n      dup4\n        /* \"#utility.yul\":18721:18738   */\n      add\n        /* \"#utility.yul\":18714:18761   */\n      mstore\n        /* \"#utility.yul\":18778:18909   */\n      tag_443\n        /* \"#utility.yul\":18904:18908   */\n      dup2\n        /* \"#utility.yul\":18778:18909   */\n      tag_223\n      jump\t// in\n    tag_443:\n        /* \"#utility.yul\":18770:18909   */\n      swap1\n      pop\n        /* \"#utility.yul\":18497:18916   */\n      swap2\n      swap1\n      pop\n      jump\t// out\n        /* \"#utility.yul\":18922:19097   */\n    tag_224:\n        /* \"#utility.yul\":19062:19089   */\n      0x596f7520617265206e6f74206120636f6e7472696275746f7200000000000000\n        /* \"#utility.yul\":19058:19059   */\n      0x00\n        /* \"#utility.yul\":19050:19056   */\n      dup3\n        /* \"#utility.yul\":19046:19060   */\n      add\n        /* \"#utility.yul\":19039:19090   */\n      mstore\n        /* \"#utility.yul\":18922:19097   */\n      pop\n      jump\t// out\n        /* \"#utility.yul\":19103:19469   */\n    tag_225:\n        /* \"#utility.yul\":19245:19248   */\n      0x00\n        /* \"#utility.yul\":19266:19333   */\n      tag_446\n        /* \"#utility.yul\":19330:19332   */\n      0x19\n        /* \"#utility.yul\":19325:19328   */\n      dup4\n        /* \"#utility.yul\":19266:19333   */\n      tag_189\n      jump\t// in\n    tag_446:\n        /* \"#utility.yul\":19259:19333   */\n      swap2\n      pop\n        /* \"#utility.yul\":19342:19435   */\n      tag_447\n        /* \"#utility.yul\":19431:19434   */\n      dup3\n        /* \"#utility.yul\":19342:19435   */\n      tag_224\n      jump\t// in\n    tag_447:\n        /* \"#utility.yul\":19460:19462   */\n      0x20\n        /* \"#utility.yul\":19455:19458   */\n      dup3\n        /* \"#utility.yul\":19451:19463   */\n      add\n        /* \"#utility.yul\":19444:19463   */\n      swap1\n      pop\n        /* \"#utility.yul\":19103:19469   */\n      swap2\n      swap1\n      pop\n      jump\t// out\n        /* \"#utility.yul\":19475:19894   */\n    tag_116:\n        /* \"#utility.yul\":19641:19645   */\n      0x00\n        /* \"#utility.yul\":19679:19681   */\n      0x20\n        /* \"#utility.yul\":19668:19677   */\n      dup3\n        /* \"#utility.yul\":19664:19682   */\n      add\n        /* \"#utility.yul\":19656:19682   */\n      swap1\n      pop\n        /* \"#utility.yul\":19728:19737   */\n      dup2\n        /* \"#utility.yul\":19722:19726   */\n      dup2\n        /* \"#utility.yul\":19718:19738   */\n      sub\n        /* \"#utility.yul\":19714:19715   */\n      0x00\n        /* \"#utility.yul\":19703:19712   */\n      dup4\n        /* \"#utility.yul\":19699:19716   */\n      add\n        /* \"#utility.yul\":19692:19739   */\n      mstore\n        /* \"#utility.yul\":19756:19887   */\n      tag_449\n        /* \"#utility.yul\":19882:19886   */\n      dup2\n        /* \"#utility.yul\":19756:19887   */\n      tag_225\n      jump\t// in\n    tag_449:\n        /* \"#utility.yul\":19748:19887   */\n      swap1\n      pop\n        /* \"#utility.yul\":19475:19894   */\n      swap2\n      swap1\n      pop\n      jump\t// out\n        /* \"#utility.yul\":19900:20072   */\n    tag_226:\n        /* \"#utility.yul\":20040:20064   */\n      0x596f75206861766520616c726561647920766f74656400000000000000000000\n        /* \"#utility.yul\":20036:20037   */\n      0x00\n        /* \"#utility.yul\":20028:20034   */\n      dup3\n        /* \"#utility.yul\":20024:20038   */\n      add\n        /* \"#utility.yul\":20017:20065   */\n      mstore\n        /* \"#utility.yul\":19900:20072   */\n      pop\n      jump\t// out\n        /* \"#utility.yul\":20078:20444   */\n    tag_227:\n        /* \"#utility.yul\":20220:20223   */\n      0x00\n        /* \"#utility.yul\":20241:20308   */\n      tag_452\n        /* \"#utility.yul\":20305:20307   */\n      0x16\n        /* \"#utility.yul\":20300:20303   */\n      dup4\n        /* \"#utility.yul\":20241:20308   */\n      tag_189\n      jump\t// in\n    tag_452:\n        /* \"#utility.yul\":20234:20308   */\n      swap2\n      pop\n        /* \"#utility.yul\":20317:20410   */\n      tag_453\n        /* \"#utility.yul\":20406:20409   */\n      dup3\n        /* \"#utility.yul\":20317:20410   */\n      tag_226\n      jump\t// in\n    tag_453:\n        /* \"#utility.yul\":20435:20437   */\n      0x20\n        /* \"#utility.yul\":20430:20433   */\n      dup3\n        /* \"#utility.yul\":20426:20438   */\n      add\n        /* \"#utility.yul\":20419:20438   */\n      swap1\n      pop\n        /* \"#utility.yul\":20078:20444   */\n      swap2\n      swap1\n      pop\n      jump\t// out\n        /* \"#utility.yul\":20450:20869   */\n    tag_119:\n        /* \"#utility.yul\":20616:20620   */\n      0x00\n        /* \"#utility.yul\":20654:20656   */\n      0x20\n        /* \"#utility.yul\":20643:20652   */\n      dup3\n        /* \"#utility.yul\":20639:20657   */\n      add\n        /* \"#utility.yul\":20631:20657   */\n      swap1\n      pop\n        /* \"#utility.yul\":20703:20712   */\n      dup2\n        /* \"#utility.yul\":20697:20701   */\n      dup2\n        /* \"#utility.yul\":20693:20713   */\n      sub\n        /* \"#utility.yul\":20689:20690   */\n      0x00\n        /* \"#utility.yul\":20678:20687   */\n      dup4\n        /* \"#utility.yul\":20674:20691   */\n      add\n        /* \"#utility.yul\":20667:20714   */\n      mstore\n        /* \"#utility.yul\":20731:20862   */\n      tag_455\n        /* \"#utility.yul\":20857:20861   */\n      dup2\n        /* \"#utility.yul\":20731:20862   */\n      tag_227\n      jump\t// in\n    tag_455:\n        /* \"#utility.yul\":20723:20862   */\n      swap1\n      pop\n        /* \"#utility.yul\":20450:20869   */\n      swap2\n      swap1\n      pop\n      jump\t// out\n        /* \"#utility.yul\":20875:21039   */\n    tag_228:\n        /* \"#utility.yul\":21015:21031   */\n      0x546172676574206e6f74206d6574000000000000000000000000000000000000\n        /* \"#utility.yul\":21011:21012   */\n      0x00\n        /* \"#utility.yul\":21003:21009   */\n      dup3\n        /* \"#utility.yul\":20999:21013   */\n      add\n        /* \"#utility.yul\":20992:21032   */\n      mstore\n        /* \"#utility.yul\":20875:21039   */\n      pop\n      jump\t// out\n        /* \"#utility.yul\":21045:21411   */\n    tag_229:\n        /* \"#utility.yul\":21187:21190   */\n      0x00\n        /* \"#utility.yul\":21208:21275   */\n      tag_458\n        /* \"#utility.yul\":21272:21274   */\n      0x0e\n        /* \"#utility.yul\":21267:21270   */\n      dup4\n        /* \"#utility.yul\":21208:21275   */\n      tag_189\n      jump\t// in\n    tag_458:\n        /* \"#utility.yul\":21201:21275   */\n      swap2\n      pop\n        /* \"#utility.yul\":21284:21377   */\n      tag_459\n        /* \"#utility.yul\":21373:21376   */\n      dup3\n        /* \"#utility.yul\":21284:21377   */\n      tag_228\n      jump\t// in\n    tag_459:\n        /* \"#utility.yul\":21402:21404   */\n      0x20\n        /* \"#utility.yul\":21397:21400   */\n      dup3\n        /* \"#utility.yul\":21393:21405   */\n      add\n        /* \"#utility.yul\":21386:21405   */\n      swap1\n      pop\n        /* \"#utility.yul\":21045:21411   */\n      swap2\n      swap1\n      pop\n      jump\t// out\n        /* \"#utility.yul\":21417:21836   */\n    tag_129:\n        /* \"#utility.yul\":21583:21587   */\n      0x00\n        /* \"#utility.yul\":21621:21623   */\n      0x20\n        /* \"#utility.yul\":21610:21619   */\n      dup3\n        /* \"#utility.yul\":21606:21624   */\n      add\n        /* \"#utility.yul\":21598:21624   */\n      swap1\n      pop\n        /* \"#utility.yul\":21670:21679   */\n      dup2\n        /* \"#utility.yul\":21664:21668   */\n      dup2\n        /* \"#utility.yul\":21660:21680   */\n      sub\n        /* \"#utility.yul\":21656:21657   */\n      0x00\n        /* \"#utility.yul\":21645:21654   */\n      dup4\n        /* \"#utility.yul\":21641:21658   */\n      add\n        /* \"#utility.yul\":21634:21681   */\n      mstore\n        /* \"#utility.yul\":21698:21829   */\n      tag_461\n        /* \"#utility.yul\":21824:21828   */\n      dup2\n        /* \"#utility.yul\":21698:21829   */\n      tag_229\n      jump\t// in\n    tag_461:\n        /* \"#utility.yul\":21690:21829   */\n      swap1\n      pop\n        /* \"#utility.yul\":21417:21836   */\n      swap2\n      swap1\n      pop\n      jump\t// out\n        /* \"#utility.yul\":21842:22022   */\n    tag_230:\n        /* \"#utility.yul\":21982:22014   */\n      0x416c72656164792064697374726962757465642074686520616d6f756e740000\n        /* \"#utility.yul\":21978:21979   */\n      0x00\n        /* \"#utility.yul\":21970:21976   */\n      dup3\n        /* \"#utility.yul\":21966:21980   */\n      add\n        /* \"#utility.yul\":21959:22015   */\n      mstore\n        /* \"#utility.yul\":21842:22022   */\n      pop\n      jump\t// out\n        /* \"#utility.yul\":22028:22394   */\n    tag_231:\n        /* \"#utility.yul\":22170:22173   */\n      0x00\n        /* \"#utility.yul\":22191:22258   */\n      tag_464\n        /* \"#utility.yul\":22255:22257   */\n      0x1e\n        /* \"#utility.yul\":22250:22253   */\n      dup4\n        /* \"#utility.yul\":22191:22258   */\n      tag_189\n      jump\t// in\n    tag_464:\n        /* \"#utility.yul\":22184:22258   */\n      swap2\n      pop\n        /* \"#utility.yul\":22267:22360   */\n      tag_465\n        /* \"#utility.yul\":22356:22359   */\n      dup3\n        /* \"#utility.yul\":22267:22360   */\n      tag_230\n      jump\t// in\n    tag_465:\n        /* \"#utility.yul\":22385:22387   */\n      0x20\n        /* \"#utility.yul\":22380:22383   */\n      dup3\n        /* \"#utility.yul\":22376:22388   */\n      add\n        /* \"#utility.yul\":22369:22388   */\n      swap1\n      pop\n        /* \"#utility.yul\":22028:22394   */\n      swap2\n      swap1\n      pop\n      jump\t// out\n        /* \"#utility.yul\":22400:22819   */\n    tag_132:\n        /* \"#utility.yul\":22566:22570   */\n      0x00\n        /* \"#utility.yul\":22604:22606   */\n      0x20\n        /* \"#utility.yul\":22593:22602   */\n      dup3\n        /* \"#utility.yul\":22589:22607   */\n      add\n        /* \"#utility.yul\":22581:22607   */\n      swap1\n      pop\n        /* \"#utility.yul\":22653:22662   */\n      dup2\n        /* \"#utility.yul\":22647:22651   */\n      dup2\n        /* \"#utility.yul\":22643:22663   */\n      sub\n        /* \"#utility.yul\":22639:22640   */\n      0x00\n        /* \"#utility.yul\":22628:22637   */\n      dup4\n        /* \"#utility.yul\":22624:22641   */\n      add\n        /* \"#utility.yul\":22617:22664   */\n      mstore\n        /* \"#utility.yul\":22681:22812   */\n      tag_467\n        /* \"#utility.yul\":22807:22811   */\n      dup2\n        /* \"#utility.yul\":22681:22812   */\n      tag_231\n      jump\t// in\n    tag_467:\n        /* \"#utility.yul\":22673:22812   */\n      swap1\n      pop\n        /* \"#utility.yul\":22400:22819   */\n      swap2\n      swap1\n      pop\n      jump\t// out\n        /* \"#utility.yul\":22825:23005   */\n    tag_232:\n        /* \"#utility.yul\":22873:22950   */\n      0x4e487b7100000000000000000000000000000000000000000000000000000000\n        /* \"#utility.yul\":22870:22871   */\n      0x00\n        /* \"#utility.yul\":22863:22951   */\n      mstore\n        /* \"#utility.yul\":22970:22974   */\n      0x12\n        /* \"#utility.yul\":22967:22968   */\n      0x04\n        /* \"#utility.yul\":22960:22975   */\n      mstore\n        /* \"#utility.yul\":22994:22998   */\n      0x24\n        /* \"#utility.yul\":22991:22992   */\n      0x00\n        /* \"#utility.yul\":22984:22999   */\n      revert\n        /* \"#utility.yul\":23011:23196   */\n    tag_134:\n        /* \"#utility.yul\":23051:23052   */\n      0x00\n        /* \"#utility.yul\":23068:23088   */\n      tag_470\n        /* \"#utility.yul\":23086:23087   */\n      dup3\n        /* \"#utility.yul\":23068:23088   */\n      tag_180\n      jump\t// in\n    tag_470:\n        /* \"#utility.yul\":23063:23088   */\n      swap2\n      pop\n        /* \"#utility.yul\":23102:23122   */\n      tag_471\n        /* \"#utility.yul\":23120:23121   */\n      dup4\n        /* \"#utility.yul\":23102:23122   */\n      tag_180\n      jump\t// in\n    tag_471:\n        /* \"#utility.yul\":23097:23122   */\n      swap3\n      pop\n        /* \"#utility.yul\":23141:23142   */\n      dup3\n        /* \"#utility.yul\":23131:23166   */\n      tag_472\n      jumpi\n        /* \"#utility.yul\":23146:23164   */\n      tag_473\n      tag_232\n      jump\t// in\n    tag_473:\n        /* \"#utility.yul\":23131:23166   */\n    tag_472:\n        /* \"#utility.yul\":23188:23189   */\n      dup3\n        /* \"#utility.yul\":23185:23186   */\n      dup3\n        /* \"#utility.yul\":23181:23190   */\n      div\n        /* \"#utility.yul\":23176:23190   */\n      swap1\n      pop\n        /* \"#utility.yul\":23011:23196   */\n      swap3\n      swap2\n      pop\n      pop\n      jump\t// out\n        /* \"#utility.yul\":23202:23376   */\n    tag_233:\n        /* \"#utility.yul\":23342:23368   */\n      0x4d616a6f7269747920737570706f7274206e6f74206d65740000000000000000\n        /* \"#utility.yul\":23338:23339   */\n      0x00\n        /* \"#utility.yul\":23330:23336   */\n      dup3\n        /* \"#utility.yul\":23326:23340   */\n      add\n        /* \"#utility.yul\":23319:23369   */\n      mstore\n        /* \"#utility.yul\":23202:23376   */\n      pop\n      jump\t// out\n        /* \"#utility.yul\":23382:23748   */\n    tag_234:\n        /* \"#utility.yul\":23524:23527   */\n      0x00\n        /* \"#utility.yul\":23545:23612   */\n      tag_476\n        /* \"#utility.yul\":23609:23611   */\n      0x18\n        /* \"#utility.yul\":23604:23607   */\n      dup4\n        /* \"#utility.yul\":23545:23612   */\n      tag_189\n      jump\t// in\n    tag_476:\n        /* \"#utility.yul\":23538:23612   */\n      swap2\n      pop\n        /* \"#utility.yul\":23621:23714   */\n      tag_477\n        /* \"#utility.yul\":23710:23713   */\n      dup3\n        /* \"#utility.yul\":23621:23714   */\n      tag_233\n      jump\t// in\n    tag_477:\n        /* \"#utility.yul\":23739:23741   */\n      0x20\n        /* \"#utility.yul\":23734:23737   */\n      dup3\n        /* \"#utility.yul\":23730:23742   */\n      add\n        /* \"#utility.yul\":23723:23742   */\n      swap1\n      pop\n        /* \"#utility.yul\":23382:23748   */\n      swap2\n      swap1\n      pop\n      jump\t// out\n        /* \"#utility.yul\":23754:24173   */\n    tag_137:\n        /* \"#utility.yul\":23920:23924   */\n      0x00\n        /* \"#utility.yul\":23958:23960   */\n      0x20\n        /* \"#utility.yul\":23947:23956   */\n      dup3\n        /* \"#utility.yul\":23943:23961   */\n      add\n        /* \"#utility.yul\":23935:23961   */\n      swap1\n      pop\n        /* \"#utility.yul\":24007:24016   */\n      dup2\n        /* \"#utility.yul\":24001:24005   */\n      dup2\n        /* \"#utility.yul\":23997:24017   */\n      sub\n        /* \"#utility.yul\":23993:23994   */\n      0x00\n        /* \"#utility.yul\":23982:23991   */\n      dup4\n        /* \"#utility.yul\":23978:23995   */\n      add\n        /* \"#utility.yul\":23971:24018   */\n      mstore\n        /* \"#utility.yul\":24035:24166   */\n      tag_479\n        /* \"#utility.yul\":24161:24165   */\n      dup2\n        /* \"#utility.yul\":24035:24166   */\n      tag_234\n      jump\t// in\n    tag_479:\n        /* \"#utility.yul\":24027:24166   */\n      swap1\n      pop\n        /* \"#utility.yul\":23754:24173   */\n      swap2\n      swap1\n      pop\n      jump\t// out\n        /* \"#utility.yul\":24179:24359   */\n    tag_235:\n        /* \"#utility.yul\":24319:24351   */\n      0x4e6f7420656e6f7567682062616c616e636520696e20636f6e74726163740000\n        /* \"#utility.yul\":24315:24316   */\n      0x00\n        /* \"#utility.yul\":24307:24313   */\n      dup3\n        /* \"#utility.yul\":24303:24317   */\n      add\n        /* \"#utility.yul\":24296:24352   */\n      mstore\n        /* \"#utility.yul\":24179:24359   */\n      pop\n      jump\t// out\n        /* \"#utility.yul\":24365:24731   */\n    tag_236:\n        /* \"#utility.yul\":24507:24510   */\n      0x00\n        /* \"#utility.yul\":24528:24595   */\n      tag_482\n        /* \"#utility.yul\":24592:24594   */\n      0x1e\n        /* \"#utility.yul\":24587:24590   */\n      dup4\n        /* \"#utility.yul\":24528:24595   */\n      tag_189\n      jump\t// in\n    tag_482:\n        /* \"#utility.yul\":24521:24595   */\n      swap2\n      pop\n        /* \"#utility.yul\":24604:24697   */\n      tag_483\n        /* \"#utility.yul\":24693:24696   */\n      dup3\n        /* \"#utility.yul\":24604:24697   */\n      tag_235\n      jump\t// in\n    tag_483:\n        /* \"#utility.yul\":24722:24724   */\n      0x20\n        /* \"#utility.yul\":24717:24720   */\n      dup3\n        /* \"#utility.yul\":24713:24725   */\n      add\n        /* \"#utility.yul\":24706:24725   */\n      swap1\n      pop\n        /* \"#utility.yul\":24365:24731   */\n      swap2\n      swap1\n      pop\n      jump\t// out\n        /* \"#utility.yul\":24737:25156   */\n    tag_140:\n        /* \"#utility.yul\":24903:24907   */\n      0x00\n        /* \"#utility.yul\":24941:24943   */\n      0x20\n        /* \"#utility.yul\":24930:24939   */\n      dup3\n        /* \"#utility.yul\":24926:24944   */\n      add\n        /* \"#utility.yul\":24918:24944   */\n      swap1\n      pop\n        /* \"#utility.yul\":24990:24999   */\n      dup2\n        /* \"#utility.yul\":24984:24988   */\n      dup2\n        /* \"#utility.yul\":24980:25000   */\n      sub\n        /* \"#utility.yul\":24976:24977   */\n      0x00\n        /* \"#utility.yul\":24965:24974   */\n      dup4\n        /* \"#utility.yul\":24961:24978   */\n      add\n        /* \"#utility.yul\":24954:25001   */\n      mstore\n        /* \"#utility.yul\":25018:25149   */\n      tag_485\n        /* \"#utility.yul\":25144:25148   */\n      dup2\n        /* \"#utility.yul\":25018:25149   */\n      tag_236\n      jump\t// in\n    tag_485:\n        /* \"#utility.yul\":25010:25149   */\n      swap1\n      pop\n        /* \"#utility.yul\":24737:25156   */\n      swap2\n      swap1\n      pop\n      jump\t// out\n        /* \"#utility.yul\":25162:25510   */\n    tag_144:\n        /* \"#utility.yul\":25291:25295   */\n      0x00\n        /* \"#utility.yul\":25329:25331   */\n      0x40\n        /* \"#utility.yul\":25318:25327   */\n      dup3\n        /* \"#utility.yul\":25314:25332   */\n      add\n        /* \"#utility.yul\":25306:25332   */\n      swap1\n      pop\n        /* \"#utility.yul\":25342:25421   */\n      tag_487\n        /* \"#utility.yul\":25418:25419   */\n      0x00\n        /* \"#utility.yul\":25407:25416   */\n      dup4\n        /* \"#utility.yul\":25403:25420   */\n      add\n        /* \"#utility.yul\":25394:25400   */\n      dup6\n        /* \"#utility.yul\":25342:25421   */\n      tag_221\n      jump\t// in\n    tag_487:\n        /* \"#utility.yul\":25431:25503   */\n      tag_488\n        /* \"#utility.yul\":25499:25501   */\n      0x20\n        /* \"#utility.yul\":25488:25497   */\n      dup4\n        /* \"#utility.yul\":25484:25502   */\n      add\n        /* \"#utility.yul\":25475:25481   */\n      dup5\n        /* \"#utility.yul\":25431:25503   */\n      tag_186\n      jump\t// in\n    tag_488:\n        /* \"#utility.yul\":25162:25510   */\n      swap4\n      swap3\n      pop\n      pop\n      pop\n      jump\t// out\n        /* \"#utility.yul\":25516:25691   */\n    tag_237:\n        /* \"#utility.yul\":25656:25683   */\n      0x526566756e6420636f6e646974696f6e73206e6f74206d657400000000000000\n        /* \"#utility.yul\":25652:25653   */\n      0x00\n        /* \"#utility.yul\":25644:25650   */\n      dup3\n        /* \"#utility.yul\":25640:25654   */\n      add\n        /* \"#utility.yul\":25633:25684   */\n      mstore\n        /* \"#utility.yul\":25516:25691   */\n      pop\n      jump\t// out\n        /* \"#utility.yul\":25697:26063   */\n    tag_238:\n        /* \"#utility.yul\":25839:25842   */\n      0x00\n        /* \"#utility.yul\":25860:25927   */\n      tag_491\n        /* \"#utility.yul\":25924:25926   */\n      0x19\n        /* \"#utility.yul\":25919:25922   */\n      dup4\n        /* \"#utility.yul\":25860:25927   */\n      tag_189\n      jump\t// in\n    tag_491:\n        /* \"#utility.yul\":25853:25927   */\n      swap2\n      pop\n        /* \"#utility.yul\":25936:26029   */\n      tag_492\n        /* \"#utility.yul\":26025:26028   */\n      dup3\n        /* \"#utility.yul\":25936:26029   */\n      tag_237\n      jump\t// in\n    tag_492:\n        /* \"#utility.yul\":26054:26056   */\n      0x20\n        /* \"#utility.yul\":26049:26052   */\n      dup3\n        /* \"#utility.yul\":26045:26057   */\n      add\n        /* \"#utility.yul\":26038:26057   */\n      swap1\n      pop\n        /* \"#utility.yul\":25697:26063   */\n      swap2\n      swap1\n      pop\n      jump\t// out\n        /* \"#utility.yul\":26069:26488   */\n    tag_149:\n        /* \"#utility.yul\":26235:26239   */\n      0x00\n        /* \"#utility.yul\":26273:26275   */\n      0x20\n        /* \"#utility.yul\":26262:26271   */\n      dup3\n        /* \"#utility.yul\":26258:26276   */\n      add\n        /* \"#utility.yul\":26250:26276   */\n      swap1\n      pop\n        /* \"#utility.yul\":26322:26331   */\n      dup2\n        /* \"#utility.yul\":26316:26320   */\n      dup2\n        /* \"#utility.yul\":26312:26332   */\n      sub\n        /* \"#utility.yul\":26308:26309   */\n      0x00\n        /* \"#utility.yul\":26297:26306   */\n      dup4\n        /* \"#utility.yul\":26293:26310   */\n      add\n        /* \"#utility.yul\":26286:26333   */\n      mstore\n        /* \"#utility.yul\":26350:26481   */\n      tag_494\n        /* \"#utility.yul\":26476:26480   */\n      dup2\n        /* \"#utility.yul\":26350:26481   */\n      tag_238\n      jump\t// in\n    tag_494:\n        /* \"#utility.yul\":26342:26481   */\n      swap1\n      pop\n        /* \"#utility.yul\":26069:26488   */\n      swap2\n      swap1\n      pop\n      jump\t// out\n        /* \"#utility.yul\":26494:26668   */\n    tag_239:\n        /* \"#utility.yul\":26634:26660   */\n      0x596f752068617665206e6f7420636f6e74726962757465640000000000000000\n        /* \"#utility.yul\":26630:26631   */\n      0x00\n        /* \"#utility.yul\":26622:26628   */\n      dup3\n        /* \"#utility.yul\":26618:26632   */\n      add\n        /* \"#utility.yul\":26611:26661   */\n      mstore\n        /* \"#utility.yul\":26494:26668   */\n      pop\n      jump\t// out\n        /* \"#utility.yul\":26674:27040   */\n    tag_240:\n        /* \"#utility.yul\":26816:26819   */\n      0x00\n        /* \"#utility.yul\":26837:26904   */\n      tag_497\n        /* \"#utility.yul\":26901:26903   */\n      0x18\n        /* \"#utility.yul\":26896:26899   */\n      dup4\n        /* \"#utility.yul\":26837:26904   */\n      tag_189\n      jump\t// in\n    tag_497:\n        /* \"#utility.yul\":26830:26904   */\n      swap2\n      pop\n        /* \"#utility.yul\":26913:27006   */\n      tag_498\n        /* \"#utility.yul\":27002:27005   */\n      dup3\n        /* \"#utility.yul\":26913:27006   */\n      tag_239\n      jump\t// in\n    tag_498:\n        /* \"#utility.yul\":27031:27033   */\n      0x20\n        /* \"#utility.yul\":27026:27029   */\n      dup3\n        /* \"#utility.yul\":27022:27034   */\n      add\n        /* \"#utility.yul\":27015:27034   */\n      swap1\n      pop\n        /* \"#utility.yul\":26674:27040   */\n      swap2\n      swap1\n      pop\n      jump\t// out\n        /* \"#utility.yul\":27046:27465   */\n    tag_152:\n        /* \"#utility.yul\":27212:27216   */\n      0x00\n        /* \"#utility.yul\":27250:27252   */\n      0x20\n        /* \"#utility.yul\":27239:27248   */\n      dup3\n        /* \"#utility.yul\":27235:27253   */\n      add\n        /* \"#utility.yul\":27227:27253   */\n      swap1\n      pop\n        /* \"#utility.yul\":27299:27308   */\n      dup2\n        /* \"#utility.yul\":27293:27297   */\n      dup2\n        /* \"#utility.yul\":27289:27309   */\n      sub\n        /* \"#utility.yul\":27285:27286   */\n      0x00\n        /* \"#utility.yul\":27274:27283   */\n      dup4\n        /* \"#utility.yul\":27270:27287   */\n      add\n        /* \"#utility.yul\":27263:27310   */\n      mstore\n        /* \"#utility.yul\":27327:27458   */\n      tag_500\n        /* \"#utility.yul\":27453:27457   */\n      dup2\n        /* \"#utility.yul\":27327:27458   */\n      tag_240\n      jump\t// in\n    tag_500:\n        /* \"#utility.yul\":27319:27458   */\n      swap1\n      pop\n        /* \"#utility.yul\":27046:27465   */\n      swap2\n      swap1\n      pop\n      jump\t// out\n\n    auxdata: 0xa264697066735822122000263e2caa15e6982f7fba3820f0c8644e6d8af2e7a93d3f8c0a308a2007077b64736f6c634300081a0033\n}\n",
				"bytecode": {
					"linkReferences": {},
					"object": "608060405234801561000f575f80fd5b50604051611de1380380611de1833981810160405281019061003191906100d0565b816004819055508042610044919061013b565b60038190555060646002819055503360015f6101000a81548173ffffffffffffffffffffffffffffffffffffffff021916908373ffffffffffffffffffffffffffffffffffffffff160217905550505061016e565b5f80fd5b5f819050919050565b6100af8161009d565b81146100b9575f80fd5b50565b5f815190506100ca816100a6565b92915050565b5f80604083850312156100e6576100e5610099565b5b5f6100f3858286016100bc565b9250506020610104858286016100bc565b9150509250929050565b7f4e487b71000000000000000000000000000000000000000000000000000000005f52601160045260245ffd5b5f6101458261009d565b91506101508361009d565b92508282019050808211156101685761016761010e565b5b92915050565b611c668061017b5f395ff3fe6080604052600436106100e7575f3560e01c80635114cb5211610089578063b1b1643111610058578063b1b1643114610291578063d4b83992146102bb578063d845a4b3146102e5578063db638f0b14610325576100e7565b80635114cb52146101ff578063590e1ae3146102275780636f9fb98a1461023d578063aaffadf314610267576100e7565b806329dcb0cf116100c557806329dcb0cf14610159578063481c6a75146101835780634cb6f4a5146101ad5780634e260f6f146101d5576100e7565b80630e29df22146100eb5780631b16bb5c146100f55780631f6d49421461011d575b5f80fd5b6100f361034f565b005b348015610100575f80fd5b5061011b6004803603810190610116919061102d565b6104d8565b005b348015610128575f80fd5b50610143600480360381019061013e91906110d4565b610655565b604051610150919061110e565b60405180910390f35b348015610164575f80fd5b5061016d610669565b60405161017a919061110e565b60405180910390f35b34801561018e575f80fd5b5061019761066f565b6040516101a49190611136565b60405180910390f35b3480156101b8575f80fd5b506101d360048036038101906101ce919061114f565b610694565b005b3480156101e0575f80fd5b506101e961086f565b6040516101f6919061110e565b60405180910390f35b34801561020a575f80fd5b506102256004803603810190610220919061114f565b610875565b005b348015610232575f80fd5b5061023b610b7f565b005b348015610248575f80fd5b50610251610d51565b60405161025e919061110e565b60405180910390f35b348015610272575f80fd5b5061027b610d58565b604051610288919061110e565b60405180910390f35b34801561029c575f80fd5b506102a5610d5e565b6040516102b2919061110e565b60405180910390f35b3480156102c6575f80fd5b506102cf610d64565b6040516102dc919061110e565b60405180910390f35b3480156102f0575f80fd5b5061030b6004803603810190610306919061114f565b610d6a565b60405161031c959493929190611203565b60405180910390f35b348015610330575f80fd5b50610339610e4d565b604051610346919061110e565b60405180910390f35b6003544210610393576040517f08c379a000000000000000000000000000000000000000000000000000000000815260040161038a906112a5565b60405180910390fd5b6002543410156103d8576040517f08c379a00000000000000000000000000000000000000000000000000000000081526004016103cf90611333565b60405180910390fd5b5f805f3373ffffffffffffffffffffffffffffffffffffffff1673ffffffffffffffffffffffffffffffffffffffff1681526020019081526020015f2054036104335760065f81548092919061042d9061137e565b91905055505b345f803373ffffffffffffffffffffffffffffffffffffffff1673ffffffffffffffffffffffffffffffffffffffff1681526020019081526020015f205f82825461047e91906113c5565b925050819055503460055f82825461049691906113c5565b925050819055507f1bb460ccaaf70fbacfec17a376f8acbd278c1405590ffcc8ebe4b88daf4f64ad33346040516104ce9291906113f8565b60405180910390a1565b60015f9054906101000a900473ffffffffffffffffffffffffffffffffffffffff1673ffffffffffffffffffffffffffffffffffffffff163373ffffffffffffffffffffffffffffffffffffffff1614610567576040517f08c379a000000000000000000000000000000000000000000000000000000000815260040161055e9061148f565b60405180910390fd5b5f60075f60085481526020019081526020015f20905060085f81548092919061058f9061137e565b919050555083815f0190816105a491906116a7565b5082816001015f6101000a81548173ffffffffffffffffffffffffffffffffffffffff021916908373ffffffffffffffffffffffffffffffffffffffff1602179055508181600201819055505f816003015f6101000a81548160ff0219169083151502179055505f81600401819055507fad2c96baa31df20747319cb87b6904313b0a92712511569294982ff50e198997848484604051610647939291906117c8565b60405180910390a150505050565b5f602052805f5260405f205f915090505481565b60035481565b60015f9054906101000a900473ffffffffffffffffffffffffffffffffffffffff1681565b60085481106106d8576040517f08c379a00000000000000000000000000000000000000000000000000000000081526004016106cf9061184e565b60405180910390fd5b5f805f3373ffffffffffffffffffffffffffffffffffffffff1673ffffffffffffffffffffffffffffffffffffffff1681526020019081526020015f205411610756576040517f08c379a000000000000000000000000000000000000000000000000000000000815260040161074d906118b6565b60405180910390fd5b5f60075f8381526020019081526020015f2090505f1515816005015f3373ffffffffffffffffffffffffffffffffffffffff1673ffffffffffffffffffffffffffffffffffffffff1681526020019081526020015f205f9054906101000a900460ff161515146107fb576040517f08c379a00000000000000000000000000000000000000000000000000000000081526004016107f29061191e565b60405180910390fd5b6001816005015f3373ffffffffffffffffffffffffffffffffffffffff1673ffffffffffffffffffffffffffffffffffffffff1681526020019081526020015f205f6101000a81548160ff021916908315150217905550806004015f8154809291906108669061137e565b91905055505050565b60065481565b60015f9054906101000a900473ffffffffffffffffffffffffffffffffffffffff1673ffffffffffffffffffffffffffffffffffffffff163373ffffffffffffffffffffffffffffffffffffffff1614610904576040517f08c379a00000000000000000000000000000000000000000000000000000000081526004016108fb9061148f565b60405180910390fd5b6008548110610948576040517f08c379a000000000000000000000000000000000000000000000000000000000815260040161093f9061184e565b60405180910390fd5b600454600554101561098f576040517f08c379a000000000000000000000000000000000000000000000000000000000815260040161098690611986565b60405180910390fd5b5f60075f8381526020019081526020015f2090505f1515816003015f9054906101000a900460ff161515146109f9576040517f08c379a00000000000000000000000000000000000000000000000000000000081526004016109f0906119ee565b60405180910390fd5b6002600654610a089190611a39565b816004015411610a4d576040517f08c379a0000000000000000000000000000000000000000000000000000000008152600401610a4490611ab3565b60405180910390fd5b4781600201541115610a94576040517f08c379a0000000000000000000000000000000000000000000000000000000008152600401610a8b90611b1b565b60405180910390fd5b806001015f9054906101000a900473ffffffffffffffffffffffffffffffffffffffff1673ffffffffffffffffffffffffffffffffffffffff166108fc826002015490811502906040515f60405180830381858888f19350505050158015610afe573d5f803e3d5ffd5b506001816003015f6101000a81548160ff0219169083151502179055507f3a2d0e41c506b136330c6e5e0295ccbf0966daece99bfe7c89020cc01dbfb8d6816001015f9054906101000a900473ffffffffffffffffffffffffffffffffffffffff168260020154604051610b73929190611b39565b60405180910390a15050565b60035442118015610b935750600454600554105b610bd2576040517f08c379a0000000000000000000000000000000000000000000000000000000008152600401610bc990611baa565b60405180910390fd5b5f805f3373ffffffffffffffffffffffffffffffffffffffff1673ffffffffffffffffffffffffffffffffffffffff1681526020019081526020015f205411610c50576040517f08c379a0000000000000000000000000000000000000000000000000000000008152600401610c4790611c12565b60405180910390fd5b5f805f3373ffffffffffffffffffffffffffffffffffffffff1673ffffffffffffffffffffffffffffffffffffffff1681526020019081526020015f205490505f805f3373ffffffffffffffffffffffffffffffffffffffff1673ffffffffffffffffffffffffffffffffffffffff1681526020019081526020015f20819055503373ffffffffffffffffffffffffffffffffffffffff166108fc8290811502906040515f60405180830381858888f19350505050158015610d14573d5f803e3d5ffd5b507fa171b6942063c6f2800ce40a780edce37baa2b618571b11eedd1e69e626e7d763382604051610d469291906113f8565b60405180910390a150565b5f47905090565b60025481565b60085481565b60045481565b6007602052805f5260405f205f91509050805f018054610d89906114da565b80601f0160208091040260200160405190810160405280929190818152602001828054610db5906114da565b8015610e005780601f10610dd757610100808354040283529160200191610e00565b820191905f5260205f20905b815481529060010190602001808311610de357829003601f168201915b505050505090806001015f9054906101000a900473ffffffffffffffffffffffffffffffffffffffff1690806002015490806003015f9054906101000a900460ff16908060040154905085565b60055481565b5f604051905090565b5f80fd5b5f80fd5b5f80fd5b5f80fd5b5f601f19601f8301169050919050565b7f4e487b71000000000000000000000000000000000000000000000000000000005f52604160045260245ffd5b610eb282610e6c565b810181811067ffffffffffffffff82111715610ed157610ed0610e7c565b5b80604052505050565b5f610ee3610e53565b9050610eef8282610ea9565b919050565b5f67ffffffffffffffff821115610f0e57610f0d610e7c565b5b610f1782610e6c565b9050602081019050919050565b828183375f83830152505050565b5f610f44610f3f84610ef4565b610eda565b905082815260208101848484011115610f6057610f5f610e68565b5b610f6b848285610f24565b509392505050565b5f82601f830112610f8757610f86610e64565b5b8135610f97848260208601610f32565b91505092915050565b5f73ffffffffffffffffffffffffffffffffffffffff82169050919050565b5f610fc982610fa0565b9050919050565b610fd981610fbf565b8114610fe3575f80fd5b50565b5f81359050610ff481610fd0565b92915050565b5f819050919050565b61100c81610ffa565b8114611016575f80fd5b50565b5f8135905061102781611003565b92915050565b5f805f6060848603121561104457611043610e5c565b5b5f84013567ffffffffffffffff81111561106157611060610e60565b5b61106d86828701610f73565b935050602061107e86828701610fe6565b925050604061108f86828701611019565b9150509250925092565b5f6110a382610fa0565b9050919050565b6110b381611099565b81146110bd575f80fd5b50565b5f813590506110ce816110aa565b92915050565b5f602082840312156110e9576110e8610e5c565b5b5f6110f6848285016110c0565b91505092915050565b61110881610ffa565b82525050565b5f6020820190506111215f8301846110ff565b92915050565b61113081611099565b82525050565b5f6020820190506111495f830184611127565b92915050565b5f6020828403121561116457611163610e5c565b5b5f61117184828501611019565b91505092915050565b5f81519050919050565b5f82825260208201905092915050565b8281835e5f83830152505050565b5f6111ac8261117a565b6111b68185611184565b93506111c6818560208601611194565b6111cf81610e6c565b840191505092915050565b6111e381610fbf565b82525050565b5f8115159050919050565b6111fd816111e9565b82525050565b5f60a0820190508181035f83015261121b81886111a2565b905061122a60208301876111da565b61123760408301866110ff565b61124460608301856111f4565b61125160808301846110ff565b9695505050505050565b7f54686520646561646c696e6520686173207061737365640000000000000000005f82015250565b5f61128f601783611184565b915061129a8261125b565b602082019050919050565b5f6020820190508181035f8301526112bc81611283565b9050919050565b7f596f75206e65656420746f20636f6e74726962757465206174206c65617374205f8201527f3130302077656900000000000000000000000000000000000000000000000000602082015250565b5f61131d602783611184565b9150611328826112c3565b604082019050919050565b5f6020820190508181035f83015261134a81611311565b9050919050565b7f4e487b71000000000000000000000000000000000000000000000000000000005f52601160045260245ffd5b5f61138882610ffa565b91507fffffffffffffffffffffffffffffffffffffffffffffffffffffffffffffffff82036113ba576113b9611351565b5b600182019050919050565b5f6113cf82610ffa565b91506113da83610ffa565b92508282019050808211156113f2576113f1611351565b5b92915050565b5f60408201905061140b5f830185611127565b61141860208301846110ff565b9392505050565b7f4f6e6c79206d616e616765722063616e2063616c6c20746869732066756e63745f8201527f696f6e0000000000000000000000000000000000000000000000000000000000602082015250565b5f611479602383611184565b91506114848261141f565b604082019050919050565b5f6020820190508181035f8301526114a68161146d565b9050919050565b7f4e487b71000000000000000000000000000000000000000000000000000000005f52602260045260245ffd5b5f60028204905060018216806114f157607f821691505b602082108103611504576115036114ad565b5b50919050565b5f819050815f5260205f209050919050565b5f6020601f8301049050919050565b5f82821b905092915050565b5f600883026115667fffffffffffffffffffffffffffffffffffffffffffffffffffffffffffffffff8261152b565b611570868361152b565b95508019841693508086168417925050509392505050565b5f819050919050565b5f6115ab6115a66115a184610ffa565b611588565b610ffa565b9050919050565b5f819050919050565b6115c483611591565b6115d86115d0826115b2565b848454611537565b825550505050565b5f90565b6115ec6115e0565b6115f78184846115bb565b505050565b5b8181101561161a5761160f5f826115e4565b6001810190506115fd565b5050565b601f82111561165f576116308161150a565b6116398461151c565b81016020851015611648578190505b61165c6116548561151c565b8301826115fc565b50505b505050565b5f82821c905092915050565b5f61167f5f1984600802611664565b1980831691505092915050565b5f6116978383611670565b9150826002028217905092915050565b6116b08261117a565b67ffffffffffffffff8111156116c9576116c8610e7c565b5b6116d382546114da565b6116de82828561161e565b5f60209050601f83116001811461170f575f84156116fd578287015190505b611707858261168c565b86555061176e565b601f19841661171d8661150a565b5f5b828110156117445784890151825560018201915060208501945060208101905061171f565b86831015611761578489015161175d601f891682611670565b8355505b6001600288020188555050505b505050505050565b5f61179061178b61178684610fa0565b611588565b610fa0565b9050919050565b5f6117a182611776565b9050919050565b5f6117b282611797565b9050919050565b6117c2816117a8565b82525050565b5f6060820190508181035f8301526117e081866111a2565b90506117ef60208301856117b9565b6117fc60408301846110ff565b949350505050565b7f5265717565737420646f6573206e6f74206578697374000000000000000000005f82015250565b5f611838601683611184565b915061184382611804565b602082019050919050565b5f6020820190508181035f8301526118658161182c565b9050919050565b7f596f7520617265206e6f74206120636f6e7472696275746f72000000000000005f82015250565b5f6118a0601983611184565b91506118ab8261186c565b602082019050919050565b5f6020820190508181035f8301526118cd81611894565b9050919050565b7f596f75206861766520616c726561647920766f746564000000000000000000005f82015250565b5f611908601683611184565b9150611913826118d4565b602082019050919050565b5f6020820190508181035f830152611935816118fc565b9050919050565b7f546172676574206e6f74206d65740000000000000000000000000000000000005f82015250565b5f611970600e83611184565b915061197b8261193c565b602082019050919050565b5f6020820190508181035f83015261199d81611964565b9050919050565b7f416c72656164792064697374726962757465642074686520616d6f756e7400005f82015250565b5f6119d8601e83611184565b91506119e3826119a4565b602082019050919050565b5f6020820190508181035f830152611a05816119cc565b9050919050565b7f4e487b71000000000000000000000000000000000000000000000000000000005f52601260045260245ffd5b5f611a4382610ffa565b9150611a4e83610ffa565b925082611a5e57611a5d611a0c565b5b828204905092915050565b7f4d616a6f7269747920737570706f7274206e6f74206d657400000000000000005f82015250565b5f611a9d601883611184565b9150611aa882611a69565b602082019050919050565b5f6020820190508181035f830152611aca81611a91565b9050919050565b7f4e6f7420656e6f7567682062616c616e636520696e20636f6e747261637400005f82015250565b5f611b05601e83611184565b9150611b1082611ad1565b602082019050919050565b5f6020820190508181035f830152611b3281611af9565b9050919050565b5f604082019050611b4c5f8301856117b9565b611b5960208301846110ff565b9392505050565b7f526566756e6420636f6e646974696f6e73206e6f74206d6574000000000000005f82015250565b5f611b94601983611184565b9150611b9f82611b60565b602082019050919050565b5f6020820190508181035f830152611bc181611b88565b9050919050565b7f596f752068617665206e6f7420636f6e747269627574656400000000000000005f82015250565b5f611bfc601883611184565b9150611c0782611bc8565b602082019050919050565b5f6020820190508181035f830152611c2981611bf0565b905091905056fea264697066735822122000263e2caa15e6982f7fba3820f0c8644e6d8af2e7a93d3f8c0a308a2007077b64736f6c634300081a0033",
					"opcodes": "PUSH1 0x80 PUSH1 0x40 MSTORE CALLVALUE DUP1 ISZERO PUSH2 0xF JUMPI PUSH0 DUP1 REVERT JUMPDEST POP PUSH1 0x40 MLOAD PUSH2 0x1DE1 CODESIZE SUB DUP1 PUSH2 0x1DE1 DUP4 CODECOPY DUP2 DUP2 ADD PUSH1 0x40 MSTORE DUP2 ADD SWAP1 PUSH2 0x31 SWAP2 SWAP1 PUSH2 0xD0 JUMP JUMPDEST DUP2 PUSH1 0x4 DUP2 SWAP1 SSTORE POP DUP1 TIMESTAMP PUSH2 0x44 SWAP2 SWAP1 PUSH2 0x13B JUMP JUMPDEST PUSH1 0x3 DUP2 SWAP1 SSTORE POP PUSH1 0x64 PUSH1 0x2 DUP2 SWAP1 SSTORE POP CALLER PUSH1 0x1 PUSH0 PUSH2 0x100 EXP DUP2 SLOAD DUP2 PUSH20 0xFFFFFFFFFFFFFFFFFFFFFFFFFFFFFFFFFFFFFFFF MUL NOT AND SWAP1 DUP4 PUSH20 0xFFFFFFFFFFFFFFFFFFFFFFFFFFFFFFFFFFFFFFFF AND MUL OR SWAP1 SSTORE POP POP POP PUSH2 0x16E JUMP JUMPDEST PUSH0 DUP1 REVERT JUMPDEST PUSH0 DUP2 SWAP1 POP SWAP2 SWAP1 POP JUMP JUMPDEST PUSH2 0xAF DUP2 PUSH2 0x9D JUMP JUMPDEST DUP2 EQ PUSH2 0xB9 JUMPI PUSH0 DUP1 REVERT JUMPDEST POP JUMP JUMPDEST PUSH0 DUP2 MLOAD SWAP1 POP PUSH2 0xCA DUP2 PUSH2 0xA6 JUMP JUMPDEST SWAP3 SWAP2 POP POP JUMP JUMPDEST PUSH0 DUP1 PUSH1 0x40 DUP4 DUP6 SUB SLT ISZERO PUSH2 0xE6 JUMPI PUSH2 0xE5 PUSH2 0x99 JUMP JUMPDEST JUMPDEST PUSH0 PUSH2 0xF3 DUP6 DUP3 DUP7 ADD PUSH2 0xBC JUMP JUMPDEST SWAP3 POP POP PUSH1 0x20 PUSH2 0x104 DUP6 DUP3 DUP7 ADD PUSH2 0xBC JUMP JUMPDEST SWAP2 POP POP SWAP3 POP SWAP3 SWAP1 POP JUMP JUMPDEST PUSH32 0x4E487B7100000000000000000000000000000000000000000000000000000000 PUSH0 MSTORE PUSH1 0x11 PUSH1 0x4 MSTORE PUSH1 0x24 PUSH0 REVERT JUMPDEST PUSH0 PUSH2 0x145 DUP3 PUSH2 0x9D JUMP JUMPDEST SWAP2 POP PUSH2 0x150 DUP4 PUSH2 0x9D JUMP JUMPDEST SWAP3 POP DUP3 DUP3 ADD SWAP1 POP DUP1 DUP3 GT ISZERO PUSH2 0x168 JUMPI PUSH2 0x167 PUSH2 0x10E JUMP JUMPDEST JUMPDEST SWAP3 SWAP2 POP POP JUMP JUMPDEST PUSH2 0x1C66 DUP1 PUSH2 0x17B PUSH0 CODECOPY PUSH0 RETURN INVALID PUSH1 0x80 PUSH1 0x40 MSTORE PUSH1 0x4 CALLDATASIZE LT PUSH2 0xE7 JUMPI PUSH0 CALLDATALOAD PUSH1 0xE0 SHR DUP1 PUSH4 0x5114CB52 GT PUSH2 0x89 JUMPI DUP1 PUSH4 0xB1B16431 GT PUSH2 0x58 JUMPI DUP1 PUSH4 0xB1B16431 EQ PUSH2 0x291 JUMPI DUP1 PUSH4 0xD4B83992 EQ PUSH2 0x2BB JUMPI DUP1 PUSH4 0xD845A4B3 EQ PUSH2 0x2E5 JUMPI DUP1 PUSH4 0xDB638F0B EQ PUSH2 0x325 JUMPI PUSH2 0xE7 JUMP JUMPDEST DUP1 PUSH4 0x5114CB52 EQ PUSH2 0x1FF JUMPI DUP1 PUSH4 0x590E1AE3 EQ PUSH2 0x227 JUMPI DUP1 PUSH4 0x6F9FB98A EQ PUSH2 0x23D JUMPI DUP1 PUSH4 0xAAFFADF3 EQ PUSH2 0x267 JUMPI PUSH2 0xE7 JUMP JUMPDEST DUP1 PUSH4 0x29DCB0CF GT PUSH2 0xC5 JUMPI DUP1 PUSH4 0x29DCB0CF EQ PUSH2 0x159 JUMPI DUP1 PUSH4 0x481C6A75 EQ PUSH2 0x183 JUMPI DUP1 PUSH4 0x4CB6F4A5 EQ PUSH2 0x1AD JUMPI DUP1 PUSH4 0x4E260F6F EQ PUSH2 0x1D5 JUMPI PUSH2 0xE7 JUMP JUMPDEST DUP1 PUSH4 0xE29DF22 EQ PUSH2 0xEB JUMPI DUP1 PUSH4 0x1B16BB5C EQ PUSH2 0xF5 JUMPI DUP1 PUSH4 0x1F6D4942 EQ PUSH2 0x11D JUMPI JUMPDEST PUSH0 DUP1 REVERT JUMPDEST PUSH2 0xF3 PUSH2 0x34F JUMP JUMPDEST STOP JUMPDEST CALLVALUE DUP1 ISZERO PUSH2 0x100 JUMPI PUSH0 DUP1 REVERT JUMPDEST POP PUSH2 0x11B PUSH1 0x4 DUP1 CALLDATASIZE SUB DUP2 ADD SWAP1 PUSH2 0x116 SWAP2 SWAP1 PUSH2 0x102D JUMP JUMPDEST PUSH2 0x4D8 JUMP JUMPDEST STOP JUMPDEST CALLVALUE DUP1 ISZERO PUSH2 0x128 JUMPI PUSH0 DUP1 REVERT JUMPDEST POP PUSH2 0x143 PUSH1 0x4 DUP1 CALLDATASIZE SUB DUP2 ADD SWAP1 PUSH2 0x13E SWAP2 SWAP1 PUSH2 0x10D4 JUMP JUMPDEST PUSH2 0x655 JUMP JUMPDEST PUSH1 0x40 MLOAD PUSH2 0x150 SWAP2 SWAP1 PUSH2 0x110E JUMP JUMPDEST PUSH1 0x40 MLOAD DUP1 SWAP2 SUB SWAP1 RETURN JUMPDEST CALLVALUE DUP1 ISZERO PUSH2 0x164 JUMPI PUSH0 DUP1 REVERT JUMPDEST POP PUSH2 0x16D PUSH2 0x669 JUMP JUMPDEST PUSH1 0x40 MLOAD PUSH2 0x17A SWAP2 SWAP1 PUSH2 0x110E JUMP JUMPDEST PUSH1 0x40 MLOAD DUP1 SWAP2 SUB SWAP1 RETURN JUMPDEST CALLVALUE DUP1 ISZERO PUSH2 0x18E JUMPI PUSH0 DUP1 REVERT JUMPDEST POP PUSH2 0x197 PUSH2 0x66F JUMP JUMPDEST PUSH1 0x40 MLOAD PUSH2 0x1A4 SWAP2 SWAP1 PUSH2 0x1136 JUMP JUMPDEST PUSH1 0x40 MLOAD DUP1 SWAP2 SUB SWAP1 RETURN JUMPDEST CALLVALUE DUP1 ISZERO PUSH2 0x1B8 JUMPI PUSH0 DUP1 REVERT JUMPDEST POP PUSH2 0x1D3 PUSH1 0x4 DUP1 CALLDATASIZE SUB DUP2 ADD SWAP1 PUSH2 0x1CE SWAP2 SWAP1 PUSH2 0x114F JUMP JUMPDEST PUSH2 0x694 JUMP JUMPDEST STOP JUMPDEST CALLVALUE DUP1 ISZERO PUSH2 0x1E0 JUMPI PUSH0 DUP1 REVERT JUMPDEST POP PUSH2 0x1E9 PUSH2 0x86F JUMP JUMPDEST PUSH1 0x40 MLOAD PUSH2 0x1F6 SWAP2 SWAP1 PUSH2 0x110E JUMP JUMPDEST PUSH1 0x40 MLOAD DUP1 SWAP2 SUB SWAP1 RETURN JUMPDEST CALLVALUE DUP1 ISZERO PUSH2 0x20A JUMPI PUSH0 DUP1 REVERT JUMPDEST POP PUSH2 0x225 PUSH1 0x4 DUP1 CALLDATASIZE SUB DUP2 ADD SWAP1 PUSH2 0x220 SWAP2 SWAP1 PUSH2 0x114F JUMP JUMPDEST PUSH2 0x875 JUMP JUMPDEST STOP JUMPDEST CALLVALUE DUP1 ISZERO PUSH2 0x232 JUMPI PUSH0 DUP1 REVERT JUMPDEST POP PUSH2 0x23B PUSH2 0xB7F JUMP JUMPDEST STOP JUMPDEST CALLVALUE DUP1 ISZERO PUSH2 0x248 JUMPI PUSH0 DUP1 REVERT JUMPDEST POP PUSH2 0x251 PUSH2 0xD51 JUMP JUMPDEST PUSH1 0x40 MLOAD PUSH2 0x25E SWAP2 SWAP1 PUSH2 0x110E JUMP JUMPDEST PUSH1 0x40 MLOAD DUP1 SWAP2 SUB SWAP1 RETURN JUMPDEST CALLVALUE DUP1 ISZERO PUSH2 0x272 JUMPI PUSH0 DUP1 REVERT JUMPDEST POP PUSH2 0x27B PUSH2 0xD58 JUMP JUMPDEST PUSH1 0x40 MLOAD PUSH2 0x288 SWAP2 SWAP1 PUSH2 0x110E JUMP JUMPDEST PUSH1 0x40 MLOAD DUP1 SWAP2 SUB SWAP1 RETURN JUMPDEST CALLVALUE DUP1 ISZERO PUSH2 0x29C JUMPI PUSH0 DUP1 REVERT JUMPDEST POP PUSH2 0x2A5 PUSH2 0xD5E JUMP JUMPDEST PUSH1 0x40 MLOAD PUSH2 0x2B2 SWAP2 SWAP1 PUSH2 0x110E JUMP JUMPDEST PUSH1 0x40 MLOAD DUP1 SWAP2 SUB SWAP1 RETURN JUMPDEST CALLVALUE DUP1 ISZERO PUSH2 0x2C6 JUMPI PUSH0 DUP1 REVERT JUMPDEST POP PUSH2 0x2CF PUSH2 0xD64 JUMP JUMPDEST PUSH1 0x40 MLOAD PUSH2 0x2DC SWAP2 SWAP1 PUSH2 0x110E JUMP JUMPDEST PUSH1 0x40 MLOAD DUP1 SWAP2 SUB SWAP1 RETURN JUMPDEST CALLVALUE DUP1 ISZERO PUSH2 0x2F0 JUMPI PUSH0 DUP1 REVERT JUMPDEST POP PUSH2 0x30B PUSH1 0x4 DUP1 CALLDATASIZE SUB DUP2 ADD SWAP1 PUSH2 0x306 SWAP2 SWAP1 PUSH2 0x114F JUMP JUMPDEST PUSH2 0xD6A JUMP JUMPDEST PUSH1 0x40 MLOAD PUSH2 0x31C SWAP6 SWAP5 SWAP4 SWAP3 SWAP2 SWAP1 PUSH2 0x1203 JUMP JUMPDEST PUSH1 0x40 MLOAD DUP1 SWAP2 SUB SWAP1 RETURN JUMPDEST CALLVALUE DUP1 ISZERO PUSH2 0x330 JUMPI PUSH0 DUP1 REVERT JUMPDEST POP PUSH2 0x339 PUSH2 0xE4D JUMP JUMPDEST PUSH1 0x40 MLOAD PUSH2 0x346 SWAP2 SWAP1 PUSH2 0x110E JUMP JUMPDEST PUSH1 0x40 MLOAD DUP1 SWAP2 SUB SWAP1 RETURN JUMPDEST PUSH1 0x3 SLOAD TIMESTAMP LT PUSH2 0x393 JUMPI PUSH1 0x40 MLOAD PUSH32 0x8C379A000000000000000000000000000000000000000000000000000000000 DUP2 MSTORE PUSH1 0x4 ADD PUSH2 0x38A SWAP1 PUSH2 0x12A5 JUMP JUMPDEST PUSH1 0x40 MLOAD DUP1 SWAP2 SUB SWAP1 REVERT JUMPDEST PUSH1 0x2 SLOAD CALLVALUE LT ISZERO PUSH2 0x3D8 JUMPI PUSH1 0x40 MLOAD PUSH32 0x8C379A000000000000000000000000000000000000000000000000000000000 DUP2 MSTORE PUSH1 0x4 ADD PUSH2 0x3CF SWAP1 PUSH2 0x1333 JUMP JUMPDEST PUSH1 0x40 MLOAD DUP1 SWAP2 SUB SWAP1 REVERT JUMPDEST PUSH0 DUP1 PUSH0 CALLER PUSH20 0xFFFFFFFFFFFFFFFFFFFFFFFFFFFFFFFFFFFFFFFF AND PUSH20 0xFFFFFFFFFFFFFFFFFFFFFFFFFFFFFFFFFFFFFFFF AND DUP2 MSTORE PUSH1 0x20 ADD SWAP1 DUP2 MSTORE PUSH1 0x20 ADD PUSH0 KECCAK256 SLOAD SUB PUSH2 0x433 JUMPI PUSH1 0x6 PUSH0 DUP2 SLOAD DUP1 SWAP3 SWAP2 SWAP1 PUSH2 0x42D SWAP1 PUSH2 0x137E JUMP JUMPDEST SWAP2 SWAP1 POP SSTORE POP JUMPDEST CALLVALUE PUSH0 DUP1 CALLER PUSH20 0xFFFFFFFFFFFFFFFFFFFFFFFFFFFFFFFFFFFFFFFF AND PUSH20 0xFFFFFFFFFFFFFFFFFFFFFFFFFFFFFFFFFFFFFFFF AND DUP2 MSTORE PUSH1 0x20 ADD SWAP1 DUP2 MSTORE PUSH1 0x20 ADD PUSH0 KECCAK256 PUSH0 DUP3 DUP3 SLOAD PUSH2 0x47E SWAP2 SWAP1 PUSH2 0x13C5 JUMP JUMPDEST SWAP3 POP POP DUP2 SWAP1 SSTORE POP CALLVALUE PUSH1 0x5 PUSH0 DUP3 DUP3 SLOAD PUSH2 0x496 SWAP2 SWAP1 PUSH2 0x13C5 JUMP JUMPDEST SWAP3 POP POP DUP2 SWAP1 SSTORE POP PUSH32 0x1BB460CCAAF70FBACFEC17A376F8ACBD278C1405590FFCC8EBE4B88DAF4F64AD CALLER CALLVALUE PUSH1 0x40 MLOAD PUSH2 0x4CE SWAP3 SWAP2 SWAP1 PUSH2 0x13F8 JUMP JUMPDEST PUSH1 0x40 MLOAD DUP1 SWAP2 SUB SWAP1 LOG1 JUMP JUMPDEST PUSH1 0x1 PUSH0 SWAP1 SLOAD SWAP1 PUSH2 0x100 EXP SWAP1 DIV PUSH20 0xFFFFFFFFFFFFFFFFFFFFFFFFFFFFFFFFFFFFFFFF AND PUSH20 0xFFFFFFFFFFFFFFFFFFFFFFFFFFFFFFFFFFFFFFFF AND CALLER PUSH20 0xFFFFFFFFFFFFFFFFFFFFFFFFFFFFFFFFFFFFFFFF AND EQ PUSH2 0x567 JUMPI PUSH1 0x40 MLOAD PUSH32 0x8C379A000000000000000000000000000000000000000000000000000000000 DUP2 MSTORE PUSH1 0x4 ADD PUSH2 0x55E SWAP1 PUSH2 0x148F JUMP JUMPDEST PUSH1 0x40 MLOAD DUP1 SWAP2 SUB SWAP1 REVERT JUMPDEST PUSH0 PUSH1 0x7 PUSH0 PUSH1 0x8 SLOAD DUP2 MSTORE PUSH1 0x20 ADD SWAP1 DUP2 MSTORE PUSH1 0x20 ADD PUSH0 KECCAK256 SWAP1 POP PUSH1 0x8 PUSH0 DUP2 SLOAD DUP1 SWAP3 SWAP2 SWAP1 PUSH2 0x58F SWAP1 PUSH2 0x137E JUMP JUMPDEST SWAP2 SWAP1 POP SSTORE POP DUP4 DUP2 PUSH0 ADD SWAP1 DUP2 PUSH2 0x5A4 SWAP2 SWAP1 PUSH2 0x16A7 JUMP JUMPDEST POP DUP3 DUP2 PUSH1 0x1 ADD PUSH0 PUSH2 0x100 EXP DUP2 SLOAD DUP2 PUSH20 0xFFFFFFFFFFFFFFFFFFFFFFFFFFFFFFFFFFFFFFFF MUL NOT AND SWAP1 DUP4 PUSH20 0xFFFFFFFFFFFFFFFFFFFFFFFFFFFFFFFFFFFFFFFF AND MUL OR SWAP1 SSTORE POP DUP2 DUP2 PUSH1 0x2 ADD DUP2 SWAP1 SSTORE POP PUSH0 DUP2 PUSH1 0x3 ADD PUSH0 PUSH2 0x100 EXP DUP2 SLOAD DUP2 PUSH1 0xFF MUL NOT AND SWAP1 DUP4 ISZERO ISZERO MUL OR SWAP1 SSTORE POP PUSH0 DUP2 PUSH1 0x4 ADD DUP2 SWAP1 SSTORE POP PUSH32 0xAD2C96BAA31DF20747319CB87B6904313B0A92712511569294982FF50E198997 DUP5 DUP5 DUP5 PUSH1 0x40 MLOAD PUSH2 0x647 SWAP4 SWAP3 SWAP2 SWAP1 PUSH2 0x17C8 JUMP JUMPDEST PUSH1 0x40 MLOAD DUP1 SWAP2 SUB SWAP1 LOG1 POP POP POP POP JUMP JUMPDEST PUSH0 PUSH1 0x20 MSTORE DUP1 PUSH0 MSTORE PUSH1 0x40 PUSH0 KECCAK256 PUSH0 SWAP2 POP SWAP1 POP SLOAD DUP2 JUMP JUMPDEST PUSH1 0x3 SLOAD DUP2 JUMP JUMPDEST PUSH1 0x1 PUSH0 SWAP1 SLOAD SWAP1 PUSH2 0x100 EXP SWAP1 DIV PUSH20 0xFFFFFFFFFFFFFFFFFFFFFFFFFFFFFFFFFFFFFFFF AND DUP2 JUMP JUMPDEST PUSH1 0x8 SLOAD DUP2 LT PUSH2 0x6D8 JUMPI PUSH1 0x40 MLOAD PUSH32 0x8C379A000000000000000000000000000000000000000000000000000000000 DUP2 MSTORE PUSH1 0x4 ADD PUSH2 0x6CF SWAP1 PUSH2 0x184E JUMP JUMPDEST PUSH1 0x40 MLOAD DUP1 SWAP2 SUB SWAP1 REVERT JUMPDEST PUSH0 DUP1 PUSH0 CALLER PUSH20 0xFFFFFFFFFFFFFFFFFFFFFFFFFFFFFFFFFFFFFFFF AND PUSH20 0xFFFFFFFFFFFFFFFFFFFFFFFFFFFFFFFFFFFFFFFF AND DUP2 MSTORE PUSH1 0x20 ADD SWAP1 DUP2 MSTORE PUSH1 0x20 ADD PUSH0 KECCAK256 SLOAD GT PUSH2 0x756 JUMPI PUSH1 0x40 MLOAD PUSH32 0x8C379A000000000000000000000000000000000000000000000000000000000 DUP2 MSTORE PUSH1 0x4 ADD PUSH2 0x74D SWAP1 PUSH2 0x18B6 JUMP JUMPDEST PUSH1 0x40 MLOAD DUP1 SWAP2 SUB SWAP1 REVERT JUMPDEST PUSH0 PUSH1 0x7 PUSH0 DUP4 DUP2 MSTORE PUSH1 0x20 ADD SWAP1 DUP2 MSTORE PUSH1 0x20 ADD PUSH0 KECCAK256 SWAP1 POP PUSH0 ISZERO ISZERO DUP2 PUSH1 0x5 ADD PUSH0 CALLER PUSH20 0xFFFFFFFFFFFFFFFFFFFFFFFFFFFFFFFFFFFFFFFF AND PUSH20 0xFFFFFFFFFFFFFFFFFFFFFFFFFFFFFFFFFFFFFFFF AND DUP2 MSTORE PUSH1 0x20 ADD SWAP1 DUP2 MSTORE PUSH1 0x20 ADD PUSH0 KECCAK256 PUSH0 SWAP1 SLOAD SWAP1 PUSH2 0x100 EXP SWAP1 DIV PUSH1 0xFF AND ISZERO ISZERO EQ PUSH2 0x7FB JUMPI PUSH1 0x40 MLOAD PUSH32 0x8C379A000000000000000000000000000000000000000000000000000000000 DUP2 MSTORE PUSH1 0x4 ADD PUSH2 0x7F2 SWAP1 PUSH2 0x191E JUMP JUMPDEST PUSH1 0x40 MLOAD DUP1 SWAP2 SUB SWAP1 REVERT JUMPDEST PUSH1 0x1 DUP2 PUSH1 0x5 ADD PUSH0 CALLER PUSH20 0xFFFFFFFFFFFFFFFFFFFFFFFFFFFFFFFFFFFFFFFF AND PUSH20 0xFFFFFFFFFFFFFFFFFFFFFFFFFFFFFFFFFFFFFFFF AND DUP2 MSTORE PUSH1 0x20 ADD SWAP1 DUP2 MSTORE PUSH1 0x20 ADD PUSH0 KECCAK256 PUSH0 PUSH2 0x100 EXP DUP2 SLOAD DUP2 PUSH1 0xFF MUL NOT AND SWAP1 DUP4 ISZERO ISZERO MUL OR SWAP1 SSTORE POP DUP1 PUSH1 0x4 ADD PUSH0 DUP2 SLOAD DUP1 SWAP3 SWAP2 SWAP1 PUSH2 0x866 SWAP1 PUSH2 0x137E JUMP JUMPDEST SWAP2 SWAP1 POP SSTORE POP POP POP JUMP JUMPDEST PUSH1 0x6 SLOAD DUP2 JUMP JUMPDEST PUSH1 0x1 PUSH0 SWAP1 SLOAD SWAP1 PUSH2 0x100 EXP SWAP1 DIV PUSH20 0xFFFFFFFFFFFFFFFFFFFFFFFFFFFFFFFFFFFFFFFF AND PUSH20 0xFFFFFFFFFFFFFFFFFFFFFFFFFFFFFFFFFFFFFFFF AND CALLER PUSH20 0xFFFFFFFFFFFFFFFFFFFFFFFFFFFFFFFFFFFFFFFF AND EQ PUSH2 0x904 JUMPI PUSH1 0x40 MLOAD PUSH32 0x8C379A000000000000000000000000000000000000000000000000000000000 DUP2 MSTORE PUSH1 0x4 ADD PUSH2 0x8FB SWAP1 PUSH2 0x148F JUMP JUMPDEST PUSH1 0x40 MLOAD DUP1 SWAP2 SUB SWAP1 REVERT JUMPDEST PUSH1 0x8 SLOAD DUP2 LT PUSH2 0x948 JUMPI PUSH1 0x40 MLOAD PUSH32 0x8C379A000000000000000000000000000000000000000000000000000000000 DUP2 MSTORE PUSH1 0x4 ADD PUSH2 0x93F SWAP1 PUSH2 0x184E JUMP JUMPDEST PUSH1 0x40 MLOAD DUP1 SWAP2 SUB SWAP1 REVERT JUMPDEST PUSH1 0x4 SLOAD PUSH1 0x5 SLOAD LT ISZERO PUSH2 0x98F JUMPI PUSH1 0x40 MLOAD PUSH32 0x8C379A000000000000000000000000000000000000000000000000000000000 DUP2 MSTORE PUSH1 0x4 ADD PUSH2 0x986 SWAP1 PUSH2 0x1986 JUMP JUMPDEST PUSH1 0x40 MLOAD DUP1 SWAP2 SUB SWAP1 REVERT JUMPDEST PUSH0 PUSH1 0x7 PUSH0 DUP4 DUP2 MSTORE PUSH1 0x20 ADD SWAP1 DUP2 MSTORE PUSH1 0x20 ADD PUSH0 KECCAK256 SWAP1 POP PUSH0 ISZERO ISZERO DUP2 PUSH1 0x3 ADD PUSH0 SWAP1 SLOAD SWAP1 PUSH2 0x100 EXP SWAP1 DIV PUSH1 0xFF AND ISZERO ISZERO EQ PUSH2 0x9F9 JUMPI PUSH1 0x40 MLOAD PUSH32 0x8C379A000000000000000000000000000000000000000000000000000000000 DUP2 MSTORE PUSH1 0x4 ADD PUSH2 0x9F0 SWAP1 PUSH2 0x19EE JUMP JUMPDEST PUSH1 0x40 MLOAD DUP1 SWAP2 SUB SWAP1 REVERT JUMPDEST PUSH1 0x2 PUSH1 0x6 SLOAD PUSH2 0xA08 SWAP2 SWAP1 PUSH2 0x1A39 JUMP JUMPDEST DUP2 PUSH1 0x4 ADD SLOAD GT PUSH2 0xA4D JUMPI PUSH1 0x40 MLOAD PUSH32 0x8C379A000000000000000000000000000000000000000000000000000000000 DUP2 MSTORE PUSH1 0x4 ADD PUSH2 0xA44 SWAP1 PUSH2 0x1AB3 JUMP JUMPDEST PUSH1 0x40 MLOAD DUP1 SWAP2 SUB SWAP1 REVERT JUMPDEST SELFBALANCE DUP2 PUSH1 0x2 ADD SLOAD GT ISZERO PUSH2 0xA94 JUMPI PUSH1 0x40 MLOAD PUSH32 0x8C379A000000000000000000000000000000000000000000000000000000000 DUP2 MSTORE PUSH1 0x4 ADD PUSH2 0xA8B SWAP1 PUSH2 0x1B1B JUMP JUMPDEST PUSH1 0x40 MLOAD DUP1 SWAP2 SUB SWAP1 REVERT JUMPDEST DUP1 PUSH1 0x1 ADD PUSH0 SWAP1 SLOAD SWAP1 PUSH2 0x100 EXP SWAP1 DIV PUSH20 0xFFFFFFFFFFFFFFFFFFFFFFFFFFFFFFFFFFFFFFFF AND PUSH20 0xFFFFFFFFFFFFFFFFFFFFFFFFFFFFFFFFFFFFFFFF AND PUSH2 0x8FC DUP3 PUSH1 0x2 ADD SLOAD SWAP1 DUP2 ISZERO MUL SWAP1 PUSH1 0x40 MLOAD PUSH0 PUSH1 0x40 MLOAD DUP1 DUP4 SUB DUP2 DUP6 DUP9 DUP9 CALL SWAP4 POP POP POP POP ISZERO DUP1 ISZERO PUSH2 0xAFE JUMPI RETURNDATASIZE PUSH0 DUP1 RETURNDATACOPY RETURNDATASIZE PUSH0 REVERT JUMPDEST POP PUSH1 0x1 DUP2 PUSH1 0x3 ADD PUSH0 PUSH2 0x100 EXP DUP2 SLOAD DUP2 PUSH1 0xFF MUL NOT AND SWAP1 DUP4 ISZERO ISZERO MUL OR SWAP1 SSTORE POP PUSH32 0x3A2D0E41C506B136330C6E5E0295CCBF0966DAECE99BFE7C89020CC01DBFB8D6 DUP2 PUSH1 0x1 ADD PUSH0 SWAP1 SLOAD SWAP1 PUSH2 0x100 EXP SWAP1 DIV PUSH20 0xFFFFFFFFFFFFFFFFFFFFFFFFFFFFFFFFFFFFFFFF AND DUP3 PUSH1 0x2 ADD SLOAD PUSH1 0x40 MLOAD PUSH2 0xB73 SWAP3 SWAP2 SWAP1 PUSH2 0x1B39 JUMP JUMPDEST PUSH1 0x40 MLOAD DUP1 SWAP2 SUB SWAP1 LOG1 POP POP JUMP JUMPDEST PUSH1 0x3 SLOAD TIMESTAMP GT DUP1 ISZERO PUSH2 0xB93 JUMPI POP PUSH1 0x4 SLOAD PUSH1 0x5 SLOAD LT JUMPDEST PUSH2 0xBD2 JUMPI PUSH1 0x40 MLOAD PUSH32 0x8C379A000000000000000000000000000000000000000000000000000000000 DUP2 MSTORE PUSH1 0x4 ADD PUSH2 0xBC9 SWAP1 PUSH2 0x1BAA JUMP JUMPDEST PUSH1 0x40 MLOAD DUP1 SWAP2 SUB SWAP1 REVERT JUMPDEST PUSH0 DUP1 PUSH0 CALLER PUSH20 0xFFFFFFFFFFFFFFFFFFFFFFFFFFFFFFFFFFFFFFFF AND PUSH20 0xFFFFFFFFFFFFFFFFFFFFFFFFFFFFFFFFFFFFFFFF AND DUP2 MSTORE PUSH1 0x20 ADD SWAP1 DUP2 MSTORE PUSH1 0x20 ADD PUSH0 KECCAK256 SLOAD GT PUSH2 0xC50 JUMPI PUSH1 0x40 MLOAD PUSH32 0x8C379A000000000000000000000000000000000000000000000000000000000 DUP2 MSTORE PUSH1 0x4 ADD PUSH2 0xC47 SWAP1 PUSH2 0x1C12 JUMP JUMPDEST PUSH1 0x40 MLOAD DUP1 SWAP2 SUB SWAP1 REVERT JUMPDEST PUSH0 DUP1 PUSH0 CALLER PUSH20 0xFFFFFFFFFFFFFFFFFFFFFFFFFFFFFFFFFFFFFFFF AND PUSH20 0xFFFFFFFFFFFFFFFFFFFFFFFFFFFFFFFFFFFFFFFF AND DUP2 MSTORE PUSH1 0x20 ADD SWAP1 DUP2 MSTORE PUSH1 0x20 ADD PUSH0 KECCAK256 SLOAD SWAP1 POP PUSH0 DUP1 PUSH0 CALLER PUSH20 0xFFFFFFFFFFFFFFFFFFFFFFFFFFFFFFFFFFFFFFFF AND PUSH20 0xFFFFFFFFFFFFFFFFFFFFFFFFFFFFFFFFFFFFFFFF AND DUP2 MSTORE PUSH1 0x20 ADD SWAP1 DUP2 MSTORE PUSH1 0x20 ADD PUSH0 KECCAK256 DUP2 SWAP1 SSTORE POP CALLER PUSH20 0xFFFFFFFFFFFFFFFFFFFFFFFFFFFFFFFFFFFFFFFF AND PUSH2 0x8FC DUP3 SWAP1 DUP2 ISZERO MUL SWAP1 PUSH1 0x40 MLOAD PUSH0 PUSH1 0x40 MLOAD DUP1 DUP4 SUB DUP2 DUP6 DUP9 DUP9 CALL SWAP4 POP POP POP POP ISZERO DUP1 ISZERO PUSH2 0xD14 JUMPI RETURNDATASIZE PUSH0 DUP1 RETURNDATACOPY RETURNDATASIZE PUSH0 REVERT JUMPDEST POP PUSH32 0xA171B6942063C6F2800CE40A780EDCE37BAA2B618571B11EEDD1E69E626E7D76 CALLER DUP3 PUSH1 0x40 MLOAD PUSH2 0xD46 SWAP3 SWAP2 SWAP1 PUSH2 0x13F8 JUMP JUMPDEST PUSH1 0x40 MLOAD DUP1 SWAP2 SUB SWAP1 LOG1 POP JUMP JUMPDEST PUSH0 SELFBALANCE SWAP1 POP SWAP1 JUMP JUMPDEST PUSH1 0x2 SLOAD DUP2 JUMP JUMPDEST PUSH1 0x8 SLOAD DUP2 JUMP JUMPDEST PUSH1 0x4 SLOAD DUP2 JUMP JUMPDEST PUSH1 0x7 PUSH1 0x20 MSTORE DUP1 PUSH0 MSTORE PUSH1 0x40 PUSH0 KECCAK256 PUSH0 SWAP2 POP SWAP1 POP DUP1 PUSH0 ADD DUP1 SLOAD PUSH2 0xD89 SWAP1 PUSH2 0x14DA JUMP JUMPDEST DUP1 PUSH1 0x1F ADD PUSH1 0x20 DUP1 SWAP2 DIV MUL PUSH1 0x20 ADD PUSH1 0x40 MLOAD SWAP1 DUP2 ADD PUSH1 0x40 MSTORE DUP1 SWAP3 SWAP2 SWAP1 DUP2 DUP2 MSTORE PUSH1 0x20 ADD DUP3 DUP1 SLOAD PUSH2 0xDB5 SWAP1 PUSH2 0x14DA JUMP JUMPDEST DUP1 ISZERO PUSH2 0xE00 JUMPI DUP1 PUSH1 0x1F LT PUSH2 0xDD7 JUMPI PUSH2 0x100 DUP1 DUP4 SLOAD DIV MUL DUP4 MSTORE SWAP2 PUSH1 0x20 ADD SWAP2 PUSH2 0xE00 JUMP JUMPDEST DUP3 ADD SWAP2 SWAP1 PUSH0 MSTORE PUSH1 0x20 PUSH0 KECCAK256 SWAP1 JUMPDEST DUP2 SLOAD DUP2 MSTORE SWAP1 PUSH1 0x1 ADD SWAP1 PUSH1 0x20 ADD DUP1 DUP4 GT PUSH2 0xDE3 JUMPI DUP3 SWAP1 SUB PUSH1 0x1F AND DUP3 ADD SWAP2 JUMPDEST POP POP POP POP POP SWAP1 DUP1 PUSH1 0x1 ADD PUSH0 SWAP1 SLOAD SWAP1 PUSH2 0x100 EXP SWAP1 DIV PUSH20 0xFFFFFFFFFFFFFFFFFFFFFFFFFFFFFFFFFFFFFFFF AND SWAP1 DUP1 PUSH1 0x2 ADD SLOAD SWAP1 DUP1 PUSH1 0x3 ADD PUSH0 SWAP1 SLOAD SWAP1 PUSH2 0x100 EXP SWAP1 DIV PUSH1 0xFF AND SWAP1 DUP1 PUSH1 0x4 ADD SLOAD SWAP1 POP DUP6 JUMP JUMPDEST PUSH1 0x5 SLOAD DUP2 JUMP JUMPDEST PUSH0 PUSH1 0x40 MLOAD SWAP1 POP SWAP1 JUMP JUMPDEST PUSH0 DUP1 REVERT JUMPDEST PUSH0 DUP1 REVERT JUMPDEST PUSH0 DUP1 REVERT JUMPDEST PUSH0 DUP1 REVERT JUMPDEST PUSH0 PUSH1 0x1F NOT PUSH1 0x1F DUP4 ADD AND SWAP1 POP SWAP2 SWAP1 POP JUMP JUMPDEST PUSH32 0x4E487B7100000000000000000000000000000000000000000000000000000000 PUSH0 MSTORE PUSH1 0x41 PUSH1 0x4 MSTORE PUSH1 0x24 PUSH0 REVERT JUMPDEST PUSH2 0xEB2 DUP3 PUSH2 0xE6C JUMP JUMPDEST DUP2 ADD DUP2 DUP2 LT PUSH8 0xFFFFFFFFFFFFFFFF DUP3 GT OR ISZERO PUSH2 0xED1 JUMPI PUSH2 0xED0 PUSH2 0xE7C JUMP JUMPDEST JUMPDEST DUP1 PUSH1 0x40 MSTORE POP POP POP JUMP JUMPDEST PUSH0 PUSH2 0xEE3 PUSH2 0xE53 JUMP JUMPDEST SWAP1 POP PUSH2 0xEEF DUP3 DUP3 PUSH2 0xEA9 JUMP JUMPDEST SWAP2 SWAP1 POP JUMP JUMPDEST PUSH0 PUSH8 0xFFFFFFFFFFFFFFFF DUP3 GT ISZERO PUSH2 0xF0E JUMPI PUSH2 0xF0D PUSH2 0xE7C JUMP JUMPDEST JUMPDEST PUSH2 0xF17 DUP3 PUSH2 0xE6C JUMP JUMPDEST SWAP1 POP PUSH1 0x20 DUP2 ADD SWAP1 POP SWAP2 SWAP1 POP JUMP JUMPDEST DUP3 DUP2 DUP4 CALLDATACOPY PUSH0 DUP4 DUP4 ADD MSTORE POP POP POP JUMP JUMPDEST PUSH0 PUSH2 0xF44 PUSH2 0xF3F DUP5 PUSH2 0xEF4 JUMP JUMPDEST PUSH2 0xEDA JUMP JUMPDEST SWAP1 POP DUP3 DUP2 MSTORE PUSH1 0x20 DUP2 ADD DUP5 DUP5 DUP5 ADD GT ISZERO PUSH2 0xF60 JUMPI PUSH2 0xF5F PUSH2 0xE68 JUMP JUMPDEST JUMPDEST PUSH2 0xF6B DUP5 DUP3 DUP6 PUSH2 0xF24 JUMP JUMPDEST POP SWAP4 SWAP3 POP POP POP JUMP JUMPDEST PUSH0 DUP3 PUSH1 0x1F DUP4 ADD SLT PUSH2 0xF87 JUMPI PUSH2 0xF86 PUSH2 0xE64 JUMP JUMPDEST JUMPDEST DUP2 CALLDATALOAD PUSH2 0xF97 DUP5 DUP3 PUSH1 0x20 DUP7 ADD PUSH2 0xF32 JUMP JUMPDEST SWAP2 POP POP SWAP3 SWAP2 POP POP JUMP JUMPDEST PUSH0 PUSH20 0xFFFFFFFFFFFFFFFFFFFFFFFFFFFFFFFFFFFFFFFF DUP3 AND SWAP1 POP SWAP2 SWAP1 POP JUMP JUMPDEST PUSH0 PUSH2 0xFC9 DUP3 PUSH2 0xFA0 JUMP JUMPDEST SWAP1 POP SWAP2 SWAP1 POP JUMP JUMPDEST PUSH2 0xFD9 DUP2 PUSH2 0xFBF JUMP JUMPDEST DUP2 EQ PUSH2 0xFE3 JUMPI PUSH0 DUP1 REVERT JUMPDEST POP JUMP JUMPDEST PUSH0 DUP2 CALLDATALOAD SWAP1 POP PUSH2 0xFF4 DUP2 PUSH2 0xFD0 JUMP JUMPDEST SWAP3 SWAP2 POP POP JUMP JUMPDEST PUSH0 DUP2 SWAP1 POP SWAP2 SWAP1 POP JUMP JUMPDEST PUSH2 0x100C DUP2 PUSH2 0xFFA JUMP JUMPDEST DUP2 EQ PUSH2 0x1016 JUMPI PUSH0 DUP1 REVERT JUMPDEST POP JUMP JUMPDEST PUSH0 DUP2 CALLDATALOAD SWAP1 POP PUSH2 0x1027 DUP2 PUSH2 0x1003 JUMP JUMPDEST SWAP3 SWAP2 POP POP JUMP JUMPDEST PUSH0 DUP1 PUSH0 PUSH1 0x60 DUP5 DUP7 SUB SLT ISZERO PUSH2 0x1044 JUMPI PUSH2 0x1043 PUSH2 0xE5C JUMP JUMPDEST JUMPDEST PUSH0 DUP5 ADD CALLDATALOAD PUSH8 0xFFFFFFFFFFFFFFFF DUP2 GT ISZERO PUSH2 0x1061 JUMPI PUSH2 0x1060 PUSH2 0xE60 JUMP JUMPDEST JUMPDEST PUSH2 0x106D DUP7 DUP3 DUP8 ADD PUSH2 0xF73 JUMP JUMPDEST SWAP4 POP POP PUSH1 0x20 PUSH2 0x107E DUP7 DUP3 DUP8 ADD PUSH2 0xFE6 JUMP JUMPDEST SWAP3 POP POP PUSH1 0x40 PUSH2 0x108F DUP7 DUP3 DUP8 ADD PUSH2 0x1019 JUMP JUMPDEST SWAP2 POP POP SWAP3 POP SWAP3 POP SWAP3 JUMP JUMPDEST PUSH0 PUSH2 0x10A3 DUP3 PUSH2 0xFA0 JUMP JUMPDEST SWAP1 POP SWAP2 SWAP1 POP JUMP JUMPDEST PUSH2 0x10B3 DUP2 PUSH2 0x1099 JUMP JUMPDEST DUP2 EQ PUSH2 0x10BD JUMPI PUSH0 DUP1 REVERT JUMPDEST POP JUMP JUMPDEST PUSH0 DUP2 CALLDATALOAD SWAP1 POP PUSH2 0x10CE DUP2 PUSH2 0x10AA JUMP JUMPDEST SWAP3 SWAP2 POP POP JUMP JUMPDEST PUSH0 PUSH1 0x20 DUP3 DUP5 SUB SLT ISZERO PUSH2 0x10E9 JUMPI PUSH2 0x10E8 PUSH2 0xE5C JUMP JUMPDEST JUMPDEST PUSH0 PUSH2 0x10F6 DUP5 DUP3 DUP6 ADD PUSH2 0x10C0 JUMP JUMPDEST SWAP2 POP POP SWAP3 SWAP2 POP POP JUMP JUMPDEST PUSH2 0x1108 DUP2 PUSH2 0xFFA JUMP JUMPDEST DUP3 MSTORE POP POP JUMP JUMPDEST PUSH0 PUSH1 0x20 DUP3 ADD SWAP1 POP PUSH2 0x1121 PUSH0 DUP4 ADD DUP5 PUSH2 0x10FF JUMP JUMPDEST SWAP3 SWAP2 POP POP JUMP JUMPDEST PUSH2 0x1130 DUP2 PUSH2 0x1099 JUMP JUMPDEST DUP3 MSTORE POP POP JUMP JUMPDEST PUSH0 PUSH1 0x20 DUP3 ADD SWAP1 POP PUSH2 0x1149 PUSH0 DUP4 ADD DUP5 PUSH2 0x1127 JUMP JUMPDEST SWAP3 SWAP2 POP POP JUMP JUMPDEST PUSH0 PUSH1 0x20 DUP3 DUP5 SUB SLT ISZERO PUSH2 0x1164 JUMPI PUSH2 0x1163 PUSH2 0xE5C JUMP JUMPDEST JUMPDEST PUSH0 PUSH2 0x1171 DUP5 DUP3 DUP6 ADD PUSH2 0x1019 JUMP JUMPDEST SWAP2 POP POP SWAP3 SWAP2 POP POP JUMP JUMPDEST PUSH0 DUP2 MLOAD SWAP1 POP SWAP2 SWAP1 POP JUMP JUMPDEST PUSH0 DUP3 DUP3 MSTORE PUSH1 0x20 DUP3 ADD SWAP1 POP SWAP3 SWAP2 POP POP JUMP JUMPDEST DUP3 DUP2 DUP4 MCOPY PUSH0 DUP4 DUP4 ADD MSTORE POP POP POP JUMP JUMPDEST PUSH0 PUSH2 0x11AC DUP3 PUSH2 0x117A JUMP JUMPDEST PUSH2 0x11B6 DUP2 DUP6 PUSH2 0x1184 JUMP JUMPDEST SWAP4 POP PUSH2 0x11C6 DUP2 DUP6 PUSH1 0x20 DUP7 ADD PUSH2 0x1194 JUMP JUMPDEST PUSH2 0x11CF DUP2 PUSH2 0xE6C JUMP JUMPDEST DUP5 ADD SWAP2 POP POP SWAP3 SWAP2 POP POP JUMP JUMPDEST PUSH2 0x11E3 DUP2 PUSH2 0xFBF JUMP JUMPDEST DUP3 MSTORE POP POP JUMP JUMPDEST PUSH0 DUP2 ISZERO ISZERO SWAP1 POP SWAP2 SWAP1 POP JUMP JUMPDEST PUSH2 0x11FD DUP2 PUSH2 0x11E9 JUMP JUMPDEST DUP3 MSTORE POP POP JUMP JUMPDEST PUSH0 PUSH1 0xA0 DUP3 ADD SWAP1 POP DUP2 DUP2 SUB PUSH0 DUP4 ADD MSTORE PUSH2 0x121B DUP2 DUP9 PUSH2 0x11A2 JUMP JUMPDEST SWAP1 POP PUSH2 0x122A PUSH1 0x20 DUP4 ADD DUP8 PUSH2 0x11DA JUMP JUMPDEST PUSH2 0x1237 PUSH1 0x40 DUP4 ADD DUP7 PUSH2 0x10FF JUMP JUMPDEST PUSH2 0x1244 PUSH1 0x60 DUP4 ADD DUP6 PUSH2 0x11F4 JUMP JUMPDEST PUSH2 0x1251 PUSH1 0x80 DUP4 ADD DUP5 PUSH2 0x10FF JUMP JUMPDEST SWAP7 SWAP6 POP POP POP POP POP POP JUMP JUMPDEST PUSH32 0x54686520646561646C696E652068617320706173736564000000000000000000 PUSH0 DUP3 ADD MSTORE POP JUMP JUMPDEST PUSH0 PUSH2 0x128F PUSH1 0x17 DUP4 PUSH2 0x1184 JUMP JUMPDEST SWAP2 POP PUSH2 0x129A DUP3 PUSH2 0x125B JUMP JUMPDEST PUSH1 0x20 DUP3 ADD SWAP1 POP SWAP2 SWAP1 POP JUMP JUMPDEST PUSH0 PUSH1 0x20 DUP3 ADD SWAP1 POP DUP2 DUP2 SUB PUSH0 DUP4 ADD MSTORE PUSH2 0x12BC DUP2 PUSH2 0x1283 JUMP JUMPDEST SWAP1 POP SWAP2 SWAP1 POP JUMP JUMPDEST PUSH32 0x596F75206E65656420746F20636F6E74726962757465206174206C6561737420 PUSH0 DUP3 ADD MSTORE PUSH32 0x3130302077656900000000000000000000000000000000000000000000000000 PUSH1 0x20 DUP3 ADD MSTORE POP JUMP JUMPDEST PUSH0 PUSH2 0x131D PUSH1 0x27 DUP4 PUSH2 0x1184 JUMP JUMPDEST SWAP2 POP PUSH2 0x1328 DUP3 PUSH2 0x12C3 JUMP JUMPDEST PUSH1 0x40 DUP3 ADD SWAP1 POP SWAP2 SWAP1 POP JUMP JUMPDEST PUSH0 PUSH1 0x20 DUP3 ADD SWAP1 POP DUP2 DUP2 SUB PUSH0 DUP4 ADD MSTORE PUSH2 0x134A DUP2 PUSH2 0x1311 JUMP JUMPDEST SWAP1 POP SWAP2 SWAP1 POP JUMP JUMPDEST PUSH32 0x4E487B7100000000000000000000000000000000000000000000000000000000 PUSH0 MSTORE PUSH1 0x11 PUSH1 0x4 MSTORE PUSH1 0x24 PUSH0 REVERT JUMPDEST PUSH0 PUSH2 0x1388 DUP3 PUSH2 0xFFA JUMP JUMPDEST SWAP2 POP PUSH32 0xFFFFFFFFFFFFFFFFFFFFFFFFFFFFFFFFFFFFFFFFFFFFFFFFFFFFFFFFFFFFFFFF DUP3 SUB PUSH2 0x13BA JUMPI PUSH2 0x13B9 PUSH2 0x1351 JUMP JUMPDEST JUMPDEST PUSH1 0x1 DUP3 ADD SWAP1 POP SWAP2 SWAP1 POP JUMP JUMPDEST PUSH0 PUSH2 0x13CF DUP3 PUSH2 0xFFA JUMP JUMPDEST SWAP2 POP PUSH2 0x13DA DUP4 PUSH2 0xFFA JUMP JUMPDEST SWAP3 POP DUP3 DUP3 ADD SWAP1 POP DUP1 DUP3 GT ISZERO PUSH2 0x13F2 JUMPI PUSH2 0x13F1 PUSH2 0x1351 JUMP JUMPDEST JUMPDEST SWAP3 SWAP2 POP POP JUMP JUMPDEST PUSH0 PUSH1 0x40 DUP3 ADD SWAP1 POP PUSH2 0x140B PUSH0 DUP4 ADD DUP6 PUSH2 0x1127 JUMP JUMPDEST PUSH2 0x1418 PUSH1 0x20 DUP4 ADD DUP5 PUSH2 0x10FF JUMP JUMPDEST SWAP4 SWAP3 POP POP POP JUMP JUMPDEST PUSH32 0x4F6E6C79206D616E616765722063616E2063616C6C20746869732066756E6374 PUSH0 DUP3 ADD MSTORE PUSH32 0x696F6E0000000000000000000000000000000000000000000000000000000000 PUSH1 0x20 DUP3 ADD MSTORE POP JUMP JUMPDEST PUSH0 PUSH2 0x1479 PUSH1 0x23 DUP4 PUSH2 0x1184 JUMP JUMPDEST SWAP2 POP PUSH2 0x1484 DUP3 PUSH2 0x141F JUMP JUMPDEST PUSH1 0x40 DUP3 ADD SWAP1 POP SWAP2 SWAP1 POP JUMP JUMPDEST PUSH0 PUSH1 0x20 DUP3 ADD SWAP1 POP DUP2 DUP2 SUB PUSH0 DUP4 ADD MSTORE PUSH2 0x14A6 DUP2 PUSH2 0x146D JUMP JUMPDEST SWAP1 POP SWAP2 SWAP1 POP JUMP JUMPDEST PUSH32 0x4E487B7100000000000000000000000000000000000000000000000000000000 PUSH0 MSTORE PUSH1 0x22 PUSH1 0x4 MSTORE PUSH1 0x24 PUSH0 REVERT JUMPDEST PUSH0 PUSH1 0x2 DUP3 DIV SWAP1 POP PUSH1 0x1 DUP3 AND DUP1 PUSH2 0x14F1 JUMPI PUSH1 0x7F DUP3 AND SWAP2 POP JUMPDEST PUSH1 0x20 DUP3 LT DUP2 SUB PUSH2 0x1504 JUMPI PUSH2 0x1503 PUSH2 0x14AD JUMP JUMPDEST JUMPDEST POP SWAP2 SWAP1 POP JUMP JUMPDEST PUSH0 DUP2 SWAP1 POP DUP2 PUSH0 MSTORE PUSH1 0x20 PUSH0 KECCAK256 SWAP1 POP SWAP2 SWAP1 POP JUMP JUMPDEST PUSH0 PUSH1 0x20 PUSH1 0x1F DUP4 ADD DIV SWAP1 POP SWAP2 SWAP1 POP JUMP JUMPDEST PUSH0 DUP3 DUP3 SHL SWAP1 POP SWAP3 SWAP2 POP POP JUMP JUMPDEST PUSH0 PUSH1 0x8 DUP4 MUL PUSH2 0x1566 PUSH32 0xFFFFFFFFFFFFFFFFFFFFFFFFFFFFFFFFFFFFFFFFFFFFFFFFFFFFFFFFFFFFFFFF DUP3 PUSH2 0x152B JUMP JUMPDEST PUSH2 0x1570 DUP7 DUP4 PUSH2 0x152B JUMP JUMPDEST SWAP6 POP DUP1 NOT DUP5 AND SWAP4 POP DUP1 DUP7 AND DUP5 OR SWAP3 POP POP POP SWAP4 SWAP3 POP POP POP JUMP JUMPDEST PUSH0 DUP2 SWAP1 POP SWAP2 SWAP1 POP JUMP JUMPDEST PUSH0 PUSH2 0x15AB PUSH2 0x15A6 PUSH2 0x15A1 DUP5 PUSH2 0xFFA JUMP JUMPDEST PUSH2 0x1588 JUMP JUMPDEST PUSH2 0xFFA JUMP JUMPDEST SWAP1 POP SWAP2 SWAP1 POP JUMP JUMPDEST PUSH0 DUP2 SWAP1 POP SWAP2 SWAP1 POP JUMP JUMPDEST PUSH2 0x15C4 DUP4 PUSH2 0x1591 JUMP JUMPDEST PUSH2 0x15D8 PUSH2 0x15D0 DUP3 PUSH2 0x15B2 JUMP JUMPDEST DUP5 DUP5 SLOAD PUSH2 0x1537 JUMP JUMPDEST DUP3 SSTORE POP POP POP POP JUMP JUMPDEST PUSH0 SWAP1 JUMP JUMPDEST PUSH2 0x15EC PUSH2 0x15E0 JUMP JUMPDEST PUSH2 0x15F7 DUP2 DUP5 DUP5 PUSH2 0x15BB JUMP JUMPDEST POP POP POP JUMP JUMPDEST JUMPDEST DUP2 DUP2 LT ISZERO PUSH2 0x161A JUMPI PUSH2 0x160F PUSH0 DUP3 PUSH2 0x15E4 JUMP JUMPDEST PUSH1 0x1 DUP2 ADD SWAP1 POP PUSH2 0x15FD JUMP JUMPDEST POP POP JUMP JUMPDEST PUSH1 0x1F DUP3 GT ISZERO PUSH2 0x165F JUMPI PUSH2 0x1630 DUP2 PUSH2 0x150A JUMP JUMPDEST PUSH2 0x1639 DUP5 PUSH2 0x151C JUMP JUMPDEST DUP2 ADD PUSH1 0x20 DUP6 LT ISZERO PUSH2 0x1648 JUMPI DUP2 SWAP1 POP JUMPDEST PUSH2 0x165C PUSH2 0x1654 DUP6 PUSH2 0x151C JUMP JUMPDEST DUP4 ADD DUP3 PUSH2 0x15FC JUMP JUMPDEST POP POP JUMPDEST POP POP POP JUMP JUMPDEST PUSH0 DUP3 DUP3 SHR SWAP1 POP SWAP3 SWAP2 POP POP JUMP JUMPDEST PUSH0 PUSH2 0x167F PUSH0 NOT DUP5 PUSH1 0x8 MUL PUSH2 0x1664 JUMP JUMPDEST NOT DUP1 DUP4 AND SWAP2 POP POP SWAP3 SWAP2 POP POP JUMP JUMPDEST PUSH0 PUSH2 0x1697 DUP4 DUP4 PUSH2 0x1670 JUMP JUMPDEST SWAP2 POP DUP3 PUSH1 0x2 MUL DUP3 OR SWAP1 POP SWAP3 SWAP2 POP POP JUMP JUMPDEST PUSH2 0x16B0 DUP3 PUSH2 0x117A JUMP JUMPDEST PUSH8 0xFFFFFFFFFFFFFFFF DUP2 GT ISZERO PUSH2 0x16C9 JUMPI PUSH2 0x16C8 PUSH2 0xE7C JUMP JUMPDEST JUMPDEST PUSH2 0x16D3 DUP3 SLOAD PUSH2 0x14DA JUMP JUMPDEST PUSH2 0x16DE DUP3 DUP3 DUP6 PUSH2 0x161E JUMP JUMPDEST PUSH0 PUSH1 0x20 SWAP1 POP PUSH1 0x1F DUP4 GT PUSH1 0x1 DUP2 EQ PUSH2 0x170F JUMPI PUSH0 DUP5 ISZERO PUSH2 0x16FD JUMPI DUP3 DUP8 ADD MLOAD SWAP1 POP JUMPDEST PUSH2 0x1707 DUP6 DUP3 PUSH2 0x168C JUMP JUMPDEST DUP7 SSTORE POP PUSH2 0x176E JUMP JUMPDEST PUSH1 0x1F NOT DUP5 AND PUSH2 0x171D DUP7 PUSH2 0x150A JUMP JUMPDEST PUSH0 JUMPDEST DUP3 DUP2 LT ISZERO PUSH2 0x1744 JUMPI DUP5 DUP10 ADD MLOAD DUP3 SSTORE PUSH1 0x1 DUP3 ADD SWAP2 POP PUSH1 0x20 DUP6 ADD SWAP5 POP PUSH1 0x20 DUP2 ADD SWAP1 POP PUSH2 0x171F JUMP JUMPDEST DUP7 DUP4 LT ISZERO PUSH2 0x1761 JUMPI DUP5 DUP10 ADD MLOAD PUSH2 0x175D PUSH1 0x1F DUP10 AND DUP3 PUSH2 0x1670 JUMP JUMPDEST DUP4 SSTORE POP JUMPDEST PUSH1 0x1 PUSH1 0x2 DUP9 MUL ADD DUP9 SSTORE POP POP POP JUMPDEST POP POP POP POP POP POP JUMP JUMPDEST PUSH0 PUSH2 0x1790 PUSH2 0x178B PUSH2 0x1786 DUP5 PUSH2 0xFA0 JUMP JUMPDEST PUSH2 0x1588 JUMP JUMPDEST PUSH2 0xFA0 JUMP JUMPDEST SWAP1 POP SWAP2 SWAP1 POP JUMP JUMPDEST PUSH0 PUSH2 0x17A1 DUP3 PUSH2 0x1776 JUMP JUMPDEST SWAP1 POP SWAP2 SWAP1 POP JUMP JUMPDEST PUSH0 PUSH2 0x17B2 DUP3 PUSH2 0x1797 JUMP JUMPDEST SWAP1 POP SWAP2 SWAP1 POP JUMP JUMPDEST PUSH2 0x17C2 DUP2 PUSH2 0x17A8 JUMP JUMPDEST DUP3 MSTORE POP POP JUMP JUMPDEST PUSH0 PUSH1 0x60 DUP3 ADD SWAP1 POP DUP2 DUP2 SUB PUSH0 DUP4 ADD MSTORE PUSH2 0x17E0 DUP2 DUP7 PUSH2 0x11A2 JUMP JUMPDEST SWAP1 POP PUSH2 0x17EF PUSH1 0x20 DUP4 ADD DUP6 PUSH2 0x17B9 JUMP JUMPDEST PUSH2 0x17FC PUSH1 0x40 DUP4 ADD DUP5 PUSH2 0x10FF JUMP JUMPDEST SWAP5 SWAP4 POP POP POP POP JUMP JUMPDEST PUSH32 0x5265717565737420646F6573206E6F7420657869737400000000000000000000 PUSH0 DUP3 ADD MSTORE POP JUMP JUMPDEST PUSH0 PUSH2 0x1838 PUSH1 0x16 DUP4 PUSH2 0x1184 JUMP JUMPDEST SWAP2 POP PUSH2 0x1843 DUP3 PUSH2 0x1804 JUMP JUMPDEST PUSH1 0x20 DUP3 ADD SWAP1 POP SWAP2 SWAP1 POP JUMP JUMPDEST PUSH0 PUSH1 0x20 DUP3 ADD SWAP1 POP DUP2 DUP2 SUB PUSH0 DUP4 ADD MSTORE PUSH2 0x1865 DUP2 PUSH2 0x182C JUMP JUMPDEST SWAP1 POP SWAP2 SWAP1 POP JUMP JUMPDEST PUSH32 0x596F7520617265206E6F74206120636F6E7472696275746F7200000000000000 PUSH0 DUP3 ADD MSTORE POP JUMP JUMPDEST PUSH0 PUSH2 0x18A0 PUSH1 0x19 DUP4 PUSH2 0x1184 JUMP JUMPDEST SWAP2 POP PUSH2 0x18AB DUP3 PUSH2 0x186C JUMP JUMPDEST PUSH1 0x20 DUP3 ADD SWAP1 POP SWAP2 SWAP1 POP JUMP JUMPDEST PUSH0 PUSH1 0x20 DUP3 ADD SWAP1 POP DUP2 DUP2 SUB PUSH0 DUP4 ADD MSTORE PUSH2 0x18CD DUP2 PUSH2 0x1894 JUMP JUMPDEST SWAP1 POP SWAP2 SWAP1 POP JUMP JUMPDEST PUSH32 0x596F75206861766520616C726561647920766F74656400000000000000000000 PUSH0 DUP3 ADD MSTORE POP JUMP JUMPDEST PUSH0 PUSH2 0x1908 PUSH1 0x16 DUP4 PUSH2 0x1184 JUMP JUMPDEST SWAP2 POP PUSH2 0x1913 DUP3 PUSH2 0x18D4 JUMP JUMPDEST PUSH1 0x20 DUP3 ADD SWAP1 POP SWAP2 SWAP1 POP JUMP JUMPDEST PUSH0 PUSH1 0x20 DUP3 ADD SWAP1 POP DUP2 DUP2 SUB PUSH0 DUP4 ADD MSTORE PUSH2 0x1935 DUP2 PUSH2 0x18FC JUMP JUMPDEST SWAP1 POP SWAP2 SWAP1 POP JUMP JUMPDEST PUSH32 0x546172676574206E6F74206D6574000000000000000000000000000000000000 PUSH0 DUP3 ADD MSTORE POP JUMP JUMPDEST PUSH0 PUSH2 0x1970 PUSH1 0xE DUP4 PUSH2 0x1184 JUMP JUMPDEST SWAP2 POP PUSH2 0x197B DUP3 PUSH2 0x193C JUMP JUMPDEST PUSH1 0x20 DUP3 ADD SWAP1 POP SWAP2 SWAP1 POP JUMP JUMPDEST PUSH0 PUSH1 0x20 DUP3 ADD SWAP1 POP DUP2 DUP2 SUB PUSH0 DUP4 ADD MSTORE PUSH2 0x199D DUP2 PUSH2 0x1964 JUMP JUMPDEST SWAP1 POP SWAP2 SWAP1 POP JUMP JUMPDEST PUSH32 0x416C72656164792064697374726962757465642074686520616D6F756E740000 PUSH0 DUP3 ADD MSTORE POP JUMP JUMPDEST PUSH0 PUSH2 0x19D8 PUSH1 0x1E DUP4 PUSH2 0x1184 JUMP JUMPDEST SWAP2 POP PUSH2 0x19E3 DUP3 PUSH2 0x19A4 JUMP JUMPDEST PUSH1 0x20 DUP3 ADD SWAP1 POP SWAP2 SWAP1 POP JUMP JUMPDEST PUSH0 PUSH1 0x20 DUP3 ADD SWAP1 POP DUP2 DUP2 SUB PUSH0 DUP4 ADD MSTORE PUSH2 0x1A05 DUP2 PUSH2 0x19CC JUMP JUMPDEST SWAP1 POP SWAP2 SWAP1 POP JUMP JUMPDEST PUSH32 0x4E487B7100000000000000000000000000000000000000000000000000000000 PUSH0 MSTORE PUSH1 0x12 PUSH1 0x4 MSTORE PUSH1 0x24 PUSH0 REVERT JUMPDEST PUSH0 PUSH2 0x1A43 DUP3 PUSH2 0xFFA JUMP JUMPDEST SWAP2 POP PUSH2 0x1A4E DUP4 PUSH2 0xFFA JUMP JUMPDEST SWAP3 POP DUP3 PUSH2 0x1A5E JUMPI PUSH2 0x1A5D PUSH2 0x1A0C JUMP JUMPDEST JUMPDEST DUP3 DUP3 DIV SWAP1 POP SWAP3 SWAP2 POP POP JUMP JUMPDEST PUSH32 0x4D616A6F7269747920737570706F7274206E6F74206D65740000000000000000 PUSH0 DUP3 ADD MSTORE POP JUMP JUMPDEST PUSH0 PUSH2 0x1A9D PUSH1 0x18 DUP4 PUSH2 0x1184 JUMP JUMPDEST SWAP2 POP PUSH2 0x1AA8 DUP3 PUSH2 0x1A69 JUMP JUMPDEST PUSH1 0x20 DUP3 ADD SWAP1 POP SWAP2 SWAP1 POP JUMP JUMPDEST PUSH0 PUSH1 0x20 DUP3 ADD SWAP1 POP DUP2 DUP2 SUB PUSH0 DUP4 ADD MSTORE PUSH2 0x1ACA DUP2 PUSH2 0x1A91 JUMP JUMPDEST SWAP1 POP SWAP2 SWAP1 POP JUMP JUMPDEST PUSH32 0x4E6F7420656E6F7567682062616C616E636520696E20636F6E74726163740000 PUSH0 DUP3 ADD MSTORE POP JUMP JUMPDEST PUSH0 PUSH2 0x1B05 PUSH1 0x1E DUP4 PUSH2 0x1184 JUMP JUMPDEST SWAP2 POP PUSH2 0x1B10 DUP3 PUSH2 0x1AD1 JUMP JUMPDEST PUSH1 0x20 DUP3 ADD SWAP1 POP SWAP2 SWAP1 POP JUMP JUMPDEST PUSH0 PUSH1 0x20 DUP3 ADD SWAP1 POP DUP2 DUP2 SUB PUSH0 DUP4 ADD MSTORE PUSH2 0x1B32 DUP2 PUSH2 0x1AF9 JUMP JUMPDEST SWAP1 POP SWAP2 SWAP1 POP JUMP JUMPDEST PUSH0 PUSH1 0x40 DUP3 ADD SWAP1 POP PUSH2 0x1B4C PUSH0 DUP4 ADD DUP6 PUSH2 0x17B9 JUMP JUMPDEST PUSH2 0x1B59 PUSH1 0x20 DUP4 ADD DUP5 PUSH2 0x10FF JUMP JUMPDEST SWAP4 SWAP3 POP POP POP JUMP JUMPDEST PUSH32 0x526566756E6420636F6E646974696F6E73206E6F74206D657400000000000000 PUSH0 DUP3 ADD MSTORE POP JUMP JUMPDEST PUSH0 PUSH2 0x1B94 PUSH1 0x19 DUP4 PUSH2 0x1184 JUMP JUMPDEST SWAP2 POP PUSH2 0x1B9F DUP3 PUSH2 0x1B60 JUMP JUMPDEST PUSH1 0x20 DUP3 ADD SWAP1 POP SWAP2 SWAP1 POP JUMP JUMPDEST PUSH0 PUSH1 0x20 DUP3 ADD SWAP1 POP DUP2 DUP2 SUB PUSH0 DUP4 ADD MSTORE PUSH2 0x1BC1 DUP2 PUSH2 0x1B88 JUMP JUMPDEST SWAP1 POP SWAP2 SWAP1 POP JUMP JUMPDEST PUSH32 0x596F752068617665206E6F7420636F6E74726962757465640000000000000000 PUSH0 DUP3 ADD MSTORE POP JUMP JUMPDEST PUSH0 PUSH2 0x1BFC PUSH1 0x18 DUP4 PUSH2 0x1184 JUMP JUMPDEST SWAP2 POP PUSH2 0x1C07 DUP3 PUSH2 0x1BC8 JUMP JUMPDEST PUSH1 0x20 DUP3 ADD SWAP1 POP SWAP2 SWAP1 POP JUMP JUMPDEST PUSH0 PUSH1 0x20 DUP3 ADD SWAP1 POP DUP2 DUP2 SUB PUSH0 DUP4 ADD MSTORE PUSH2 0x1C29 DUP2 PUSH2 0x1BF0 JUMP JUMPDEST SWAP1 POP SWAP2 SWAP1 POP JUMP INVALID LOG2 PUSH5 0x6970667358 0x22 SLT KECCAK256 STOP 0x26 RETURNDATACOPY 0x2C 0xAA ISZERO 0xE6 SWAP9 0x2F PUSH32 0xBA3820F0C8644E6D8AF2E7A93D3F8C0A308A2007077B64736F6C634300081A00 CALLER "
				},
				"gasEstimates": {
					"creation": {
						"codeDepositCost": "1454000",
						"executionCost": "infinite",
						"totalCost": "infinite"
					},
					"external": {
						"contributors(address)": "2869",
						"createRequest(string,address,uint256)": "infinite",
						"deadline()": "2448",
						"getContractBalance()": "401",
						"makePayment(uint256)": "infinite",
						"manager()": "2553",
						"minContribution()": "2514",
						"noOfContributors()": "2514",
						"numRequest()": "2447",
						"raiseAmount()": "2513",
						"refund()": "infinite",
						"request(uint256)": "infinite",
						"sendEther()": "infinite",
						"target()": "2469",
						"voteRequest(uint256)": "infinite"
					}
				},
				"methodIdentifiers": {
					"contributors(address)": "1f6d4942",
					"createRequest(string,address,uint256)": "1b16bb5c",
					"deadline()": "29dcb0cf",
					"getContractBalance()": "6f9fb98a",
					"makePayment(uint256)": "5114cb52",
					"manager()": "481c6a75",
					"minContribution()": "aaffadf3",
					"noOfContributors()": "4e260f6f",
					"numRequest()": "b1b16431",
					"raiseAmount()": "db638f0b",
					"refund()": "590e1ae3",
					"request(uint256)": "d845a4b3",
					"sendEther()": "0e29df22",
					"target()": "d4b83992",
					"voteRequest(uint256)": "4cb6f4a5"
				}
			},
			"storageLayout": {
				"storage": [
					{
						"astId": 5,
						"contract": "contracts/crowdfunding.sol:Crowdfunding",
						"label": "contributors",
						"offset": 0,
						"slot": "0",
						"type": "t_mapping(t_address,t_uint256)"
					},
					{
						"astId": 7,
						"contract": "contracts/crowdfunding.sol:Crowdfunding",
						"label": "manager",
						"offset": 0,
						"slot": "1",
						"type": "t_address"
					},
					{
						"astId": 9,
						"contract": "contracts/crowdfunding.sol:Crowdfunding",
						"label": "minContribution",
						"offset": 0,
						"slot": "2",
						"type": "t_uint256"
					},
					{
						"astId": 11,
						"contract": "contracts/crowdfunding.sol:Crowdfunding",
						"label": "deadline",
						"offset": 0,
						"slot": "3",
						"type": "t_uint256"
					},
					{
						"astId": 13,
						"contract": "contracts/crowdfunding.sol:Crowdfunding",
						"label": "target",
						"offset": 0,
						"slot": "4",
						"type": "t_uint256"
					},
					{
						"astId": 15,
						"contract": "contracts/crowdfunding.sol:Crowdfunding",
						"label": "raiseAmount",
						"offset": 0,
						"slot": "5",
						"type": "t_uint256"
					},
					{
						"astId": 17,
						"contract": "contracts/crowdfunding.sol:Crowdfunding",
						"label": "noOfContributors",
						"offset": 0,
						"slot": "6",
						"type": "t_uint256"
					},
					{
						"astId": 37,
						"contract": "contracts/crowdfunding.sol:Crowdfunding",
						"label": "request",
						"offset": 0,
						"slot": "7",
						"type": "t_mapping(t_uint256,t_struct(Request)32_storage)"
					},
					{
						"astId": 39,
						"contract": "contracts/crowdfunding.sol:Crowdfunding",
						"label": "numRequest",
						"offset": 0,
						"slot": "8",
						"type": "t_uint256"
					}
				],
				"types": {
					"t_address": {
						"encoding": "inplace",
						"label": "address",
						"numberOfBytes": "20"
					},
					"t_address_payable": {
						"encoding": "inplace",
						"label": "address payable",
						"numberOfBytes": "20"
					},
					"t_bool": {
						"encoding": "inplace",
						"label": "bool",
						"numberOfBytes": "1"
					},
					"t_mapping(t_address,t_bool)": {
						"encoding": "mapping",
						"key": "t_address",
						"label": "mapping(address => bool)",
						"numberOfBytes": "32",
						"value": "t_bool"
					},
					"t_mapping(t_address,t_uint256)": {
						"encoding": "mapping",
						"key": "t_address",
						"label": "mapping(address => uint256)",
						"numberOfBytes": "32",
						"value": "t_uint256"
					},
					"t_mapping(t_uint256,t_struct(Request)32_storage)": {
						"encoding": "mapping",
						"key": "t_uint256",
						"label": "mapping(uint256 => struct Crowdfunding.Request)",
						"numberOfBytes": "32",
						"value": "t_struct(Request)32_storage"
					},
					"t_string_storage": {
						"encoding": "bytes",
						"label": "string",
						"numberOfBytes": "32"
					},
					"t_struct(Request)32_storage": {
						"encoding": "inplace",
						"label": "struct Crowdfunding.Request",
						"members": [
							{
								"astId": 19,
								"contract": "contracts/crowdfunding.sol:Crowdfunding",
								"label": "description",
								"offset": 0,
								"slot": "0",
								"type": "t_string_storage"
							},
							{
								"astId": 21,
								"contract": "contracts/crowdfunding.sol:Crowdfunding",
								"label": "recipient",
								"offset": 0,
								"slot": "1",
								"type": "t_address_payable"
							},
							{
								"astId": 23,
								"contract": "contracts/crowdfunding.sol:Crowdfunding",
								"label": "value",
								"offset": 0,
								"slot": "2",
								"type": "t_uint256"
							},
							{
								"astId": 25,
								"contract": "contracts/crowdfunding.sol:Crowdfunding",
								"label": "isCompleted",
								"offset": 0,
								"slot": "3",
								"type": "t_bool"
							},
							{
								"astId": 27,
								"contract": "contracts/crowdfunding.sol:Crowdfunding",
								"label": "noOfVoters",
								"offset": 0,
								"slot": "4",
								"type": "t_uint256"
							},
							{
								"astId": 31,
								"contract": "contracts/crowdfunding.sol:Crowdfunding",
								"label": "voters",
								"offset": 0,
								"slot": "5",
								"type": "t_mapping(t_address,t_bool)"
							}
						],
						"numberOfBytes": "192"
					},
					"t_uint256": {
						"encoding": "inplace",
						"label": "uint256",
						"numberOfBytes": "32"
					}
				}
			},
			"userdoc": {
				"kind": "user",
				"methods": {},
				"version": 1
			}
		}
	}
}