{
	"contracts/calculator.sol": {
		"Calculator": {
			"abi": [
				{
					"inputs": [],
					"stateMutability": "nonpayable",
					"type": "constructor"
				},
				{
					"anonymous": false,
					"inputs": [
						{
							"indexed": false,
							"internalType": "string",
							"name": "operation",
							"type": "string"
						},
						{
							"indexed": false,
							"internalType": "uint256",
							"name": "operand1",
							"type": "uint256"
						},
						{
							"indexed": false,
							"internalType": "uint256",
							"name": "operand2",
							"type": "uint256"
						},
						{
							"indexed": false,
							"internalType": "uint256",
							"name": "result",
							"type": "uint256"
						}
					],
					"name": "CalculationPerformed",
					"type": "event"
				},
				{
					"inputs": [
						{
							"internalType": "uint256",
							"name": "num1",
							"type": "uint256"
						},
						{
							"internalType": "uint256",
							"name": "num2",
							"type": "uint256"
						}
					],
					"name": "add",
					"outputs": [
						{
							"internalType": "uint256",
							"name": "",
							"type": "uint256"
						}
					],
					"stateMutability": "nonpayable",
					"type": "function"
				},
				{
					"inputs": [
						{
							"internalType": "uint256",
							"name": "num1",
							"type": "uint256"
						},
						{
							"internalType": "uint256",
							"name": "num2",
							"type": "uint256"
						}
					],
					"name": "div",
					"outputs": [
						{
							"internalType": "uint256",
							"name": "",
							"type": "uint256"
						}
					],
					"stateMutability": "nonpayable",
					"type": "function"
				},
				{
					"inputs": [
						{
							"internalType": "uint256",
							"name": "num1",
							"type": "uint256"
						},
						{
							"internalType": "uint256",
							"name": "num2",
							"type": "uint256"
						}
					],
					"name": "multi",
					"outputs": [
						{
							"internalType": "uint256",
							"name": "",
							"type": "uint256"
						}
					],
					"stateMutability": "nonpayable",
					"type": "function"
				},
				{
					"inputs": [],
					"name": "owner",
					"outputs": [
						{
							"internalType": "address",
							"name": "",
							"type": "address"
						}
					],
					"stateMutability": "view",
					"type": "function"
				},
				{
					"inputs": [],
					"name": "result",
					"outputs": [
						{
							"internalType": "uint256",
							"name": "",
							"type": "uint256"
						}
					],
					"stateMutability": "view",
					"type": "function"
				},
				{
					"inputs": [
						{
							"internalType": "uint256",
							"name": "num1",
							"type": "uint256"
						},
						{
							"internalType": "uint256",
							"name": "num2",
							"type": "uint256"
						}
					],
					"name": "sub",
					"outputs": [
						{
							"internalType": "uint256",
							"name": "",
							"type": "uint256"
						}
					],
					"stateMutability": "nonpayable",
					"type": "function"
				}
			],
			"devdoc": {
				"kind": "dev",
				"methods": {},
				"version": 1
			},
			"evm": {
				"assembly": "    /* \"contracts/calculator.sol\":60:1363  contract Calculator {... */\n  mstore(0x40, 0x80)\n    /* \"contracts/calculator.sol\":351:423  constructor() {... */\n  callvalue\n  dup1\n  iszero\n  tag_1\n  jumpi\n  0x00\n  dup1\n  revert\ntag_1:\n  pop\n    /* \"contracts/calculator.sol\":384:394  msg.sender */\n  caller\n    /* \"contracts/calculator.sol\":376:381  owner */\n  0x01\n  0x00\n    /* \"contracts/calculator.sol\":376:394  owner = msg.sender */\n  0x0100\n  exp\n  dup2\n  sload\n  dup2\n  0xffffffffffffffffffffffffffffffffffffffff\n  mul\n  not\n  and\n  swap1\n  dup4\n  0xffffffffffffffffffffffffffffffffffffffff\n  and\n  mul\n  or\n  swap1\n  sstore\n  pop\n    /* \"contracts/calculator.sol\":414:415  0 */\n  0x00\n    /* \"contracts/calculator.sol\":405:411  result */\n  dup1\n    /* \"contracts/calculator.sol\":405:415  result = 0 */\n  dup2\n  swap1\n  sstore\n  pop\n    /* \"contracts/calculator.sol\":60:1363  contract Calculator {... */\n  dataSize(sub_0)\n  dup1\n  dataOffset(sub_0)\n  0x00\n  codecopy\n  0x00\n  return\nstop\n\nsub_0: assembly {\n        /* \"contracts/calculator.sol\":60:1363  contract Calculator {... */\n      mstore(0x40, 0x80)\n      callvalue\n      dup1\n      iszero\n      tag_1\n      jumpi\n      0x00\n      dup1\n      revert\n    tag_1:\n      pop\n      jumpi(tag_2, lt(calldatasize, 0x04))\n      shr(0xe0, calldataload(0x00))\n      dup1\n      0x5171762c\n      eq\n      tag_3\n      jumpi\n      dup1\n      0x65372147\n      eq\n      tag_4\n      jumpi\n      dup1\n      0x771602f7\n      eq\n      tag_5\n      jumpi\n      dup1\n      0x8da5cb5b\n      eq\n      tag_6\n      jumpi\n      dup1\n      0xa391c15b\n      eq\n      tag_7\n      jumpi\n      dup1\n      0xb67d77c5\n      eq\n      tag_8\n      jumpi\n    tag_2:\n      0x00\n      dup1\n      revert\n        /* \"contracts/calculator.sol\":903:1109  function multi(uint num1, uint num2) public onlyOwner returns (uint) {... */\n    tag_3:\n      tag_9\n      0x04\n      dup1\n      calldatasize\n      sub\n      dup2\n      add\n      swap1\n      tag_10\n      swap2\n      swap1\n      tag_11\n      jump\t// in\n    tag_10:\n      tag_12\n      jump\t// in\n    tag_9:\n      mload(0x40)\n      tag_13\n      swap2\n      swap1\n      tag_14\n      jump\t// in\n    tag_13:\n      mload(0x40)\n      dup1\n      swap2\n      sub\n      swap1\n      return\n        /* \"contracts/calculator.sol\":87:105  uint public result */\n    tag_4:\n      tag_15\n      tag_16\n      jump\t// in\n    tag_15:\n      mload(0x40)\n      tag_17\n      swap2\n      swap1\n      tag_14\n      jump\t// in\n    tag_17:\n      mload(0x40)\n      dup1\n      swap2\n      sub\n      swap1\n      return\n        /* \"contracts/calculator.sol\":431:627  function add(uint num1, uint num2) public onlyOwner returns (uint) {... */\n    tag_5:\n      tag_18\n      0x04\n      dup1\n      calldatasize\n      sub\n      dup2\n      add\n      swap1\n      tag_19\n      swap2\n      swap1\n      tag_11\n      jump\t// in\n    tag_19:\n      tag_20\n      jump\t// in\n    tag_18:\n      mload(0x40)\n      tag_21\n      swap2\n      swap1\n      tag_14\n      jump\t// in\n    tag_21:\n      mload(0x40)\n      dup1\n      swap2\n      sub\n      swap1\n      return\n        /* \"contracts/calculator.sol\":112:132  address public owner */\n    tag_6:\n      tag_22\n      tag_23\n      jump\t// in\n    tag_22:\n      mload(0x40)\n      tag_24\n      swap2\n      swap1\n      tag_25\n      jump\t// in\n    tag_24:\n      mload(0x40)\n      dup1\n      swap2\n      sub\n      swap1\n      return\n        /* \"contracts/calculator.sol\":1117:1360  function div(uint num1, uint num2) public onlyOwner returns (uint) {... */\n    tag_7:\n      tag_26\n      0x04\n      dup1\n      calldatasize\n      sub\n      dup2\n      add\n      swap1\n      tag_27\n      swap2\n      swap1\n      tag_11\n      jump\t// in\n    tag_27:\n      tag_28\n      jump\t// in\n    tag_26:\n      mload(0x40)\n      tag_29\n      swap2\n      swap1\n      tag_14\n      jump\t// in\n    tag_29:\n      mload(0x40)\n      dup1\n      swap2\n      sub\n      swap1\n      return\n        /* \"contracts/calculator.sol\":635:895  function sub(uint num1, uint num2) public onlyOwner returns (uint) {... */\n    tag_8:\n      tag_30\n      0x04\n      dup1\n      calldatasize\n      sub\n      dup2\n      add\n      swap1\n      tag_31\n      swap2\n      swap1\n      tag_11\n      jump\t// in\n    tag_31:\n      tag_32\n      jump\t// in\n    tag_30:\n      mload(0x40)\n      tag_33\n      swap2\n      swap1\n      tag_14\n      jump\t// in\n    tag_33:\n      mload(0x40)\n      dup1\n      swap2\n      sub\n      swap1\n      return\n        /* \"contracts/calculator.sol\":903:1109  function multi(uint num1, uint num2) public onlyOwner returns (uint) {... */\n    tag_12:\n        /* \"contracts/calculator.sol\":966:970  uint */\n      0x00\n        /* \"contracts/calculator.sol\":291:296  owner */\n      0x01\n      0x00\n      swap1\n      sload\n      swap1\n      0x0100\n      exp\n      swap1\n      div\n      0xffffffffffffffffffffffffffffffffffffffff\n      and\n        /* \"contracts/calculator.sol\":277:296  msg.sender == owner */\n      0xffffffffffffffffffffffffffffffffffffffff\n      and\n        /* \"contracts/calculator.sol\":277:287  msg.sender */\n      caller\n        /* \"contracts/calculator.sol\":277:296  msg.sender == owner */\n      0xffffffffffffffffffffffffffffffffffffffff\n      and\n      eq\n        /* \"contracts/calculator.sol\":269:323  require(msg.sender == owner, \"Not the contract owner\") */\n      tag_35\n      jumpi\n      mload(0x40)\n      0x08c379a000000000000000000000000000000000000000000000000000000000\n      dup2\n      mstore\n      0x04\n      add\n      tag_36\n      swap1\n      tag_37\n      jump\t// in\n    tag_36:\n      mload(0x40)\n      dup1\n      swap2\n      sub\n      swap1\n      revert\n    tag_35:\n        /* \"contracts/calculator.sol\":999:1003  num2 */\n      dup2\n        /* \"contracts/calculator.sol\":992:996  num1 */\n      dup4\n        /* \"contracts/calculator.sol\":992:1003  num1 * num2 */\n      tag_39\n      swap2\n      swap1\n      tag_40\n      jump\t// in\n    tag_39:\n        /* \"contracts/calculator.sol\":983:989  result */\n      0x00\n        /* \"contracts/calculator.sol\":983:1003  result = num1 * num2 */\n      dup2\n      swap1\n      sstore\n      pop\n        /* \"contracts/calculator.sol\":1019:1077  CalculationPerformed(\"Multiplication\", num1, num2, result) */\n      0x4d22df91bf424cbfee42639d9208437c2a3368f32c8af7b81e8d9219ffd53d6f\n        /* \"contracts/calculator.sol\":1058:1062  num1 */\n      dup4\n        /* \"contracts/calculator.sol\":1064:1068  num2 */\n      dup4\n        /* \"contracts/calculator.sol\":1070:1076  result */\n      sload(0x00)\n        /* \"contracts/calculator.sol\":1019:1077  CalculationPerformed(\"Multiplication\", num1, num2, result) */\n      mload(0x40)\n      tag_41\n      swap4\n      swap3\n      swap2\n      swap1\n      tag_42\n      jump\t// in\n    tag_41:\n      mload(0x40)\n      dup1\n      swap2\n      sub\n      swap1\n      log1\n        /* \"contracts/calculator.sol\":1095:1101  result */\n      sload(0x00)\n        /* \"contracts/calculator.sol\":1088:1101  return result */\n      swap1\n      pop\n        /* \"contracts/calculator.sol\":903:1109  function multi(uint num1, uint num2) public onlyOwner returns (uint) {... */\n      swap3\n      swap2\n      pop\n      pop\n      jump\t// out\n        /* \"contracts/calculator.sol\":87:105  uint public result */\n    tag_16:\n      sload(0x00)\n      dup2\n      jump\t// out\n        /* \"contracts/calculator.sol\":431:627  function add(uint num1, uint num2) public onlyOwner returns (uint) {... */\n    tag_20:\n        /* \"contracts/calculator.sol\":492:496  uint */\n      0x00\n        /* \"contracts/calculator.sol\":291:296  owner */\n      0x01\n      0x00\n      swap1\n      sload\n      swap1\n      0x0100\n      exp\n      swap1\n      div\n      0xffffffffffffffffffffffffffffffffffffffff\n      and\n        /* \"contracts/calculator.sol\":277:296  msg.sender == owner */\n      0xffffffffffffffffffffffffffffffffffffffff\n      and\n        /* \"contracts/calculator.sol\":277:287  msg.sender */\n      caller\n        /* \"contracts/calculator.sol\":277:296  msg.sender == owner */\n      0xffffffffffffffffffffffffffffffffffffffff\n      and\n      eq\n        /* \"contracts/calculator.sol\":269:323  require(msg.sender == owner, \"Not the contract owner\") */\n      tag_44\n      jumpi\n      mload(0x40)\n      0x08c379a000000000000000000000000000000000000000000000000000000000\n      dup2\n      mstore\n      0x04\n      add\n      tag_45\n      swap1\n      tag_37\n      jump\t// in\n    tag_45:\n      mload(0x40)\n      dup1\n      swap2\n      sub\n      swap1\n      revert\n    tag_44:\n        /* \"contracts/calculator.sol\":525:529  num2 */\n      dup2\n        /* \"contracts/calculator.sol\":518:522  num1 */\n      dup4\n        /* \"contracts/calculator.sol\":518:529  num1 + num2 */\n      tag_47\n      swap2\n      swap1\n      tag_48\n      jump\t// in\n    tag_47:\n        /* \"contracts/calculator.sol\":509:515  result */\n      0x00\n        /* \"contracts/calculator.sol\":509:529  result = num1 + num2 */\n      dup2\n      swap1\n      sstore\n      pop\n        /* \"contracts/calculator.sol\":545:595  CalculationPerformed(\"Adding\", num1, num2, result) */\n      0x4d22df91bf424cbfee42639d9208437c2a3368f32c8af7b81e8d9219ffd53d6f\n        /* \"contracts/calculator.sol\":576:580  num1 */\n      dup4\n        /* \"contracts/calculator.sol\":582:586  num2 */\n      dup4\n        /* \"contracts/calculator.sol\":588:594  result */\n      sload(0x00)\n        /* \"contracts/calculator.sol\":545:595  CalculationPerformed(\"Adding\", num1, num2, result) */\n      mload(0x40)\n      tag_49\n      swap4\n      swap3\n      swap2\n      swap1\n      tag_50\n      jump\t// in\n    tag_49:\n      mload(0x40)\n      dup1\n      swap2\n      sub\n      swap1\n      log1\n        /* \"contracts/calculator.sol\":613:619  result */\n      sload(0x00)\n        /* \"contracts/calculator.sol\":606:619  return result */\n      swap1\n      pop\n        /* \"contracts/calculator.sol\":431:627  function add(uint num1, uint num2) public onlyOwner returns (uint) {... */\n      swap3\n      swap2\n      pop\n      pop\n      jump\t// out\n        /* \"contracts/calculator.sol\":112:132  address public owner */\n    tag_23:\n      0x01\n      0x00\n      swap1\n      sload\n      swap1\n      0x0100\n      exp\n      swap1\n      div\n      0xffffffffffffffffffffffffffffffffffffffff\n      and\n      dup2\n      jump\t// out\n        /* \"contracts/calculator.sol\":1117:1360  function div(uint num1, uint num2) public onlyOwner returns (uint) {... */\n    tag_28:\n        /* \"contracts/calculator.sol\":1178:1182  uint */\n      0x00\n        /* \"contracts/calculator.sol\":291:296  owner */\n      0x01\n      0x00\n      swap1\n      sload\n      swap1\n      0x0100\n      exp\n      swap1\n      div\n      0xffffffffffffffffffffffffffffffffffffffff\n      and\n        /* \"contracts/calculator.sol\":277:296  msg.sender == owner */\n      0xffffffffffffffffffffffffffffffffffffffff\n      and\n        /* \"contracts/calculator.sol\":277:287  msg.sender */\n      caller\n        /* \"contracts/calculator.sol\":277:296  msg.sender == owner */\n      0xffffffffffffffffffffffffffffffffffffffff\n      and\n      eq\n        /* \"contracts/calculator.sol\":269:323  require(msg.sender == owner, \"Not the contract owner\") */\n      tag_52\n      jumpi\n      mload(0x40)\n      0x08c379a000000000000000000000000000000000000000000000000000000000\n      dup2\n      mstore\n      0x04\n      add\n      tag_53\n      swap1\n      tag_37\n      jump\t// in\n    tag_53:\n      mload(0x40)\n      dup1\n      swap2\n      sub\n      swap1\n      revert\n    tag_52:\n        /* \"contracts/calculator.sol\":1210:1211  0 */\n      0x00\n        /* \"contracts/calculator.sol\":1203:1207  num2 */\n      dup3\n        /* \"contracts/calculator.sol\":1203:1211  num2 > 0 */\n      gt\n        /* \"contracts/calculator.sol\":1195:1229  require(num2 > 0, \"Division by 0\") */\n      tag_55\n      jumpi\n      mload(0x40)\n      0x08c379a000000000000000000000000000000000000000000000000000000000\n      dup2\n      mstore\n      0x04\n      add\n      tag_56\n      swap1\n      tag_57\n      jump\t// in\n    tag_56:\n      mload(0x40)\n      dup1\n      swap2\n      sub\n      swap1\n      revert\n    tag_55:\n        /* \"contracts/calculator.sol\":1256:1260  num2 */\n      dup2\n        /* \"contracts/calculator.sol\":1249:1253  num1 */\n      dup4\n        /* \"contracts/calculator.sol\":1249:1260  num1 / num2 */\n      tag_58\n      swap2\n      swap1\n      tag_59\n      jump\t// in\n    tag_58:\n        /* \"contracts/calculator.sol\":1240:1246  result */\n      0x00\n        /* \"contracts/calculator.sol\":1240:1260  result = num1 / num2 */\n      dup2\n      swap1\n      sstore\n      pop\n        /* \"contracts/calculator.sol\":1276:1328  CalculationPerformed(\"Division\", num1, num2, result) */\n      0x4d22df91bf424cbfee42639d9208437c2a3368f32c8af7b81e8d9219ffd53d6f\n        /* \"contracts/calculator.sol\":1309:1313  num1 */\n      dup4\n        /* \"contracts/calculator.sol\":1315:1319  num2 */\n      dup4\n        /* \"contracts/calculator.sol\":1321:1327  result */\n      sload(0x00)\n        /* \"contracts/calculator.sol\":1276:1328  CalculationPerformed(\"Division\", num1, num2, result) */\n      mload(0x40)\n      tag_60\n      swap4\n      swap3\n      swap2\n      swap1\n      tag_61\n      jump\t// in\n    tag_60:\n      mload(0x40)\n      dup1\n      swap2\n      sub\n      swap1\n      log1\n        /* \"contracts/calculator.sol\":1346:1352  result */\n      sload(0x00)\n        /* \"contracts/calculator.sol\":1339:1352  return result */\n      swap1\n      pop\n        /* \"contracts/calculator.sol\":1117:1360  function div(uint num1, uint num2) public onlyOwner returns (uint) {... */\n      swap3\n      swap2\n      pop\n      pop\n      jump\t// out\n        /* \"contracts/calculator.sol\":635:895  function sub(uint num1, uint num2) public onlyOwner returns (uint) {... */\n    tag_32:\n        /* \"contracts/calculator.sol\":696:700  uint */\n      0x00\n        /* \"contracts/calculator.sol\":291:296  owner */\n      0x01\n      0x00\n      swap1\n      sload\n      swap1\n      0x0100\n      exp\n      swap1\n      div\n      0xffffffffffffffffffffffffffffffffffffffff\n      and\n        /* \"contracts/calculator.sol\":277:296  msg.sender == owner */\n      0xffffffffffffffffffffffffffffffffffffffff\n      and\n        /* \"contracts/calculator.sol\":277:287  msg.sender */\n      caller\n        /* \"contracts/calculator.sol\":277:296  msg.sender == owner */\n      0xffffffffffffffffffffffffffffffffffffffff\n      and\n      eq\n        /* \"contracts/calculator.sol\":269:323  require(msg.sender == owner, \"Not the contract owner\") */\n      tag_63\n      jumpi\n      mload(0x40)\n      0x08c379a000000000000000000000000000000000000000000000000000000000\n      dup2\n      mstore\n      0x04\n      add\n      tag_64\n      swap1\n      tag_37\n      jump\t// in\n    tag_64:\n      mload(0x40)\n      dup1\n      swap2\n      sub\n      swap1\n      revert\n    tag_63:\n        /* \"contracts/calculator.sol\":729:733  num1 */\n      dup3\n        /* \"contracts/calculator.sol\":721:725  num2 */\n      dup3\n        /* \"contracts/calculator.sol\":721:733  num2 <= num1 */\n      gt\n      iszero\n        /* \"contracts/calculator.sol\":713:761  require(num2 <= num1, \"Result will be negative\") */\n      tag_66\n      jumpi\n      mload(0x40)\n      0x08c379a000000000000000000000000000000000000000000000000000000000\n      dup2\n      mstore\n      0x04\n      add\n      tag_67\n      swap1\n      tag_68\n      jump\t// in\n    tag_67:\n      mload(0x40)\n      dup1\n      swap2\n      sub\n      swap1\n      revert\n    tag_66:\n        /* \"contracts/calculator.sol\":788:792  num2 */\n      dup2\n        /* \"contracts/calculator.sol\":781:785  num1 */\n      dup4\n        /* \"contracts/calculator.sol\":781:792  num1 - num2 */\n      tag_69\n      swap2\n      swap1\n      tag_70\n      jump\t// in\n    tag_69:\n        /* \"contracts/calculator.sol\":772:778  result */\n      0x00\n        /* \"contracts/calculator.sol\":772:792  result = num1 - num2 */\n      dup2\n      swap1\n      sstore\n      pop\n        /* \"contracts/calculator.sol\":808:863  CalculationPerformed(\"Subtraction\", num1, num2, result) */\n      0x4d22df91bf424cbfee42639d9208437c2a3368f32c8af7b81e8d9219ffd53d6f\n        /* \"contracts/calculator.sol\":844:848  num1 */\n      dup4\n        /* \"contracts/calculator.sol\":850:854  num2 */\n      dup4\n        /* \"contracts/calculator.sol\":856:862  result */\n      sload(0x00)\n        /* \"contracts/calculator.sol\":808:863  CalculationPerformed(\"Subtraction\", num1, num2, result) */\n      mload(0x40)\n      tag_71\n      swap4\n      swap3\n      swap2\n      swap1\n      tag_72\n      jump\t// in\n    tag_71:\n      mload(0x40)\n      dup1\n      swap2\n      sub\n      swap1\n      log1\n        /* \"contracts/calculator.sol\":881:887  result */\n      sload(0x00)\n        /* \"contracts/calculator.sol\":874:887  return result */\n      swap1\n      pop\n        /* \"contracts/calculator.sol\":635:895  function sub(uint num1, uint num2) public onlyOwner returns (uint) {... */\n      swap3\n      swap2\n      pop\n      pop\n      jump\t// out\n        /* \"#utility.yul\":88:205   */\n    tag_74:\n        /* \"#utility.yul\":197:198   */\n      0x00\n        /* \"#utility.yul\":194:195   */\n      dup1\n        /* \"#utility.yul\":187:199   */\n      revert\n        /* \"#utility.yul\":334:411   */\n    tag_76:\n        /* \"#utility.yul\":371:378   */\n      0x00\n        /* \"#utility.yul\":400:405   */\n      dup2\n        /* \"#utility.yul\":389:405   */\n      swap1\n      pop\n        /* \"#utility.yul\":334:411   */\n      swap2\n      swap1\n      pop\n      jump\t// out\n        /* \"#utility.yul\":417:539   */\n    tag_77:\n        /* \"#utility.yul\":490:514   */\n      tag_106\n        /* \"#utility.yul\":508:513   */\n      dup2\n        /* \"#utility.yul\":490:514   */\n      tag_76\n      jump\t// in\n    tag_106:\n        /* \"#utility.yul\":483:488   */\n      dup2\n        /* \"#utility.yul\":480:515   */\n      eq\n        /* \"#utility.yul\":470:533   */\n      tag_107\n      jumpi\n        /* \"#utility.yul\":529:530   */\n      0x00\n        /* \"#utility.yul\":526:527   */\n      dup1\n        /* \"#utility.yul\":519:531   */\n      revert\n        /* \"#utility.yul\":470:533   */\n    tag_107:\n        /* \"#utility.yul\":417:539   */\n      pop\n      jump\t// out\n        /* \"#utility.yul\":545:684   */\n    tag_78:\n        /* \"#utility.yul\":591:596   */\n      0x00\n        /* \"#utility.yul\":629:635   */\n      dup2\n        /* \"#utility.yul\":616:636   */\n      calldataload\n        /* \"#utility.yul\":607:636   */\n      swap1\n      pop\n        /* \"#utility.yul\":645:678   */\n      tag_109\n        /* \"#utility.yul\":672:677   */\n      dup2\n        /* \"#utility.yul\":645:678   */\n      tag_77\n      jump\t// in\n    tag_109:\n        /* \"#utility.yul\":545:684   */\n      swap3\n      swap2\n      pop\n      pop\n      jump\t// out\n        /* \"#utility.yul\":690:1164   */\n    tag_11:\n        /* \"#utility.yul\":758:764   */\n      0x00\n        /* \"#utility.yul\":766:772   */\n      dup1\n        /* \"#utility.yul\":815:817   */\n      0x40\n        /* \"#utility.yul\":803:812   */\n      dup4\n        /* \"#utility.yul\":794:801   */\n      dup6\n        /* \"#utility.yul\":790:813   */\n      sub\n        /* \"#utility.yul\":786:818   */\n      slt\n        /* \"#utility.yul\":783:902   */\n      iszero\n      tag_111\n      jumpi\n        /* \"#utility.yul\":821:900   */\n      tag_112\n      tag_74\n      jump\t// in\n    tag_112:\n        /* \"#utility.yul\":783:902   */\n    tag_111:\n        /* \"#utility.yul\":941:942   */\n      0x00\n        /* \"#utility.yul\":966:1019   */\n      tag_113\n        /* \"#utility.yul\":1011:1018   */\n      dup6\n        /* \"#utility.yul\":1002:1008   */\n      dup3\n        /* \"#utility.yul\":991:1000   */\n      dup7\n        /* \"#utility.yul\":987:1009   */\n      add\n        /* \"#utility.yul\":966:1019   */\n      tag_78\n      jump\t// in\n    tag_113:\n        /* \"#utility.yul\":956:1019   */\n      swap3\n      pop\n        /* \"#utility.yul\":912:1029   */\n      pop\n        /* \"#utility.yul\":1068:1070   */\n      0x20\n        /* \"#utility.yul\":1094:1147   */\n      tag_114\n        /* \"#utility.yul\":1139:1146   */\n      dup6\n        /* \"#utility.yul\":1130:1136   */\n      dup3\n        /* \"#utility.yul\":1119:1128   */\n      dup7\n        /* \"#utility.yul\":1115:1137   */\n      add\n        /* \"#utility.yul\":1094:1147   */\n      tag_78\n      jump\t// in\n    tag_114:\n        /* \"#utility.yul\":1084:1147   */\n      swap2\n      pop\n        /* \"#utility.yul\":1039:1157   */\n      pop\n        /* \"#utility.yul\":690:1164   */\n      swap3\n      pop\n      swap3\n      swap1\n      pop\n      jump\t// out\n        /* \"#utility.yul\":1170:1288   */\n    tag_79:\n        /* \"#utility.yul\":1257:1281   */\n      tag_116\n        /* \"#utility.yul\":1275:1280   */\n      dup2\n        /* \"#utility.yul\":1257:1281   */\n      tag_76\n      jump\t// in\n    tag_116:\n        /* \"#utility.yul\":1252:1255   */\n      dup3\n        /* \"#utility.yul\":1245:1282   */\n      mstore\n        /* \"#utility.yul\":1170:1288   */\n      pop\n      pop\n      jump\t// out\n        /* \"#utility.yul\":1294:1516   */\n    tag_14:\n        /* \"#utility.yul\":1387:1391   */\n      0x00\n        /* \"#utility.yul\":1425:1427   */\n      0x20\n        /* \"#utility.yul\":1414:1423   */\n      dup3\n        /* \"#utility.yul\":1410:1428   */\n      add\n        /* \"#utility.yul\":1402:1428   */\n      swap1\n      pop\n        /* \"#utility.yul\":1438:1509   */\n      tag_118\n        /* \"#utility.yul\":1506:1507   */\n      0x00\n        /* \"#utility.yul\":1495:1504   */\n      dup4\n        /* \"#utility.yul\":1491:1508   */\n      add\n        /* \"#utility.yul\":1482:1488   */\n      dup5\n        /* \"#utility.yul\":1438:1509   */\n      tag_79\n      jump\t// in\n    tag_118:\n        /* \"#utility.yul\":1294:1516   */\n      swap3\n      swap2\n      pop\n      pop\n      jump\t// out\n        /* \"#utility.yul\":1522:1648   */\n    tag_80:\n        /* \"#utility.yul\":1559:1566   */\n      0x00\n        /* \"#utility.yul\":1599:1641   */\n      0xffffffffffffffffffffffffffffffffffffffff\n        /* \"#utility.yul\":1592:1597   */\n      dup3\n        /* \"#utility.yul\":1588:1642   */\n      and\n        /* \"#utility.yul\":1577:1642   */\n      swap1\n      pop\n        /* \"#utility.yul\":1522:1648   */\n      swap2\n      swap1\n      pop\n      jump\t// out\n        /* \"#utility.yul\":1654:1750   */\n    tag_81:\n        /* \"#utility.yul\":1691:1698   */\n      0x00\n        /* \"#utility.yul\":1720:1744   */\n      tag_121\n        /* \"#utility.yul\":1738:1743   */\n      dup3\n        /* \"#utility.yul\":1720:1744   */\n      tag_80\n      jump\t// in\n    tag_121:\n        /* \"#utility.yul\":1709:1744   */\n      swap1\n      pop\n        /* \"#utility.yul\":1654:1750   */\n      swap2\n      swap1\n      pop\n      jump\t// out\n        /* \"#utility.yul\":1756:1874   */\n    tag_82:\n        /* \"#utility.yul\":1843:1867   */\n      tag_123\n        /* \"#utility.yul\":1861:1866   */\n      dup2\n        /* \"#utility.yul\":1843:1867   */\n      tag_81\n      jump\t// in\n    tag_123:\n        /* \"#utility.yul\":1838:1841   */\n      dup3\n        /* \"#utility.yul\":1831:1868   */\n      mstore\n        /* \"#utility.yul\":1756:1874   */\n      pop\n      pop\n      jump\t// out\n        /* \"#utility.yul\":1880:2102   */\n    tag_25:\n        /* \"#utility.yul\":1973:1977   */\n      0x00\n        /* \"#utility.yul\":2011:2013   */\n      0x20\n        /* \"#utility.yul\":2000:2009   */\n      dup3\n        /* \"#utility.yul\":1996:2014   */\n      add\n        /* \"#utility.yul\":1988:2014   */\n      swap1\n      pop\n        /* \"#utility.yul\":2024:2095   */\n      tag_125\n        /* \"#utility.yul\":2092:2093   */\n      0x00\n        /* \"#utility.yul\":2081:2090   */\n      dup4\n        /* \"#utility.yul\":2077:2094   */\n      add\n        /* \"#utility.yul\":2068:2074   */\n      dup5\n        /* \"#utility.yul\":2024:2095   */\n      tag_82\n      jump\t// in\n    tag_125:\n        /* \"#utility.yul\":1880:2102   */\n      swap3\n      swap2\n      pop\n      pop\n      jump\t// out\n        /* \"#utility.yul\":2108:2277   */\n    tag_83:\n        /* \"#utility.yul\":2192:2203   */\n      0x00\n        /* \"#utility.yul\":2226:2232   */\n      dup3\n        /* \"#utility.yul\":2221:2224   */\n      dup3\n        /* \"#utility.yul\":2214:2233   */\n      mstore\n        /* \"#utility.yul\":2266:2270   */\n      0x20\n        /* \"#utility.yul\":2261:2264   */\n      dup3\n        /* \"#utility.yul\":2257:2271   */\n      add\n        /* \"#utility.yul\":2242:2271   */\n      swap1\n      pop\n        /* \"#utility.yul\":2108:2277   */\n      swap3\n      swap2\n      pop\n      pop\n      jump\t// out\n        /* \"#utility.yul\":2283:2455   */\n    tag_84:\n        /* \"#utility.yul\":2423:2447   */\n      0x4e6f742074686520636f6e7472616374206f776e657200000000000000000000\n        /* \"#utility.yul\":2419:2420   */\n      0x00\n        /* \"#utility.yul\":2411:2417   */\n      dup3\n        /* \"#utility.yul\":2407:2421   */\n      add\n        /* \"#utility.yul\":2400:2448   */\n      mstore\n        /* \"#utility.yul\":2283:2455   */\n      pop\n      jump\t// out\n        /* \"#utility.yul\":2461:2827   */\n    tag_85:\n        /* \"#utility.yul\":2603:2606   */\n      0x00\n        /* \"#utility.yul\":2624:2691   */\n      tag_129\n        /* \"#utility.yul\":2688:2690   */\n      0x16\n        /* \"#utility.yul\":2683:2686   */\n      dup4\n        /* \"#utility.yul\":2624:2691   */\n      tag_83\n      jump\t// in\n    tag_129:\n        /* \"#utility.yul\":2617:2691   */\n      swap2\n      pop\n        /* \"#utility.yul\":2700:2793   */\n      tag_130\n        /* \"#utility.yul\":2789:2792   */\n      dup3\n        /* \"#utility.yul\":2700:2793   */\n      tag_84\n      jump\t// in\n    tag_130:\n        /* \"#utility.yul\":2818:2820   */\n      0x20\n        /* \"#utility.yul\":2813:2816   */\n      dup3\n        /* \"#utility.yul\":2809:2821   */\n      add\n        /* \"#utility.yul\":2802:2821   */\n      swap1\n      pop\n        /* \"#utility.yul\":2461:2827   */\n      swap2\n      swap1\n      pop\n      jump\t// out\n        /* \"#utility.yul\":2833:3252   */\n    tag_37:\n        /* \"#utility.yul\":2999:3003   */\n      0x00\n        /* \"#utility.yul\":3037:3039   */\n      0x20\n        /* \"#utility.yul\":3026:3035   */\n      dup3\n        /* \"#utility.yul\":3022:3040   */\n      add\n        /* \"#utility.yul\":3014:3040   */\n      swap1\n      pop\n        /* \"#utility.yul\":3086:3095   */\n      dup2\n        /* \"#utility.yul\":3080:3084   */\n      dup2\n        /* \"#utility.yul\":3076:3096   */\n      sub\n        /* \"#utility.yul\":3072:3073   */\n      0x00\n        /* \"#utility.yul\":3061:3070   */\n      dup4\n        /* \"#utility.yul\":3057:3074   */\n      add\n        /* \"#utility.yul\":3050:3097   */\n      mstore\n        /* \"#utility.yul\":3114:3245   */\n      tag_132\n        /* \"#utility.yul\":3240:3244   */\n      dup2\n        /* \"#utility.yul\":3114:3245   */\n      tag_85\n      jump\t// in\n    tag_132:\n        /* \"#utility.yul\":3106:3245   */\n      swap1\n      pop\n        /* \"#utility.yul\":2833:3252   */\n      swap2\n      swap1\n      pop\n      jump\t// out\n        /* \"#utility.yul\":3258:3438   */\n    tag_86:\n        /* \"#utility.yul\":3306:3383   */\n      0x4e487b7100000000000000000000000000000000000000000000000000000000\n        /* \"#utility.yul\":3303:3304   */\n      0x00\n        /* \"#utility.yul\":3296:3384   */\n      mstore\n        /* \"#utility.yul\":3403:3407   */\n      0x11\n        /* \"#utility.yul\":3400:3401   */\n      0x04\n        /* \"#utility.yul\":3393:3408   */\n      mstore\n        /* \"#utility.yul\":3427:3431   */\n      0x24\n        /* \"#utility.yul\":3424:3425   */\n      0x00\n        /* \"#utility.yul\":3417:3432   */\n      revert\n        /* \"#utility.yul\":3444:3854   */\n    tag_40:\n        /* \"#utility.yul\":3484:3491   */\n      0x00\n        /* \"#utility.yul\":3507:3527   */\n      tag_135\n        /* \"#utility.yul\":3525:3526   */\n      dup3\n        /* \"#utility.yul\":3507:3527   */\n      tag_76\n      jump\t// in\n    tag_135:\n        /* \"#utility.yul\":3502:3527   */\n      swap2\n      pop\n        /* \"#utility.yul\":3541:3561   */\n      tag_136\n        /* \"#utility.yul\":3559:3560   */\n      dup4\n        /* \"#utility.yul\":3541:3561   */\n      tag_76\n      jump\t// in\n    tag_136:\n        /* \"#utility.yul\":3536:3561   */\n      swap3\n      pop\n        /* \"#utility.yul\":3596:3597   */\n      dup3\n        /* \"#utility.yul\":3593:3594   */\n      dup3\n        /* \"#utility.yul\":3589:3598   */\n      mul\n        /* \"#utility.yul\":3618:3648   */\n      tag_137\n        /* \"#utility.yul\":3636:3647   */\n      dup2\n        /* \"#utility.yul\":3618:3648   */\n      tag_76\n      jump\t// in\n    tag_137:\n        /* \"#utility.yul\":3607:3648   */\n      swap2\n      pop\n        /* \"#utility.yul\":3797:3798   */\n      dup3\n        /* \"#utility.yul\":3788:3795   */\n      dup3\n        /* \"#utility.yul\":3784:3799   */\n      div\n        /* \"#utility.yul\":3781:3782   */\n      dup5\n        /* \"#utility.yul\":3778:3800   */\n      eq\n        /* \"#utility.yul\":3758:3759   */\n      dup4\n        /* \"#utility.yul\":3751:3760   */\n      iszero\n        /* \"#utility.yul\":3731:3814   */\n      or\n        /* \"#utility.yul\":3708:3847   */\n      tag_138\n      jumpi\n        /* \"#utility.yul\":3827:3845   */\n      tag_139\n      tag_86\n      jump\t// in\n    tag_139:\n        /* \"#utility.yul\":3708:3847   */\n    tag_138:\n        /* \"#utility.yul\":3492:3854   */\n      pop\n        /* \"#utility.yul\":3444:3854   */\n      swap3\n      swap2\n      pop\n      pop\n      jump\t// out\n        /* \"#utility.yul\":3860:4024   */\n    tag_87:\n        /* \"#utility.yul\":4000:4016   */\n      0x4d756c7469706c69636174696f6e000000000000000000000000000000000000\n        /* \"#utility.yul\":3996:3997   */\n      0x00\n        /* \"#utility.yul\":3988:3994   */\n      dup3\n        /* \"#utility.yul\":3984:3998   */\n      add\n        /* \"#utility.yul\":3977:4017   */\n      mstore\n        /* \"#utility.yul\":3860:4024   */\n      pop\n      jump\t// out\n        /* \"#utility.yul\":4030:4396   */\n    tag_88:\n        /* \"#utility.yul\":4172:4175   */\n      0x00\n        /* \"#utility.yul\":4193:4260   */\n      tag_142\n        /* \"#utility.yul\":4257:4259   */\n      0x0e\n        /* \"#utility.yul\":4252:4255   */\n      dup4\n        /* \"#utility.yul\":4193:4260   */\n      tag_83\n      jump\t// in\n    tag_142:\n        /* \"#utility.yul\":4186:4260   */\n      swap2\n      pop\n        /* \"#utility.yul\":4269:4362   */\n      tag_143\n        /* \"#utility.yul\":4358:4361   */\n      dup3\n        /* \"#utility.yul\":4269:4362   */\n      tag_87\n      jump\t// in\n    tag_143:\n        /* \"#utility.yul\":4387:4389   */\n      0x20\n        /* \"#utility.yul\":4382:4385   */\n      dup3\n        /* \"#utility.yul\":4378:4390   */\n      add\n        /* \"#utility.yul\":4371:4390   */\n      swap1\n      pop\n        /* \"#utility.yul\":4030:4396   */\n      swap2\n      swap1\n      pop\n      jump\t// out\n        /* \"#utility.yul\":4402:5152   */\n    tag_42:\n        /* \"#utility.yul\":4652:4656   */\n      0x00\n        /* \"#utility.yul\":4690:4693   */\n      0x80\n        /* \"#utility.yul\":4679:4688   */\n      dup3\n        /* \"#utility.yul\":4675:4694   */\n      add\n        /* \"#utility.yul\":4667:4694   */\n      swap1\n      pop\n        /* \"#utility.yul\":4740:4749   */\n      dup2\n        /* \"#utility.yul\":4734:4738   */\n      dup2\n        /* \"#utility.yul\":4730:4750   */\n      sub\n        /* \"#utility.yul\":4726:4727   */\n      0x00\n        /* \"#utility.yul\":4715:4724   */\n      dup4\n        /* \"#utility.yul\":4711:4728   */\n      add\n        /* \"#utility.yul\":4704:4751   */\n      mstore\n        /* \"#utility.yul\":4768:4899   */\n      tag_145\n        /* \"#utility.yul\":4894:4898   */\n      dup2\n        /* \"#utility.yul\":4768:4899   */\n      tag_88\n      jump\t// in\n    tag_145:\n        /* \"#utility.yul\":4760:4899   */\n      swap1\n      pop\n        /* \"#utility.yul\":4909:4981   */\n      tag_146\n        /* \"#utility.yul\":4977:4979   */\n      0x20\n        /* \"#utility.yul\":4966:4975   */\n      dup4\n        /* \"#utility.yul\":4962:4980   */\n      add\n        /* \"#utility.yul\":4953:4959   */\n      dup7\n        /* \"#utility.yul\":4909:4981   */\n      tag_79\n      jump\t// in\n    tag_146:\n        /* \"#utility.yul\":4991:5063   */\n      tag_147\n        /* \"#utility.yul\":5059:5061   */\n      0x40\n        /* \"#utility.yul\":5048:5057   */\n      dup4\n        /* \"#utility.yul\":5044:5062   */\n      add\n        /* \"#utility.yul\":5035:5041   */\n      dup6\n        /* \"#utility.yul\":4991:5063   */\n      tag_79\n      jump\t// in\n    tag_147:\n        /* \"#utility.yul\":5073:5145   */\n      tag_148\n        /* \"#utility.yul\":5141:5143   */\n      0x60\n        /* \"#utility.yul\":5130:5139   */\n      dup4\n        /* \"#utility.yul\":5126:5144   */\n      add\n        /* \"#utility.yul\":5117:5123   */\n      dup5\n        /* \"#utility.yul\":5073:5145   */\n      tag_79\n      jump\t// in\n    tag_148:\n        /* \"#utility.yul\":4402:5152   */\n      swap5\n      swap4\n      pop\n      pop\n      pop\n      pop\n      jump\t// out\n        /* \"#utility.yul\":5158:5349   */\n    tag_48:\n        /* \"#utility.yul\":5198:5201   */\n      0x00\n        /* \"#utility.yul\":5217:5237   */\n      tag_150\n        /* \"#utility.yul\":5235:5236   */\n      dup3\n        /* \"#utility.yul\":5217:5237   */\n      tag_76\n      jump\t// in\n    tag_150:\n        /* \"#utility.yul\":5212:5237   */\n      swap2\n      pop\n        /* \"#utility.yul\":5251:5271   */\n      tag_151\n        /* \"#utility.yul\":5269:5270   */\n      dup4\n        /* \"#utility.yul\":5251:5271   */\n      tag_76\n      jump\t// in\n    tag_151:\n        /* \"#utility.yul\":5246:5271   */\n      swap3\n      pop\n        /* \"#utility.yul\":5294:5295   */\n      dup3\n        /* \"#utility.yul\":5291:5292   */\n      dup3\n        /* \"#utility.yul\":5287:5296   */\n      add\n        /* \"#utility.yul\":5280:5296   */\n      swap1\n      pop\n        /* \"#utility.yul\":5315:5318   */\n      dup1\n        /* \"#utility.yul\":5312:5313   */\n      dup3\n        /* \"#utility.yul\":5309:5319   */\n      gt\n        /* \"#utility.yul\":5306:5342   */\n      iszero\n      tag_152\n      jumpi\n        /* \"#utility.yul\":5322:5340   */\n      tag_153\n      tag_86\n      jump\t// in\n    tag_153:\n        /* \"#utility.yul\":5306:5342   */\n    tag_152:\n        /* \"#utility.yul\":5158:5349   */\n      swap3\n      swap2\n      pop\n      pop\n      jump\t// out\n        /* \"#utility.yul\":5355:5511   */\n    tag_89:\n        /* \"#utility.yul\":5495:5503   */\n      0x416464696e670000000000000000000000000000000000000000000000000000\n        /* \"#utility.yul\":5491:5492   */\n      0x00\n        /* \"#utility.yul\":5483:5489   */\n      dup3\n        /* \"#utility.yul\":5479:5493   */\n      add\n        /* \"#utility.yul\":5472:5504   */\n      mstore\n        /* \"#utility.yul\":5355:5511   */\n      pop\n      jump\t// out\n        /* \"#utility.yul\":5517:5882   */\n    tag_90:\n        /* \"#utility.yul\":5659:5662   */\n      0x00\n        /* \"#utility.yul\":5680:5746   */\n      tag_156\n        /* \"#utility.yul\":5744:5745   */\n      0x06\n        /* \"#utility.yul\":5739:5742   */\n      dup4\n        /* \"#utility.yul\":5680:5746   */\n      tag_83\n      jump\t// in\n    tag_156:\n        /* \"#utility.yul\":5673:5746   */\n      swap2\n      pop\n        /* \"#utility.yul\":5755:5848   */\n      tag_157\n        /* \"#utility.yul\":5844:5847   */\n      dup3\n        /* \"#utility.yul\":5755:5848   */\n      tag_89\n      jump\t// in\n    tag_157:\n        /* \"#utility.yul\":5873:5875   */\n      0x20\n        /* \"#utility.yul\":5868:5871   */\n      dup3\n        /* \"#utility.yul\":5864:5876   */\n      add\n        /* \"#utility.yul\":5857:5876   */\n      swap1\n      pop\n        /* \"#utility.yul\":5517:5882   */\n      swap2\n      swap1\n      pop\n      jump\t// out\n        /* \"#utility.yul\":5888:6638   */\n    tag_50:\n        /* \"#utility.yul\":6138:6142   */\n      0x00\n        /* \"#utility.yul\":6176:6179   */\n      0x80\n        /* \"#utility.yul\":6165:6174   */\n      dup3\n        /* \"#utility.yul\":6161:6180   */\n      add\n        /* \"#utility.yul\":6153:6180   */\n      swap1\n      pop\n        /* \"#utility.yul\":6226:6235   */\n      dup2\n        /* \"#utility.yul\":6220:6224   */\n      dup2\n        /* \"#utility.yul\":6216:6236   */\n      sub\n        /* \"#utility.yul\":6212:6213   */\n      0x00\n        /* \"#utility.yul\":6201:6210   */\n      dup4\n        /* \"#utility.yul\":6197:6214   */\n      add\n        /* \"#utility.yul\":6190:6237   */\n      mstore\n        /* \"#utility.yul\":6254:6385   */\n      tag_159\n        /* \"#utility.yul\":6380:6384   */\n      dup2\n        /* \"#utility.yul\":6254:6385   */\n      tag_90\n      jump\t// in\n    tag_159:\n        /* \"#utility.yul\":6246:6385   */\n      swap1\n      pop\n        /* \"#utility.yul\":6395:6467   */\n      tag_160\n        /* \"#utility.yul\":6463:6465   */\n      0x20\n        /* \"#utility.yul\":6452:6461   */\n      dup4\n        /* \"#utility.yul\":6448:6466   */\n      add\n        /* \"#utility.yul\":6439:6445   */\n      dup7\n        /* \"#utility.yul\":6395:6467   */\n      tag_79\n      jump\t// in\n    tag_160:\n        /* \"#utility.yul\":6477:6549   */\n      tag_161\n        /* \"#utility.yul\":6545:6547   */\n      0x40\n        /* \"#utility.yul\":6534:6543   */\n      dup4\n        /* \"#utility.yul\":6530:6548   */\n      add\n        /* \"#utility.yul\":6521:6527   */\n      dup6\n        /* \"#utility.yul\":6477:6549   */\n      tag_79\n      jump\t// in\n    tag_161:\n        /* \"#utility.yul\":6559:6631   */\n      tag_162\n        /* \"#utility.yul\":6627:6629   */\n      0x60\n        /* \"#utility.yul\":6616:6625   */\n      dup4\n        /* \"#utility.yul\":6612:6630   */\n      add\n        /* \"#utility.yul\":6603:6609   */\n      dup5\n        /* \"#utility.yul\":6559:6631   */\n      tag_79\n      jump\t// in\n    tag_162:\n        /* \"#utility.yul\":5888:6638   */\n      swap5\n      swap4\n      pop\n      pop\n      pop\n      pop\n      jump\t// out\n        /* \"#utility.yul\":6644:6807   */\n    tag_91:\n        /* \"#utility.yul\":6784:6799   */\n      0x4469766973696f6e206279203000000000000000000000000000000000000000\n        /* \"#utility.yul\":6780:6781   */\n      0x00\n        /* \"#utility.yul\":6772:6778   */\n      dup3\n        /* \"#utility.yul\":6768:6782   */\n      add\n        /* \"#utility.yul\":6761:6800   */\n      mstore\n        /* \"#utility.yul\":6644:6807   */\n      pop\n      jump\t// out\n        /* \"#utility.yul\":6813:7179   */\n    tag_92:\n        /* \"#utility.yul\":6955:6958   */\n      0x00\n        /* \"#utility.yul\":6976:7043   */\n      tag_165\n        /* \"#utility.yul\":7040:7042   */\n      0x0d\n        /* \"#utility.yul\":7035:7038   */\n      dup4\n        /* \"#utility.yul\":6976:7043   */\n      tag_83\n      jump\t// in\n    tag_165:\n        /* \"#utility.yul\":6969:7043   */\n      swap2\n      pop\n        /* \"#utility.yul\":7052:7145   */\n      tag_166\n        /* \"#utility.yul\":7141:7144   */\n      dup3\n        /* \"#utility.yul\":7052:7145   */\n      tag_91\n      jump\t// in\n    tag_166:\n        /* \"#utility.yul\":7170:7172   */\n      0x20\n        /* \"#utility.yul\":7165:7168   */\n      dup3\n        /* \"#utility.yul\":7161:7173   */\n      add\n        /* \"#utility.yul\":7154:7173   */\n      swap1\n      pop\n        /* \"#utility.yul\":6813:7179   */\n      swap2\n      swap1\n      pop\n      jump\t// out\n        /* \"#utility.yul\":7185:7604   */\n    tag_57:\n        /* \"#utility.yul\":7351:7355   */\n      0x00\n        /* \"#utility.yul\":7389:7391   */\n      0x20\n        /* \"#utility.yul\":7378:7387   */\n      dup3\n        /* \"#utility.yul\":7374:7392   */\n      add\n        /* \"#utility.yul\":7366:7392   */\n      swap1\n      pop\n        /* \"#utility.yul\":7438:7447   */\n      dup2\n        /* \"#utility.yul\":7432:7436   */\n      dup2\n        /* \"#utility.yul\":7428:7448   */\n      sub\n        /* \"#utility.yul\":7424:7425   */\n      0x00\n        /* \"#utility.yul\":7413:7422   */\n      dup4\n        /* \"#utility.yul\":7409:7426   */\n      add\n        /* \"#utility.yul\":7402:7449   */\n      mstore\n        /* \"#utility.yul\":7466:7597   */\n      tag_168\n        /* \"#utility.yul\":7592:7596   */\n      dup2\n        /* \"#utility.yul\":7466:7597   */\n      tag_92\n      jump\t// in\n    tag_168:\n        /* \"#utility.yul\":7458:7597   */\n      swap1\n      pop\n        /* \"#utility.yul\":7185:7604   */\n      swap2\n      swap1\n      pop\n      jump\t// out\n        /* \"#utility.yul\":7610:7790   */\n    tag_93:\n        /* \"#utility.yul\":7658:7735   */\n      0x4e487b7100000000000000000000000000000000000000000000000000000000\n        /* \"#utility.yul\":7655:7656   */\n      0x00\n        /* \"#utility.yul\":7648:7736   */\n      mstore\n        /* \"#utility.yul\":7755:7759   */\n      0x12\n        /* \"#utility.yul\":7752:7753   */\n      0x04\n        /* \"#utility.yul\":7745:7760   */\n      mstore\n        /* \"#utility.yul\":7779:7783   */\n      0x24\n        /* \"#utility.yul\":7776:7777   */\n      0x00\n        /* \"#utility.yul\":7769:7784   */\n      revert\n        /* \"#utility.yul\":7796:7981   */\n    tag_59:\n        /* \"#utility.yul\":7836:7837   */\n      0x00\n        /* \"#utility.yul\":7853:7873   */\n      tag_171\n        /* \"#utility.yul\":7871:7872   */\n      dup3\n        /* \"#utility.yul\":7853:7873   */\n      tag_76\n      jump\t// in\n    tag_171:\n        /* \"#utility.yul\":7848:7873   */\n      swap2\n      pop\n        /* \"#utility.yul\":7887:7907   */\n      tag_172\n        /* \"#utility.yul\":7905:7906   */\n      dup4\n        /* \"#utility.yul\":7887:7907   */\n      tag_76\n      jump\t// in\n    tag_172:\n        /* \"#utility.yul\":7882:7907   */\n      swap3\n      pop\n        /* \"#utility.yul\":7926:7927   */\n      dup3\n        /* \"#utility.yul\":7916:7951   */\n      tag_173\n      jumpi\n        /* \"#utility.yul\":7931:7949   */\n      tag_174\n      tag_93\n      jump\t// in\n    tag_174:\n        /* \"#utility.yul\":7916:7951   */\n    tag_173:\n        /* \"#utility.yul\":7973:7974   */\n      dup3\n        /* \"#utility.yul\":7970:7971   */\n      dup3\n        /* \"#utility.yul\":7966:7975   */\n      div\n        /* \"#utility.yul\":7961:7975   */\n      swap1\n      pop\n        /* \"#utility.yul\":7796:7981   */\n      swap3\n      swap2\n      pop\n      pop\n      jump\t// out\n        /* \"#utility.yul\":7987:8145   */\n    tag_94:\n        /* \"#utility.yul\":8127:8137   */\n      0x4469766973696f6e000000000000000000000000000000000000000000000000\n        /* \"#utility.yul\":8123:8124   */\n      0x00\n        /* \"#utility.yul\":8115:8121   */\n      dup3\n        /* \"#utility.yul\":8111:8125   */\n      add\n        /* \"#utility.yul\":8104:8138   */\n      mstore\n        /* \"#utility.yul\":7987:8145   */\n      pop\n      jump\t// out\n        /* \"#utility.yul\":8151:8516   */\n    tag_95:\n        /* \"#utility.yul\":8293:8296   */\n      0x00\n        /* \"#utility.yul\":8314:8380   */\n      tag_177\n        /* \"#utility.yul\":8378:8379   */\n      0x08\n        /* \"#utility.yul\":8373:8376   */\n      dup4\n        /* \"#utility.yul\":8314:8380   */\n      tag_83\n      jump\t// in\n    tag_177:\n        /* \"#utility.yul\":8307:8380   */\n      swap2\n      pop\n        /* \"#utility.yul\":8389:8482   */\n      tag_178\n        /* \"#utility.yul\":8478:8481   */\n      dup3\n        /* \"#utility.yul\":8389:8482   */\n      tag_94\n      jump\t// in\n    tag_178:\n        /* \"#utility.yul\":8507:8509   */\n      0x20\n        /* \"#utility.yul\":8502:8505   */\n      dup3\n        /* \"#utility.yul\":8498:8510   */\n      add\n        /* \"#utility.yul\":8491:8510   */\n      swap1\n      pop\n        /* \"#utility.yul\":8151:8516   */\n      swap2\n      swap1\n      pop\n      jump\t// out\n        /* \"#utility.yul\":8522:9272   */\n    tag_61:\n        /* \"#utility.yul\":8772:8776   */\n      0x00\n        /* \"#utility.yul\":8810:8813   */\n      0x80\n        /* \"#utility.yul\":8799:8808   */\n      dup3\n        /* \"#utility.yul\":8795:8814   */\n      add\n        /* \"#utility.yul\":8787:8814   */\n      swap1\n      pop\n        /* \"#utility.yul\":8860:8869   */\n      dup2\n        /* \"#utility.yul\":8854:8858   */\n      dup2\n        /* \"#utility.yul\":8850:8870   */\n      sub\n        /* \"#utility.yul\":8846:8847   */\n      0x00\n        /* \"#utility.yul\":8835:8844   */\n      dup4\n        /* \"#utility.yul\":8831:8848   */\n      add\n        /* \"#utility.yul\":8824:8871   */\n      mstore\n        /* \"#utility.yul\":8888:9019   */\n      tag_180\n        /* \"#utility.yul\":9014:9018   */\n      dup2\n        /* \"#utility.yul\":8888:9019   */\n      tag_95\n      jump\t// in\n    tag_180:\n        /* \"#utility.yul\":8880:9019   */\n      swap1\n      pop\n        /* \"#utility.yul\":9029:9101   */\n      tag_181\n        /* \"#utility.yul\":9097:9099   */\n      0x20\n        /* \"#utility.yul\":9086:9095   */\n      dup4\n        /* \"#utility.yul\":9082:9100   */\n      add\n        /* \"#utility.yul\":9073:9079   */\n      dup7\n        /* \"#utility.yul\":9029:9101   */\n      tag_79\n      jump\t// in\n    tag_181:\n        /* \"#utility.yul\":9111:9183   */\n      tag_182\n        /* \"#utility.yul\":9179:9181   */\n      0x40\n        /* \"#utility.yul\":9168:9177   */\n      dup4\n        /* \"#utility.yul\":9164:9182   */\n      add\n        /* \"#utility.yul\":9155:9161   */\n      dup6\n        /* \"#utility.yul\":9111:9183   */\n      tag_79\n      jump\t// in\n    tag_182:\n        /* \"#utility.yul\":9193:9265   */\n      tag_183\n        /* \"#utility.yul\":9261:9263   */\n      0x60\n        /* \"#utility.yul\":9250:9259   */\n      dup4\n        /* \"#utility.yul\":9246:9264   */\n      add\n        /* \"#utility.yul\":9237:9243   */\n      dup5\n        /* \"#utility.yul\":9193:9265   */\n      tag_79\n      jump\t// in\n    tag_183:\n        /* \"#utility.yul\":8522:9272   */\n      swap5\n      swap4\n      pop\n      pop\n      pop\n      pop\n      jump\t// out\n        /* \"#utility.yul\":9278:9451   */\n    tag_96:\n        /* \"#utility.yul\":9418:9443   */\n      0x526573756c742077696c6c206265206e65676174697665000000000000000000\n        /* \"#utility.yul\":9414:9415   */\n      0x00\n        /* \"#utility.yul\":9406:9412   */\n      dup3\n        /* \"#utility.yul\":9402:9416   */\n      add\n        /* \"#utility.yul\":9395:9444   */\n      mstore\n        /* \"#utility.yul\":9278:9451   */\n      pop\n      jump\t// out\n        /* \"#utility.yul\":9457:9823   */\n    tag_97:\n        /* \"#utility.yul\":9599:9602   */\n      0x00\n        /* \"#utility.yul\":9620:9687   */\n      tag_186\n        /* \"#utility.yul\":9684:9686   */\n      0x17\n        /* \"#utility.yul\":9679:9682   */\n      dup4\n        /* \"#utility.yul\":9620:9687   */\n      tag_83\n      jump\t// in\n    tag_186:\n        /* \"#utility.yul\":9613:9687   */\n      swap2\n      pop\n        /* \"#utility.yul\":9696:9789   */\n      tag_187\n        /* \"#utility.yul\":9785:9788   */\n      dup3\n        /* \"#utility.yul\":9696:9789   */\n      tag_96\n      jump\t// in\n    tag_187:\n        /* \"#utility.yul\":9814:9816   */\n      0x20\n        /* \"#utility.yul\":9809:9812   */\n      dup3\n        /* \"#utility.yul\":9805:9817   */\n      add\n        /* \"#utility.yul\":9798:9817   */\n      swap1\n      pop\n        /* \"#utility.yul\":9457:9823   */\n      swap2\n      swap1\n      pop\n      jump\t// out\n        /* \"#utility.yul\":9829:10248   */\n    tag_68:\n        /* \"#utility.yul\":9995:9999   */\n      0x00\n        /* \"#utility.yul\":10033:10035   */\n      0x20\n        /* \"#utility.yul\":10022:10031   */\n      dup3\n        /* \"#utility.yul\":10018:10036   */\n      add\n        /* \"#utility.yul\":10010:10036   */\n      swap1\n      pop\n        /* \"#utility.yul\":10082:10091   */\n      dup2\n        /* \"#utility.yul\":10076:10080   */\n      dup2\n        /* \"#utility.yul\":10072:10092   */\n      sub\n        /* \"#utility.yul\":10068:10069   */\n      0x00\n        /* \"#utility.yul\":10057:10066   */\n      dup4\n        /* \"#utility.yul\":10053:10070   */\n      add\n        /* \"#utility.yul\":10046:10093   */\n      mstore\n        /* \"#utility.yul\":10110:10241   */\n      tag_189\n        /* \"#utility.yul\":10236:10240   */\n      dup2\n        /* \"#utility.yul\":10110:10241   */\n      tag_97\n      jump\t// in\n    tag_189:\n        /* \"#utility.yul\":10102:10241   */\n      swap1\n      pop\n        /* \"#utility.yul\":9829:10248   */\n      swap2\n      swap1\n      pop\n      jump\t// out\n        /* \"#utility.yul\":10254:10448   */\n    tag_70:\n        /* \"#utility.yul\":10294:10298   */\n      0x00\n        /* \"#utility.yul\":10314:10334   */\n      tag_191\n        /* \"#utility.yul\":10332:10333   */\n      dup3\n        /* \"#utility.yul\":10314:10334   */\n      tag_76\n      jump\t// in\n    tag_191:\n        /* \"#utility.yul\":10309:10334   */\n      swap2\n      pop\n        /* \"#utility.yul\":10348:10368   */\n      tag_192\n        /* \"#utility.yul\":10366:10367   */\n      dup4\n        /* \"#utility.yul\":10348:10368   */\n      tag_76\n      jump\t// in\n    tag_192:\n        /* \"#utility.yul\":10343:10368   */\n      swap3\n      pop\n        /* \"#utility.yul\":10392:10393   */\n      dup3\n        /* \"#utility.yul\":10389:10390   */\n      dup3\n        /* \"#utility.yul\":10385:10394   */\n      sub\n        /* \"#utility.yul\":10377:10394   */\n      swap1\n      pop\n        /* \"#utility.yul\":10416:10417   */\n      dup2\n        /* \"#utility.yul\":10410:10414   */\n      dup2\n        /* \"#utility.yul\":10407:10418   */\n      gt\n        /* \"#utility.yul\":10404:10441   */\n      iszero\n      tag_193\n      jumpi\n        /* \"#utility.yul\":10421:10439   */\n      tag_194\n      tag_86\n      jump\t// in\n    tag_194:\n        /* \"#utility.yul\":10404:10441   */\n    tag_193:\n        /* \"#utility.yul\":10254:10448   */\n      swap3\n      swap2\n      pop\n      pop\n      jump\t// out\n        /* \"#utility.yul\":10454:10615   */\n    tag_98:\n        /* \"#utility.yul\":10594:10607   */\n      0x5375627472616374696f6e000000000000000000000000000000000000000000\n        /* \"#utility.yul\":10590:10591   */\n      0x00\n        /* \"#utility.yul\":10582:10588   */\n      dup3\n        /* \"#utility.yul\":10578:10592   */\n      add\n        /* \"#utility.yul\":10571:10608   */\n      mstore\n        /* \"#utility.yul\":10454:10615   */\n      pop\n      jump\t// out\n        /* \"#utility.yul\":10621:10987   */\n    tag_99:\n        /* \"#utility.yul\":10763:10766   */\n      0x00\n        /* \"#utility.yul\":10784:10851   */\n      tag_197\n        /* \"#utility.yul\":10848:10850   */\n      0x0b\n        /* \"#utility.yul\":10843:10846   */\n      dup4\n        /* \"#utility.yul\":10784:10851   */\n      tag_83\n      jump\t// in\n    tag_197:\n        /* \"#utility.yul\":10777:10851   */\n      swap2\n      pop\n        /* \"#utility.yul\":10860:10953   */\n      tag_198\n        /* \"#utility.yul\":10949:10952   */\n      dup3\n        /* \"#utility.yul\":10860:10953   */\n      tag_98\n      jump\t// in\n    tag_198:\n        /* \"#utility.yul\":10978:10980   */\n      0x20\n        /* \"#utility.yul\":10973:10976   */\n      dup3\n        /* \"#utility.yul\":10969:10981   */\n      add\n        /* \"#utility.yul\":10962:10981   */\n      swap1\n      pop\n        /* \"#utility.yul\":10621:10987   */\n      swap2\n      swap1\n      pop\n      jump\t// out\n        /* \"#utility.yul\":10993:11743   */\n    tag_72:\n        /* \"#utility.yul\":11243:11247   */\n      0x00\n        /* \"#utility.yul\":11281:11284   */\n      0x80\n        /* \"#utility.yul\":11270:11279   */\n      dup3\n        /* \"#utility.yul\":11266:11285   */\n      add\n        /* \"#utility.yul\":11258:11285   */\n      swap1\n      pop\n        /* \"#utility.yul\":11331:11340   */\n      dup2\n        /* \"#utility.yul\":11325:11329   */\n      dup2\n        /* \"#utility.yul\":11321:11341   */\n      sub\n        /* \"#utility.yul\":11317:11318   */\n      0x00\n        /* \"#utility.yul\":11306:11315   */\n      dup4\n        /* \"#utility.yul\":11302:11319   */\n      add\n        /* \"#utility.yul\":11295:11342   */\n      mstore\n        /* \"#utility.yul\":11359:11490   */\n      tag_200\n        /* \"#utility.yul\":11485:11489   */\n      dup2\n        /* \"#utility.yul\":11359:11490   */\n      tag_99\n      jump\t// in\n    tag_200:\n        /* \"#utility.yul\":11351:11490   */\n      swap1\n      pop\n        /* \"#utility.yul\":11500:11572   */\n      tag_201\n        /* \"#utility.yul\":11568:11570   */\n      0x20\n        /* \"#utility.yul\":11557:11566   */\n      dup4\n        /* \"#utility.yul\":11553:11571   */\n      add\n        /* \"#utility.yul\":11544:11550   */\n      dup7\n        /* \"#utility.yul\":11500:11572   */\n      tag_79\n      jump\t// in\n    tag_201:\n        /* \"#utility.yul\":11582:11654   */\n      tag_202\n        /* \"#utility.yul\":11650:11652   */\n      0x40\n        /* \"#utility.yul\":11639:11648   */\n      dup4\n        /* \"#utility.yul\":11635:11653   */\n      add\n        /* \"#utility.yul\":11626:11632   */\n      dup6\n        /* \"#utility.yul\":11582:11654   */\n      tag_79\n      jump\t// in\n    tag_202:\n        /* \"#utility.yul\":11664:11736   */\n      tag_203\n        /* \"#utility.yul\":11732:11734   */\n      0x60\n        /* \"#utility.yul\":11721:11730   */\n      dup4\n        /* \"#utility.yul\":11717:11735   */\n      add\n        /* \"#utility.yul\":11708:11714   */\n      dup5\n        /* \"#utility.yul\":11664:11736   */\n      tag_79\n      jump\t// in\n    tag_203:\n        /* \"#utility.yul\":10993:11743   */\n      swap5\n      swap4\n      pop\n      pop\n      pop\n      pop\n      jump\t// out\n\n    auxdata: 0xa2646970667358221220eca627ceb8a8c7b4eef28752113feda3e891e2e87fecbc550115bc86d1497d0264736f6c634300081a0033\n}\n",
				"bytecode": {
					"linkReferences": {},
					"object": "6080604052348015600e575f80fd5b503360015f6101000a81548173ffffffffffffffffffffffffffffffffffffffff021916908373ffffffffffffffffffffffffffffffffffffffff1602179055505f8081905550610b97806100625f395ff3fe608060405234801561000f575f80fd5b5060043610610060575f3560e01c80635171762c146100645780636537214714610094578063771602f7146100b25780638da5cb5b146100e2578063a391c15b14610100578063b67d77c514610130575b5f80fd5b61007e600480360381019061007991906105e2565b610160565b60405161008b919061062f565b60405180910390f35b61009c610247565b6040516100a9919061062f565b60405180910390f35b6100cc60048036038101906100c791906105e2565b61024c565b6040516100d9919061062f565b60405180910390f35b6100ea610333565b6040516100f79190610687565b60405180910390f35b61011a600480360381019061011591906105e2565b610358565b604051610127919061062f565b60405180910390f35b61014a600480360381019061014591906105e2565b610481565b604051610157919061062f565b60405180910390f35b5f60015f9054906101000a900473ffffffffffffffffffffffffffffffffffffffff1673ffffffffffffffffffffffffffffffffffffffff163373ffffffffffffffffffffffffffffffffffffffff16146101f0576040517f08c379a00000000000000000000000000000000000000000000000000000000081526004016101e7906106fa565b60405180910390fd5b81836101fc9190610745565b5f819055507f4d22df91bf424cbfee42639d9208437c2a3368f32c8af7b81e8d9219ffd53d6f83835f54604051610235939291906107d0565b60405180910390a15f54905092915050565b5f5481565b5f60015f9054906101000a900473ffffffffffffffffffffffffffffffffffffffff1673ffffffffffffffffffffffffffffffffffffffff163373ffffffffffffffffffffffffffffffffffffffff16146102dc576040517f08c379a00000000000000000000000000000000000000000000000000000000081526004016102d3906106fa565b60405180910390fd5b81836102e89190610818565b5f819055507f4d22df91bf424cbfee42639d9208437c2a3368f32c8af7b81e8d9219ffd53d6f83835f5460405161032193929190610895565b60405180910390a15f54905092915050565b60015f9054906101000a900473ffffffffffffffffffffffffffffffffffffffff1681565b5f60015f9054906101000a900473ffffffffffffffffffffffffffffffffffffffff1673ffffffffffffffffffffffffffffffffffffffff163373ffffffffffffffffffffffffffffffffffffffff16146103e8576040517f08c379a00000000000000000000000000000000000000000000000000000000081526004016103df906106fa565b60405180910390fd5b5f821161042a576040517f08c379a000000000000000000000000000000000000000000000000000000000815260040161042190610927565b60405180910390fd5b81836104369190610972565b5f819055507f4d22df91bf424cbfee42639d9208437c2a3368f32c8af7b81e8d9219ffd53d6f83835f5460405161046f939291906109ec565b60405180910390a15f54905092915050565b5f60015f9054906101000a900473ffffffffffffffffffffffffffffffffffffffff1673ffffffffffffffffffffffffffffffffffffffff163373ffffffffffffffffffffffffffffffffffffffff1614610511576040517f08c379a0000000000000000000000000000000000000000000000000000000008152600401610508906106fa565b60405180910390fd5b82821115610554576040517f08c379a000000000000000000000000000000000000000000000000000000000815260040161054b90610a7e565b60405180910390fd5b81836105609190610a9c565b5f819055507f4d22df91bf424cbfee42639d9208437c2a3368f32c8af7b81e8d9219ffd53d6f83835f5460405161059993929190610b19565b60405180910390a15f54905092915050565b5f80fd5b5f819050919050565b6105c1816105af565b81146105cb575f80fd5b50565b5f813590506105dc816105b8565b92915050565b5f80604083850312156105f8576105f76105ab565b5b5f610605858286016105ce565b9250506020610616858286016105ce565b9150509250929050565b610629816105af565b82525050565b5f6020820190506106425f830184610620565b92915050565b5f73ffffffffffffffffffffffffffffffffffffffff82169050919050565b5f61067182610648565b9050919050565b61068181610667565b82525050565b5f60208201905061069a5f830184610678565b92915050565b5f82825260208201905092915050565b7f4e6f742074686520636f6e7472616374206f776e6572000000000000000000005f82015250565b5f6106e46016836106a0565b91506106ef826106b0565b602082019050919050565b5f6020820190508181035f830152610711816106d8565b9050919050565b7f4e487b71000000000000000000000000000000000000000000000000000000005f52601160045260245ffd5b5f61074f826105af565b915061075a836105af565b9250828202610768816105af565b9150828204841483151761077f5761077e610718565b5b5092915050565b7f4d756c7469706c69636174696f6e0000000000000000000000000000000000005f82015250565b5f6107ba600e836106a0565b91506107c582610786565b602082019050919050565b5f6080820190508181035f8301526107e7816107ae565b90506107f66020830186610620565b6108036040830185610620565b6108106060830184610620565b949350505050565b5f610822826105af565b915061082d836105af565b925082820190508082111561084557610844610718565b5b92915050565b7f416464696e6700000000000000000000000000000000000000000000000000005f82015250565b5f61087f6006836106a0565b915061088a8261084b565b602082019050919050565b5f6080820190508181035f8301526108ac81610873565b90506108bb6020830186610620565b6108c86040830185610620565b6108d56060830184610620565b949350505050565b7f4469766973696f6e2062792030000000000000000000000000000000000000005f82015250565b5f610911600d836106a0565b915061091c826108dd565b602082019050919050565b5f6020820190508181035f83015261093e81610905565b9050919050565b7f4e487b71000000000000000000000000000000000000000000000000000000005f52601260045260245ffd5b5f61097c826105af565b9150610987836105af565b92508261099757610996610945565b5b828204905092915050565b7f4469766973696f6e0000000000000000000000000000000000000000000000005f82015250565b5f6109d66008836106a0565b91506109e1826109a2565b602082019050919050565b5f6080820190508181035f830152610a03816109ca565b9050610a126020830186610620565b610a1f6040830185610620565b610a2c6060830184610620565b949350505050565b7f526573756c742077696c6c206265206e656761746976650000000000000000005f82015250565b5f610a686017836106a0565b9150610a7382610a34565b602082019050919050565b5f6020820190508181035f830152610a9581610a5c565b9050919050565b5f610aa6826105af565b9150610ab1836105af565b9250828203905081811115610ac957610ac8610718565b5b92915050565b7f5375627472616374696f6e0000000000000000000000000000000000000000005f82015250565b5f610b03600b836106a0565b9150610b0e82610acf565b602082019050919050565b5f6080820190508181035f830152610b3081610af7565b9050610b3f6020830186610620565b610b4c6040830185610620565b610b596060830184610620565b94935050505056fea2646970667358221220eca627ceb8a8c7b4eef28752113feda3e891e2e87fecbc550115bc86d1497d0264736f6c634300081a0033",
					"opcodes": "PUSH1 0x80 PUSH1 0x40 MSTORE CALLVALUE DUP1 ISZERO PUSH1 0xE JUMPI PUSH0 DUP1 REVERT JUMPDEST POP CALLER PUSH1 0x1 PUSH0 PUSH2 0x100 EXP DUP2 SLOAD DUP2 PUSH20 0xFFFFFFFFFFFFFFFFFFFFFFFFFFFFFFFFFFFFFFFF MUL NOT AND SWAP1 DUP4 PUSH20 0xFFFFFFFFFFFFFFFFFFFFFFFFFFFFFFFFFFFFFFFF AND MUL OR SWAP1 SSTORE POP PUSH0 DUP1 DUP2 SWAP1 SSTORE POP PUSH2 0xB97 DUP1 PUSH2 0x62 PUSH0 CODECOPY PUSH0 RETURN INVALID PUSH1 0x80 PUSH1 0x40 MSTORE CALLVALUE DUP1 ISZERO PUSH2 0xF JUMPI PUSH0 DUP1 REVERT JUMPDEST POP PUSH1 0x4 CALLDATASIZE LT PUSH2 0x60 JUMPI PUSH0 CALLDATALOAD PUSH1 0xE0 SHR DUP1 PUSH4 0x5171762C EQ PUSH2 0x64 JUMPI DUP1 PUSH4 0x65372147 EQ PUSH2 0x94 JUMPI DUP1 PUSH4 0x771602F7 EQ PUSH2 0xB2 JUMPI DUP1 PUSH4 0x8DA5CB5B EQ PUSH2 0xE2 JUMPI DUP1 PUSH4 0xA391C15B EQ PUSH2 0x100 JUMPI DUP1 PUSH4 0xB67D77C5 EQ PUSH2 0x130 JUMPI JUMPDEST PUSH0 DUP1 REVERT JUMPDEST PUSH2 0x7E PUSH1 0x4 DUP1 CALLDATASIZE SUB DUP2 ADD SWAP1 PUSH2 0x79 SWAP2 SWAP1 PUSH2 0x5E2 JUMP JUMPDEST PUSH2 0x160 JUMP JUMPDEST PUSH1 0x40 MLOAD PUSH2 0x8B SWAP2 SWAP1 PUSH2 0x62F JUMP JUMPDEST PUSH1 0x40 MLOAD DUP1 SWAP2 SUB SWAP1 RETURN JUMPDEST PUSH2 0x9C PUSH2 0x247 JUMP JUMPDEST PUSH1 0x40 MLOAD PUSH2 0xA9 SWAP2 SWAP1 PUSH2 0x62F JUMP JUMPDEST PUSH1 0x40 MLOAD DUP1 SWAP2 SUB SWAP1 RETURN JUMPDEST PUSH2 0xCC PUSH1 0x4 DUP1 CALLDATASIZE SUB DUP2 ADD SWAP1 PUSH2 0xC7 SWAP2 SWAP1 PUSH2 0x5E2 JUMP JUMPDEST PUSH2 0x24C JUMP JUMPDEST PUSH1 0x40 MLOAD PUSH2 0xD9 SWAP2 SWAP1 PUSH2 0x62F JUMP JUMPDEST PUSH1 0x40 MLOAD DUP1 SWAP2 SUB SWAP1 RETURN JUMPDEST PUSH2 0xEA PUSH2 0x333 JUMP JUMPDEST PUSH1 0x40 MLOAD PUSH2 0xF7 SWAP2 SWAP1 PUSH2 0x687 JUMP JUMPDEST PUSH1 0x40 MLOAD DUP1 SWAP2 SUB SWAP1 RETURN JUMPDEST PUSH2 0x11A PUSH1 0x4 DUP1 CALLDATASIZE SUB DUP2 ADD SWAP1 PUSH2 0x115 SWAP2 SWAP1 PUSH2 0x5E2 JUMP JUMPDEST PUSH2 0x358 JUMP JUMPDEST PUSH1 0x40 MLOAD PUSH2 0x127 SWAP2 SWAP1 PUSH2 0x62F JUMP JUMPDEST PUSH1 0x40 MLOAD DUP1 SWAP2 SUB SWAP1 RETURN JUMPDEST PUSH2 0x14A PUSH1 0x4 DUP1 CALLDATASIZE SUB DUP2 ADD SWAP1 PUSH2 0x145 SWAP2 SWAP1 PUSH2 0x5E2 JUMP JUMPDEST PUSH2 0x481 JUMP JUMPDEST PUSH1 0x40 MLOAD PUSH2 0x157 SWAP2 SWAP1 PUSH2 0x62F JUMP JUMPDEST PUSH1 0x40 MLOAD DUP1 SWAP2 SUB SWAP1 RETURN JUMPDEST PUSH0 PUSH1 0x1 PUSH0 SWAP1 SLOAD SWAP1 PUSH2 0x100 EXP SWAP1 DIV PUSH20 0xFFFFFFFFFFFFFFFFFFFFFFFFFFFFFFFFFFFFFFFF AND PUSH20 0xFFFFFFFFFFFFFFFFFFFFFFFFFFFFFFFFFFFFFFFF AND CALLER PUSH20 0xFFFFFFFFFFFFFFFFFFFFFFFFFFFFFFFFFFFFFFFF AND EQ PUSH2 0x1F0 JUMPI PUSH1 0x40 MLOAD PUSH32 0x8C379A000000000000000000000000000000000000000000000000000000000 DUP2 MSTORE PUSH1 0x4 ADD PUSH2 0x1E7 SWAP1 PUSH2 0x6FA JUMP JUMPDEST PUSH1 0x40 MLOAD DUP1 SWAP2 SUB SWAP1 REVERT JUMPDEST DUP2 DUP4 PUSH2 0x1FC SWAP2 SWAP1 PUSH2 0x745 JUMP JUMPDEST PUSH0 DUP2 SWAP1 SSTORE POP PUSH32 0x4D22DF91BF424CBFEE42639D9208437C2A3368F32C8AF7B81E8D9219FFD53D6F DUP4 DUP4 PUSH0 SLOAD PUSH1 0x40 MLOAD PUSH2 0x235 SWAP4 SWAP3 SWAP2 SWAP1 PUSH2 0x7D0 JUMP JUMPDEST PUSH1 0x40 MLOAD DUP1 SWAP2 SUB SWAP1 LOG1 PUSH0 SLOAD SWAP1 POP SWAP3 SWAP2 POP POP JUMP JUMPDEST PUSH0 SLOAD DUP2 JUMP JUMPDEST PUSH0 PUSH1 0x1 PUSH0 SWAP1 SLOAD SWAP1 PUSH2 0x100 EXP SWAP1 DIV PUSH20 0xFFFFFFFFFFFFFFFFFFFFFFFFFFFFFFFFFFFFFFFF AND PUSH20 0xFFFFFFFFFFFFFFFFFFFFFFFFFFFFFFFFFFFFFFFF AND CALLER PUSH20 0xFFFFFFFFFFFFFFFFFFFFFFFFFFFFFFFFFFFFFFFF AND EQ PUSH2 0x2DC JUMPI PUSH1 0x40 MLOAD PUSH32 0x8C379A000000000000000000000000000000000000000000000000000000000 DUP2 MSTORE PUSH1 0x4 ADD PUSH2 0x2D3 SWAP1 PUSH2 0x6FA JUMP JUMPDEST PUSH1 0x40 MLOAD DUP1 SWAP2 SUB SWAP1 REVERT JUMPDEST DUP2 DUP4 PUSH2 0x2E8 SWAP2 SWAP1 PUSH2 0x818 JUMP JUMPDEST PUSH0 DUP2 SWAP1 SSTORE POP PUSH32 0x4D22DF91BF424CBFEE42639D9208437C2A3368F32C8AF7B81E8D9219FFD53D6F DUP4 DUP4 PUSH0 SLOAD PUSH1 0x40 MLOAD PUSH2 0x321 SWAP4 SWAP3 SWAP2 SWAP1 PUSH2 0x895 JUMP JUMPDEST PUSH1 0x40 MLOAD DUP1 SWAP2 SUB SWAP1 LOG1 PUSH0 SLOAD SWAP1 POP SWAP3 SWAP2 POP POP JUMP JUMPDEST PUSH1 0x1 PUSH0 SWAP1 SLOAD SWAP1 PUSH2 0x100 EXP SWAP1 DIV PUSH20 0xFFFFFFFFFFFFFFFFFFFFFFFFFFFFFFFFFFFFFFFF AND DUP2 JUMP JUMPDEST PUSH0 PUSH1 0x1 PUSH0 SWAP1 SLOAD SWAP1 PUSH2 0x100 EXP SWAP1 DIV PUSH20 0xFFFFFFFFFFFFFFFFFFFFFFFFFFFFFFFFFFFFFFFF AND PUSH20 0xFFFFFFFFFFFFFFFFFFFFFFFFFFFFFFFFFFFFFFFF AND CALLER PUSH20 0xFFFFFFFFFFFFFFFFFFFFFFFFFFFFFFFFFFFFFFFF AND EQ PUSH2 0x3E8 JUMPI PUSH1 0x40 MLOAD PUSH32 0x8C379A000000000000000000000000000000000000000000000000000000000 DUP2 MSTORE PUSH1 0x4 ADD PUSH2 0x3DF SWAP1 PUSH2 0x6FA JUMP JUMPDEST PUSH1 0x40 MLOAD DUP1 SWAP2 SUB SWAP1 REVERT JUMPDEST PUSH0 DUP3 GT PUSH2 0x42A JUMPI PUSH1 0x40 MLOAD PUSH32 0x8C379A000000000000000000000000000000000000000000000000000000000 DUP2 MSTORE PUSH1 0x4 ADD PUSH2 0x421 SWAP1 PUSH2 0x927 JUMP JUMPDEST PUSH1 0x40 MLOAD DUP1 SWAP2 SUB SWAP1 REVERT JUMPDEST DUP2 DUP4 PUSH2 0x436 SWAP2 SWAP1 PUSH2 0x972 JUMP JUMPDEST PUSH0 DUP2 SWAP1 SSTORE POP PUSH32 0x4D22DF91BF424CBFEE42639D9208437C2A3368F32C8AF7B81E8D9219FFD53D6F DUP4 DUP4 PUSH0 SLOAD PUSH1 0x40 MLOAD PUSH2 0x46F SWAP4 SWAP3 SWAP2 SWAP1 PUSH2 0x9EC JUMP JUMPDEST PUSH1 0x40 MLOAD DUP1 SWAP2 SUB SWAP1 LOG1 PUSH0 SLOAD SWAP1 POP SWAP3 SWAP2 POP POP JUMP JUMPDEST PUSH0 PUSH1 0x1 PUSH0 SWAP1 SLOAD SWAP1 PUSH2 0x100 EXP SWAP1 DIV PUSH20 0xFFFFFFFFFFFFFFFFFFFFFFFFFFFFFFFFFFFFFFFF AND PUSH20 0xFFFFFFFFFFFFFFFFFFFFFFFFFFFFFFFFFFFFFFFF AND CALLER PUSH20 0xFFFFFFFFFFFFFFFFFFFFFFFFFFFFFFFFFFFFFFFF AND EQ PUSH2 0x511 JUMPI PUSH1 0x40 MLOAD PUSH32 0x8C379A000000000000000000000000000000000000000000000000000000000 DUP2 MSTORE PUSH1 0x4 ADD PUSH2 0x508 SWAP1 PUSH2 0x6FA JUMP JUMPDEST PUSH1 0x40 MLOAD DUP1 SWAP2 SUB SWAP1 REVERT JUMPDEST DUP3 DUP3 GT ISZERO PUSH2 0x554 JUMPI PUSH1 0x40 MLOAD PUSH32 0x8C379A000000000000000000000000000000000000000000000000000000000 DUP2 MSTORE PUSH1 0x4 ADD PUSH2 0x54B SWAP1 PUSH2 0xA7E JUMP JUMPDEST PUSH1 0x40 MLOAD DUP1 SWAP2 SUB SWAP1 REVERT JUMPDEST DUP2 DUP4 PUSH2 0x560 SWAP2 SWAP1 PUSH2 0xA9C JUMP JUMPDEST PUSH0 DUP2 SWAP1 SSTORE POP PUSH32 0x4D22DF91BF424CBFEE42639D9208437C2A3368F32C8AF7B81E8D9219FFD53D6F DUP4 DUP4 PUSH0 SLOAD PUSH1 0x40 MLOAD PUSH2 0x599 SWAP4 SWAP3 SWAP2 SWAP1 PUSH2 0xB19 JUMP JUMPDEST PUSH1 0x40 MLOAD DUP1 SWAP2 SUB SWAP1 LOG1 PUSH0 SLOAD SWAP1 POP SWAP3 SWAP2 POP POP JUMP JUMPDEST PUSH0 DUP1 REVERT JUMPDEST PUSH0 DUP2 SWAP1 POP SWAP2 SWAP1 POP JUMP JUMPDEST PUSH2 0x5C1 DUP2 PUSH2 0x5AF JUMP JUMPDEST DUP2 EQ PUSH2 0x5CB JUMPI PUSH0 DUP1 REVERT JUMPDEST POP JUMP JUMPDEST PUSH0 DUP2 CALLDATALOAD SWAP1 POP PUSH2 0x5DC DUP2 PUSH2 0x5B8 JUMP JUMPDEST SWAP3 SWAP2 POP POP JUMP JUMPDEST PUSH0 DUP1 PUSH1 0x40 DUP4 DUP6 SUB SLT ISZERO PUSH2 0x5F8 JUMPI PUSH2 0x5F7 PUSH2 0x5AB JUMP JUMPDEST JUMPDEST PUSH0 PUSH2 0x605 DUP6 DUP3 DUP7 ADD PUSH2 0x5CE JUMP JUMPDEST SWAP3 POP POP PUSH1 0x20 PUSH2 0x616 DUP6 DUP3 DUP7 ADD PUSH2 0x5CE JUMP JUMPDEST SWAP2 POP POP SWAP3 POP SWAP3 SWAP1 POP JUMP JUMPDEST PUSH2 0x629 DUP2 PUSH2 0x5AF JUMP JUMPDEST DUP3 MSTORE POP POP JUMP JUMPDEST PUSH0 PUSH1 0x20 DUP3 ADD SWAP1 POP PUSH2 0x642 PUSH0 DUP4 ADD DUP5 PUSH2 0x620 JUMP JUMPDEST SWAP3 SWAP2 POP POP JUMP JUMPDEST PUSH0 PUSH20 0xFFFFFFFFFFFFFFFFFFFFFFFFFFFFFFFFFFFFFFFF DUP3 AND SWAP1 POP SWAP2 SWAP1 POP JUMP JUMPDEST PUSH0 PUSH2 0x671 DUP3 PUSH2 0x648 JUMP JUMPDEST SWAP1 POP SWAP2 SWAP1 POP JUMP JUMPDEST PUSH2 0x681 DUP2 PUSH2 0x667 JUMP JUMPDEST DUP3 MSTORE POP POP JUMP JUMPDEST PUSH0 PUSH1 0x20 DUP3 ADD SWAP1 POP PUSH2 0x69A PUSH0 DUP4 ADD DUP5 PUSH2 0x678 JUMP JUMPDEST SWAP3 SWAP2 POP POP JUMP JUMPDEST PUSH0 DUP3 DUP3 MSTORE PUSH1 0x20 DUP3 ADD SWAP1 POP SWAP3 SWAP2 POP POP JUMP JUMPDEST PUSH32 0x4E6F742074686520636F6E7472616374206F776E657200000000000000000000 PUSH0 DUP3 ADD MSTORE POP JUMP JUMPDEST PUSH0 PUSH2 0x6E4 PUSH1 0x16 DUP4 PUSH2 0x6A0 JUMP JUMPDEST SWAP2 POP PUSH2 0x6EF DUP3 PUSH2 0x6B0 JUMP JUMPDEST PUSH1 0x20 DUP3 ADD SWAP1 POP SWAP2 SWAP1 POP JUMP JUMPDEST PUSH0 PUSH1 0x20 DUP3 ADD SWAP1 POP DUP2 DUP2 SUB PUSH0 DUP4 ADD MSTORE PUSH2 0x711 DUP2 PUSH2 0x6D8 JUMP JUMPDEST SWAP1 POP SWAP2 SWAP1 POP JUMP JUMPDEST PUSH32 0x4E487B7100000000000000000000000000000000000000000000000000000000 PUSH0 MSTORE PUSH1 0x11 PUSH1 0x4 MSTORE PUSH1 0x24 PUSH0 REVERT JUMPDEST PUSH0 PUSH2 0x74F DUP3 PUSH2 0x5AF JUMP JUMPDEST SWAP2 POP PUSH2 0x75A DUP4 PUSH2 0x5AF JUMP JUMPDEST SWAP3 POP DUP3 DUP3 MUL PUSH2 0x768 DUP2 PUSH2 0x5AF JUMP JUMPDEST SWAP2 POP DUP3 DUP3 DIV DUP5 EQ DUP4 ISZERO OR PUSH2 0x77F JUMPI PUSH2 0x77E PUSH2 0x718 JUMP JUMPDEST JUMPDEST POP SWAP3 SWAP2 POP POP JUMP JUMPDEST PUSH32 0x4D756C7469706C69636174696F6E000000000000000000000000000000000000 PUSH0 DUP3 ADD MSTORE POP JUMP JUMPDEST PUSH0 PUSH2 0x7BA PUSH1 0xE DUP4 PUSH2 0x6A0 JUMP JUMPDEST SWAP2 POP PUSH2 0x7C5 DUP3 PUSH2 0x786 JUMP JUMPDEST PUSH1 0x20 DUP3 ADD SWAP1 POP SWAP2 SWAP1 POP JUMP JUMPDEST PUSH0 PUSH1 0x80 DUP3 ADD SWAP1 POP DUP2 DUP2 SUB PUSH0 DUP4 ADD MSTORE PUSH2 0x7E7 DUP2 PUSH2 0x7AE JUMP JUMPDEST SWAP1 POP PUSH2 0x7F6 PUSH1 0x20 DUP4 ADD DUP7 PUSH2 0x620 JUMP JUMPDEST PUSH2 0x803 PUSH1 0x40 DUP4 ADD DUP6 PUSH2 0x620 JUMP JUMPDEST PUSH2 0x810 PUSH1 0x60 DUP4 ADD DUP5 PUSH2 0x620 JUMP JUMPDEST SWAP5 SWAP4 POP POP POP POP JUMP JUMPDEST PUSH0 PUSH2 0x822 DUP3 PUSH2 0x5AF JUMP JUMPDEST SWAP2 POP PUSH2 0x82D DUP4 PUSH2 0x5AF JUMP JUMPDEST SWAP3 POP DUP3 DUP3 ADD SWAP1 POP DUP1 DUP3 GT ISZERO PUSH2 0x845 JUMPI PUSH2 0x844 PUSH2 0x718 JUMP JUMPDEST JUMPDEST SWAP3 SWAP2 POP POP JUMP JUMPDEST PUSH32 0x416464696E670000000000000000000000000000000000000000000000000000 PUSH0 DUP3 ADD MSTORE POP JUMP JUMPDEST PUSH0 PUSH2 0x87F PUSH1 0x6 DUP4 PUSH2 0x6A0 JUMP JUMPDEST SWAP2 POP PUSH2 0x88A DUP3 PUSH2 0x84B JUMP JUMPDEST PUSH1 0x20 DUP3 ADD SWAP1 POP SWAP2 SWAP1 POP JUMP JUMPDEST PUSH0 PUSH1 0x80 DUP3 ADD SWAP1 POP DUP2 DUP2 SUB PUSH0 DUP4 ADD MSTORE PUSH2 0x8AC DUP2 PUSH2 0x873 JUMP JUMPDEST SWAP1 POP PUSH2 0x8BB PUSH1 0x20 DUP4 ADD DUP7 PUSH2 0x620 JUMP JUMPDEST PUSH2 0x8C8 PUSH1 0x40 DUP4 ADD DUP6 PUSH2 0x620 JUMP JUMPDEST PUSH2 0x8D5 PUSH1 0x60 DUP4 ADD DUP5 PUSH2 0x620 JUMP JUMPDEST SWAP5 SWAP4 POP POP POP POP JUMP JUMPDEST PUSH32 0x4469766973696F6E206279203000000000000000000000000000000000000000 PUSH0 DUP3 ADD MSTORE POP JUMP JUMPDEST PUSH0 PUSH2 0x911 PUSH1 0xD DUP4 PUSH2 0x6A0 JUMP JUMPDEST SWAP2 POP PUSH2 0x91C DUP3 PUSH2 0x8DD JUMP JUMPDEST PUSH1 0x20 DUP3 ADD SWAP1 POP SWAP2 SWAP1 POP JUMP JUMPDEST PUSH0 PUSH1 0x20 DUP3 ADD SWAP1 POP DUP2 DUP2 SUB PUSH0 DUP4 ADD MSTORE PUSH2 0x93E DUP2 PUSH2 0x905 JUMP JUMPDEST SWAP1 POP SWAP2 SWAP1 POP JUMP JUMPDEST PUSH32 0x4E487B7100000000000000000000000000000000000000000000000000000000 PUSH0 MSTORE PUSH1 0x12 PUSH1 0x4 MSTORE PUSH1 0x24 PUSH0 REVERT JUMPDEST PUSH0 PUSH2 0x97C DUP3 PUSH2 0x5AF JUMP JUMPDEST SWAP2 POP PUSH2 0x987 DUP4 PUSH2 0x5AF JUMP JUMPDEST SWAP3 POP DUP3 PUSH2 0x997 JUMPI PUSH2 0x996 PUSH2 0x945 JUMP JUMPDEST JUMPDEST DUP3 DUP3 DIV SWAP1 POP SWAP3 SWAP2 POP POP JUMP JUMPDEST PUSH32 0x4469766973696F6E000000000000000000000000000000000000000000000000 PUSH0 DUP3 ADD MSTORE POP JUMP JUMPDEST PUSH0 PUSH2 0x9D6 PUSH1 0x8 DUP4 PUSH2 0x6A0 JUMP JUMPDEST SWAP2 POP PUSH2 0x9E1 DUP3 PUSH2 0x9A2 JUMP JUMPDEST PUSH1 0x20 DUP3 ADD SWAP1 POP SWAP2 SWAP1 POP JUMP JUMPDEST PUSH0 PUSH1 0x80 DUP3 ADD SWAP1 POP DUP2 DUP2 SUB PUSH0 DUP4 ADD MSTORE PUSH2 0xA03 DUP2 PUSH2 0x9CA JUMP JUMPDEST SWAP1 POP PUSH2 0xA12 PUSH1 0x20 DUP4 ADD DUP7 PUSH2 0x620 JUMP JUMPDEST PUSH2 0xA1F PUSH1 0x40 DUP4 ADD DUP6 PUSH2 0x620 JUMP JUMPDEST PUSH2 0xA2C PUSH1 0x60 DUP4 ADD DUP5 PUSH2 0x620 JUMP JUMPDEST SWAP5 SWAP4 POP POP POP POP JUMP JUMPDEST PUSH32 0x526573756C742077696C6C206265206E65676174697665000000000000000000 PUSH0 DUP3 ADD MSTORE POP JUMP JUMPDEST PUSH0 PUSH2 0xA68 PUSH1 0x17 DUP4 PUSH2 0x6A0 JUMP JUMPDEST SWAP2 POP PUSH2 0xA73 DUP3 PUSH2 0xA34 JUMP JUMPDEST PUSH1 0x20 DUP3 ADD SWAP1 POP SWAP2 SWAP1 POP JUMP JUMPDEST PUSH0 PUSH1 0x20 DUP3 ADD SWAP1 POP DUP2 DUP2 SUB PUSH0 DUP4 ADD MSTORE PUSH2 0xA95 DUP2 PUSH2 0xA5C JUMP JUMPDEST SWAP1 POP SWAP2 SWAP1 POP JUMP JUMPDEST PUSH0 PUSH2 0xAA6 DUP3 PUSH2 0x5AF JUMP JUMPDEST SWAP2 POP PUSH2 0xAB1 DUP4 PUSH2 0x5AF JUMP JUMPDEST SWAP3 POP DUP3 DUP3 SUB SWAP1 POP DUP2 DUP2 GT ISZERO PUSH2 0xAC9 JUMPI PUSH2 0xAC8 PUSH2 0x718 JUMP JUMPDEST JUMPDEST SWAP3 SWAP2 POP POP JUMP JUMPDEST PUSH32 0x5375627472616374696F6E000000000000000000000000000000000000000000 PUSH0 DUP3 ADD MSTORE POP JUMP JUMPDEST PUSH0 PUSH2 0xB03 PUSH1 0xB DUP4 PUSH2 0x6A0 JUMP JUMPDEST SWAP2 POP PUSH2 0xB0E DUP3 PUSH2 0xACF JUMP JUMPDEST PUSH1 0x20 DUP3 ADD SWAP1 POP SWAP2 SWAP1 POP JUMP JUMPDEST PUSH0 PUSH1 0x80 DUP3 ADD SWAP1 POP DUP2 DUP2 SUB PUSH0 DUP4 ADD MSTORE PUSH2 0xB30 DUP2 PUSH2 0xAF7 JUMP JUMPDEST SWAP1 POP PUSH2 0xB3F PUSH1 0x20 DUP4 ADD DUP7 PUSH2 0x620 JUMP JUMPDEST PUSH2 0xB4C PUSH1 0x40 DUP4 ADD DUP6 PUSH2 0x620 JUMP JUMPDEST PUSH2 0xB59 PUSH1 0x60 DUP4 ADD DUP5 PUSH2 0x620 JUMP JUMPDEST SWAP5 SWAP4 POP POP POP POP JUMP INVALID LOG2 PUSH5 0x6970667358 0x22 SLT KECCAK256 0xEC 0xA6 0x27 0xCE 0xB8 0xA8 0xC7 0xB4 0xEE CALLCODE DUP8 MSTORE GT EXTCODEHASH 0xED LOG3 0xE8 SWAP2 0xE2 0xE8 PUSH32 0xECBC550115BC86D1497D0264736F6C634300081A003300000000000000000000 "
				},
				"gasEstimates": {
					"creation": {
						"codeDepositCost": "593400",
						"executionCost": "29901",
						"totalCost": "623301"
					},
					"external": {
						"add(uint256,uint256)": "infinite",
						"div(uint256,uint256)": "infinite",
						"multi(uint256,uint256)": "infinite",
						"owner()": "2552",
						"result()": "2424",
						"sub(uint256,uint256)": "infinite"
					}
				},
				"methodIdentifiers": {
					"add(uint256,uint256)": "771602f7",
					"div(uint256,uint256)": "a391c15b",
					"multi(uint256,uint256)": "5171762c",
					"owner()": "8da5cb5b",
					"result()": "65372147",
					"sub(uint256,uint256)": "b67d77c5"
				}
			},
			"storageLayout": {
				"storage": [
					{
						"astId": 3,
						"contract": "contracts/calculator.sol:Calculator",
						"label": "result",
						"offset": 0,
						"slot": "0",
						"type": "t_uint256"
					},
					{
						"astId": 5,
						"contract": "contracts/calculator.sol:Calculator",
						"label": "owner",
						"offset": 0,
						"slot": "1",
						"type": "t_address"
					}
				],
				"types": {
					"t_address": {
						"encoding": "inplace",
						"label": "address",
						"numberOfBytes": "20"
					},
					"t_uint256": {
						"encoding": "inplace",
						"label": "uint256",
						"numberOfBytes": "32"
					}
				}
			},
			"userdoc": {
				"kind": "user",
				"methods": {},
				"version": 1
			}
		}
	}
}